{
	"contracts/9_EjercicioMensajes.sol": {
		"MensajesBasicos": {
			"abi": [
				{
					"inputs": [],
					"stateMutability": "nonpayable",
					"type": "constructor"
				},
				{
					"anonymous": false,
					"inputs": [
						{
							"indexed": true,
							"internalType": "address",
							"name": "remitente",
							"type": "address"
						},
						{
							"indexed": true,
							"internalType": "address",
							"name": "destinatario",
							"type": "address"
						},
						{
							"indexed": false,
							"internalType": "string",
							"name": "contenido",
							"type": "string"
						},
						{
							"indexed": false,
							"internalType": "uint256",
							"name": "fecha",
							"type": "uint256"
						}
					],
					"name": "MensajeEnviado",
					"type": "event"
				},
				{
					"inputs": [
						{
							"internalType": "address",
							"name": "_usuario",
							"type": "address"
						}
					],
					"name": "cantidadMensajes",
					"outputs": [
						{
							"internalType": "uint256",
							"name": "",
							"type": "uint256"
						}
					],
					"stateMutability": "view",
					"type": "function"
				},
				{
					"inputs": [
						{
							"internalType": "address",
							"name": "_destinatario",
							"type": "address"
						},
						{
							"internalType": "string",
							"name": "_contenido",
							"type": "string"
						}
					],
					"name": "enviarMensaje",
					"outputs": [],
					"stateMutability": "nonpayable",
					"type": "function"
				},
				{
					"inputs": [],
					"name": "propietario",
					"outputs": [
						{
							"internalType": "address",
							"name": "",
							"type": "address"
						}
					],
					"stateMutability": "view",
					"type": "function"
				},
				{
					"inputs": [],
					"name": "verHistorial",
					"outputs": [
						{
							"components": [
								{
									"internalType": "address",
									"name": "remitente",
									"type": "address"
								},
								{
									"internalType": "address",
									"name": "destinatario",
									"type": "address"
								},
								{
									"internalType": "string",
									"name": "contenido",
									"type": "string"
								},
								{
									"internalType": "uint256",
									"name": "fecha",
									"type": "uint256"
								}
							],
							"internalType": "struct MensajesBasicos.Mensaje[]",
							"name": "",
							"type": "tuple[]"
						}
					],
					"stateMutability": "view",
					"type": "function"
				},
				{
					"inputs": [
						{
							"internalType": "address",
							"name": "_usuario",
							"type": "address"
						},
						{
							"internalType": "uint256",
							"name": "indice",
							"type": "uint256"
						}
					],
					"name": "verMensaje",
					"outputs": [
						{
							"components": [
								{
									"internalType": "address",
									"name": "remitente",
									"type": "address"
								},
								{
									"internalType": "address",
									"name": "destinatario",
									"type": "address"
								},
								{
									"internalType": "string",
									"name": "contenido",
									"type": "string"
								},
								{
									"internalType": "uint256",
									"name": "fecha",
									"type": "uint256"
								}
							],
							"internalType": "struct MensajesBasicos.Mensaje",
							"name": "",
							"type": "tuple"
						}
					],
					"stateMutability": "view",
					"type": "function"
				}
			],
			"devdoc": {
				"kind": "dev",
				"methods": {},
				"version": 1
			},
			"evm": {
				"assembly": "    /* \"contracts/9_EjercicioMensajes.sol\":68:1898  contract MensajesBasicos {... */\n  mstore(0x40, 0x80)\n    /* \"contracts/9_EjercicioMensajes.sol\":135:192  constructor() {... */\n  callvalue\n  dup1\n  iszero\n  tag_1\n  jumpi\n  revert(0x00, 0x00)\ntag_1:\n  pop\n    /* \"contracts/9_EjercicioMensajes.sol\":174:184  msg.sender */\n  caller\n    /* \"contracts/9_EjercicioMensajes.sol\":160:171  propietario */\n  0x00\n  0x00\n    /* \"contracts/9_EjercicioMensajes.sol\":160:184  propietario = msg.sender */\n  0x0100\n  exp\n  dup2\n  sload\n  dup2\n  0xffffffffffffffffffffffffffffffffffffffff\n  mul\n  not\n  and\n  swap1\n  dup4\n  0xffffffffffffffffffffffffffffffffffffffff\n  and\n  mul\n  or\n  swap1\n  sstore\n  pop\n    /* \"contracts/9_EjercicioMensajes.sol\":68:1898  contract MensajesBasicos {... */\n  dataSize(sub_0)\n  dup1\n  dataOffset(sub_0)\n  0x00\n  codecopy\n  0x00\n  return\nstop\n\nsub_0: assembly {\n        /* \"contracts/9_EjercicioMensajes.sol\":68:1898  contract MensajesBasicos {... */\n      mstore(0x40, 0x80)\n      callvalue\n      dup1\n      iszero\n      tag_1\n      jumpi\n      revert(0x00, 0x00)\n    tag_1:\n      pop\n      jumpi(tag_2, lt(calldatasize, 0x04))\n      shr(0xe0, calldataload(0x00))\n      dup1\n      0x3c4f81cd\n      eq\n      tag_3\n      jumpi\n      dup1\n      0x7aa361c8\n      eq\n      tag_4\n      jumpi\n      dup1\n      0xa716ce52\n      eq\n      tag_5\n      jumpi\n      dup1\n      0xe9051fa0\n      eq\n      tag_6\n      jumpi\n      dup1\n      0xeb25f188\n      eq\n      tag_7\n      jumpi\n    tag_2:\n      revert(0x00, 0x00)\n        /* \"contracts/9_EjercicioMensajes.sol\":100:126  address public propietario */\n    tag_3:\n      tag_8\n      tag_9\n      jump\t// in\n    tag_8:\n      mload(0x40)\n      tag_10\n      swap2\n      swap1\n      tag_11\n      jump\t// in\n    tag_10:\n      mload(0x40)\n      dup1\n      swap2\n      sub\n      swap1\n      return\n        /* \"contracts/9_EjercicioMensajes.sol\":751:1389  function enviarMensaje(address _destinatario, string calldata _contenido) external soloPropietario {... */\n    tag_4:\n      tag_12\n      0x04\n      dup1\n      calldatasize\n      sub\n      dup2\n      add\n      swap1\n      tag_13\n      swap2\n      swap1\n      tag_14\n      jump\t// in\n    tag_13:\n      tag_15\n      jump\t// in\n    tag_12:\n      stop\n        /* \"contracts/9_EjercicioMensajes.sol\":1790:1895  function verHistorial() external view returns (Mensaje[] memory) {... */\n    tag_5:\n      tag_16\n      tag_17\n      jump\t// in\n    tag_16:\n      mload(0x40)\n      tag_18\n      swap2\n      swap1\n      tag_19\n      jump\t// in\n    tag_18:\n      mload(0x40)\n      dup1\n      swap2\n      sub\n      swap1\n      return\n        /* \"contracts/9_EjercicioMensajes.sol\":1542:1782  function verMensaje(address _usuario, uint256 indice) external view returns (Mensaje memory) {... */\n    tag_6:\n      tag_20\n      0x04\n      dup1\n      calldatasize\n      sub\n      dup2\n      add\n      swap1\n      tag_21\n      swap2\n      swap1\n      tag_22\n      jump\t// in\n    tag_21:\n      tag_23\n      jump\t// in\n    tag_20:\n      mload(0x40)\n      tag_24\n      swap2\n      swap1\n      tag_25\n      jump\t// in\n    tag_24:\n      mload(0x40)\n      dup1\n      swap2\n      sub\n      swap1\n      return\n        /* \"contracts/9_EjercicioMensajes.sol\":1399:1534  function cantidadMensajes(address _usuario) external view returns (uint256) {... */\n    tag_7:\n      tag_26\n      0x04\n      dup1\n      calldatasize\n      sub\n      dup2\n      add\n      swap1\n      tag_27\n      swap2\n      swap1\n      tag_28\n      jump\t// in\n    tag_27:\n      tag_29\n      jump\t// in\n    tag_26:\n      mload(0x40)\n      tag_30\n      swap2\n      swap1\n      tag_31\n      jump\t// in\n    tag_30:\n      mload(0x40)\n      dup1\n      swap2\n      sub\n      swap1\n      return\n        /* \"contracts/9_EjercicioMensajes.sol\":100:126  address public propietario */\n    tag_9:\n      0x00\n      0x00\n      swap1\n      sload\n      swap1\n      0x0100\n      exp\n      swap1\n      div\n      0xffffffffffffffffffffffffffffffffffffffff\n      and\n      dup2\n      jump\t// out\n        /* \"contracts/9_EjercicioMensajes.sol\":751:1389  function enviarMensaje(address _destinatario, string calldata _contenido) external soloPropietario {... */\n    tag_15:\n        /* \"contracts/9_EjercicioMensajes.sol\":260:271  propietario */\n      0x00\n      0x00\n      swap1\n      sload\n      swap1\n      0x0100\n      exp\n      swap1\n      div\n      0xffffffffffffffffffffffffffffffffffffffff\n      and\n        /* \"contracts/9_EjercicioMensajes.sol\":246:271  msg.sender == propietario */\n      0xffffffffffffffffffffffffffffffffffffffff\n      and\n        /* \"contracts/9_EjercicioMensajes.sol\":246:256  msg.sender */\n      caller\n        /* \"contracts/9_EjercicioMensajes.sol\":246:271  msg.sender == propietario */\n      0xffffffffffffffffffffffffffffffffffffffff\n      and\n      eq\n        /* \"contracts/9_EjercicioMensajes.sol\":238:317  require(msg.sender == propietario, \"Solo el propietario puede enviar mensajes\") */\n      tag_33\n      jumpi\n      mload(0x40)\n      0x08c379a000000000000000000000000000000000000000000000000000000000\n      dup2\n      mstore\n      0x04\n      add\n      tag_34\n      swap1\n      tag_35\n      jump\t// in\n    tag_34:\n      mload(0x40)\n      dup1\n      swap2\n      sub\n      swap1\n      revert\n    tag_33:\n        /* \"contracts/9_EjercicioMensajes.sol\":894:895  0 */\n      0x00\n        /* \"contracts/9_EjercicioMensajes.sol\":869:896  _destinatario != address(0) */\n      0xffffffffffffffffffffffffffffffffffffffff\n      and\n        /* \"contracts/9_EjercicioMensajes.sol\":869:882  _destinatario */\n      dup4\n        /* \"contracts/9_EjercicioMensajes.sol\":869:896  _destinatario != address(0) */\n      0xffffffffffffffffffffffffffffffffffffffff\n      and\n      sub\n        /* \"contracts/9_EjercicioMensajes.sol\":861:927  require(_destinatario != address(0), \"Direccion destino invalida\") */\n      tag_37\n      jumpi\n      mload(0x40)\n      0x08c379a000000000000000000000000000000000000000000000000000000000\n      dup2\n      mstore\n      0x04\n      add\n      tag_38\n      swap1\n      tag_39\n      jump\t// in\n    tag_38:\n      mload(0x40)\n      dup1\n      swap2\n      sub\n      swap1\n      revert\n    tag_37:\n        /* \"contracts/9_EjercicioMensajes.sol\":973:974  0 */\n      0x00\n        /* \"contracts/9_EjercicioMensajes.sol\":952:962  _contenido */\n      dup3\n      dup3\n        /* \"contracts/9_EjercicioMensajes.sol\":946:970  bytes(_contenido).length */\n      swap1\n      pop\n        /* \"contracts/9_EjercicioMensajes.sol\":946:974  bytes(_contenido).length > 0 */\n      gt\n        /* \"contracts/9_EjercicioMensajes.sol\":938:1010  require(bytes(_contenido).length > 0, \"El mensaje no puede estar vacio\") */\n      tag_40\n      jumpi\n      mload(0x40)\n      0x08c379a000000000000000000000000000000000000000000000000000000000\n      dup2\n      mstore\n      0x04\n      add\n      tag_41\n      swap1\n      tag_42\n      jump\t// in\n    tag_41:\n      mload(0x40)\n      dup1\n      swap2\n      sub\n      swap1\n      revert\n    tag_40:\n        /* \"contracts/9_EjercicioMensajes.sol\":1023:1039  Mensaje memory m */\n      0x00\n        /* \"contracts/9_EjercicioMensajes.sol\":1042:1213  Mensaje({... */\n      mload(0x40)\n      dup1\n      0x80\n      add\n      0x40\n      mstore\n      dup1\n        /* \"contracts/9_EjercicioMensajes.sol\":1076:1086  msg.sender */\n      caller\n        /* \"contracts/9_EjercicioMensajes.sol\":1042:1213  Mensaje({... */\n      0xffffffffffffffffffffffffffffffffffffffff\n      and\n      dup2\n      mstore\n      0x20\n      add\n        /* \"contracts/9_EjercicioMensajes.sol\":1115:1128  _destinatario */\n      dup6\n        /* \"contracts/9_EjercicioMensajes.sol\":1042:1213  Mensaje({... */\n      0xffffffffffffffffffffffffffffffffffffffff\n      and\n      dup2\n      mstore\n      0x20\n      add\n        /* \"contracts/9_EjercicioMensajes.sol\":1154:1164  _contenido */\n      dup5\n      dup5\n        /* \"contracts/9_EjercicioMensajes.sol\":1042:1213  Mensaje({... */\n      dup1\n      dup1\n      0x1f\n      add\n      0x20\n      dup1\n      swap2\n      div\n      mul\n      0x20\n      add\n      mload(0x40)\n      swap1\n      dup2\n      add\n      0x40\n      mstore\n      dup1\n      swap4\n      swap3\n      swap2\n      swap1\n      dup2\n      dup2\n      mstore\n      0x20\n      add\n      dup4\n      dup4\n      dup1\n      dup3\n      dup5\n      calldatacopy\n      0x00\n      dup2\n      dup5\n      add\n      mstore\n      not(0x1f)\n      0x1f\n      dup3\n      add\n      and\n      swap1\n      pop\n      dup1\n      dup4\n      add\n      swap3\n      pop\n      pop\n      pop\n      pop\n      pop\n      pop\n      pop\n      dup2\n      mstore\n      0x20\n      add\n        /* \"contracts/9_EjercicioMensajes.sol\":1186:1201  block.timestamp */\n      timestamp\n        /* \"contracts/9_EjercicioMensajes.sol\":1042:1213  Mensaje({... */\n      dup2\n      mstore\n      pop\n        /* \"contracts/9_EjercicioMensajes.sol\":1023:1213  Mensaje memory m = Mensaje({... */\n      swap1\n      pop\n        /* \"contracts/9_EjercicioMensajes.sol\":1226:1242  bandejaDeEntrada */\n      0x01\n        /* \"contracts/9_EjercicioMensajes.sol\":1226:1257  bandejaDeEntrada[_destinatario] */\n      0x00\n        /* \"contracts/9_EjercicioMensajes.sol\":1243:1256  _destinatario */\n      dup6\n        /* \"contracts/9_EjercicioMensajes.sol\":1226:1257  bandejaDeEntrada[_destinatario] */\n      0xffffffffffffffffffffffffffffffffffffffff\n      and\n      0xffffffffffffffffffffffffffffffffffffffff\n      and\n      dup2\n      mstore\n      0x20\n      add\n      swap1\n      dup2\n      mstore\n      0x20\n      add\n      0x00\n      keccak256\n        /* \"contracts/9_EjercicioMensajes.sol\":1263:1264  m */\n      dup2\n        /* \"contracts/9_EjercicioMensajes.sol\":1226:1265  bandejaDeEntrada[_destinatario].push(m) */\n      swap1\n      dup1\n      0x01\n      dup2\n      sload\n      add\n      dup1\n      dup3\n      sstore\n      dup1\n      swap2\n      pop\n      pop\n      0x01\n      swap1\n      sub\n      swap1\n      0x00\n      mstore\n      keccak256(0x00, 0x20)\n      swap1\n      0x04\n      mul\n      add\n      0x00\n      swap1\n      swap2\n      swap1\n      swap2\n      swap1\n      swap2\n      pop\n      0x00\n      dup3\n      add\n      mload\n      dup2\n      0x00\n      add\n      exp(0x0100, 0x00)\n      dup2\n      sload\n      dup2\n      0xffffffffffffffffffffffffffffffffffffffff\n      mul\n      not\n      and\n      swap1\n      dup4\n      0xffffffffffffffffffffffffffffffffffffffff\n      and\n      mul\n      or\n      swap1\n      sstore\n      pop\n      0x20\n      dup3\n      add\n      mload\n      dup2\n      0x01\n      add\n      exp(0x0100, 0x00)\n      dup2\n      sload\n      dup2\n      0xffffffffffffffffffffffffffffffffffffffff\n      mul\n      not\n      and\n      swap1\n      dup4\n      0xffffffffffffffffffffffffffffffffffffffff\n      and\n      mul\n      or\n      swap1\n      sstore\n      pop\n      0x40\n      dup3\n      add\n      mload\n      dup2\n      0x02\n      add\n      swap1\n      dup2\n      tag_44\n      swap2\n      swap1\n      tag_45\n      jump\t// in\n    tag_44:\n      pop\n      0x60\n      dup3\n      add\n      mload\n      dup2\n      0x03\n      add\n      sstore\n      pop\n      pop\n        /* \"contracts/9_EjercicioMensajes.sol\":1276:1290  historialTotal */\n      0x02\n        /* \"contracts/9_EjercicioMensajes.sol\":1296:1297  m */\n      dup2\n        /* \"contracts/9_EjercicioMensajes.sol\":1276:1298  historialTotal.push(m) */\n      swap1\n      dup1\n      0x01\n      dup2\n      sload\n      add\n      dup1\n      dup3\n      sstore\n      dup1\n      swap2\n      pop\n      pop\n      0x01\n      swap1\n      sub\n      swap1\n      0x00\n      mstore\n      keccak256(0x00, 0x20)\n      swap1\n      0x04\n      mul\n      add\n      0x00\n      swap1\n      swap2\n      swap1\n      swap2\n      swap1\n      swap2\n      pop\n      0x00\n      dup3\n      add\n      mload\n      dup2\n      0x00\n      add\n      exp(0x0100, 0x00)\n      dup2\n      sload\n      dup2\n      0xffffffffffffffffffffffffffffffffffffffff\n      mul\n      not\n      and\n      swap1\n      dup4\n      0xffffffffffffffffffffffffffffffffffffffff\n      and\n      mul\n      or\n      swap1\n      sstore\n      pop\n      0x20\n      dup3\n      add\n      mload\n      dup2\n      0x01\n      add\n      exp(0x0100, 0x00)\n      dup2\n      sload\n      dup2\n      0xffffffffffffffffffffffffffffffffffffffff\n      mul\n      not\n      and\n      swap1\n      dup4\n      0xffffffffffffffffffffffffffffffffffffffff\n      and\n      mul\n      or\n      swap1\n      sstore\n      pop\n      0x40\n      dup3\n      add\n      mload\n      dup2\n      0x02\n      add\n      swap1\n      dup2\n      tag_47\n      swap2\n      swap1\n      tag_45\n      jump\t// in\n    tag_47:\n      pop\n      0x60\n      dup3\n      add\n      mload\n      dup2\n      0x03\n      add\n      sstore\n      pop\n      pop\n        /* \"contracts/9_EjercicioMensajes.sol\":1344:1345  m */\n      dup1\n        /* \"contracts/9_EjercicioMensajes.sol\":1344:1358  m.destinatario */\n      0x20\n      add\n      mload\n        /* \"contracts/9_EjercicioMensajes.sol\":1316:1381  MensajeEnviado(m.remitente, m.destinatario, m.contenido, m.fecha) */\n      0xffffffffffffffffffffffffffffffffffffffff\n      and\n        /* \"contracts/9_EjercicioMensajes.sol\":1331:1332  m */\n      dup2\n        /* \"contracts/9_EjercicioMensajes.sol\":1331:1342  m.remitente */\n      0x00\n      add\n      mload\n        /* \"contracts/9_EjercicioMensajes.sol\":1316:1381  MensajeEnviado(m.remitente, m.destinatario, m.contenido, m.fecha) */\n      0xffffffffffffffffffffffffffffffffffffffff\n      and\n      0x548510cce09773bc99aa548269c8027f90df95fe99a95c47000e048a4f31e4dc\n        /* \"contracts/9_EjercicioMensajes.sol\":1360:1361  m */\n      dup4\n        /* \"contracts/9_EjercicioMensajes.sol\":1360:1371  m.contenido */\n      0x40\n      add\n      mload\n        /* \"contracts/9_EjercicioMensajes.sol\":1373:1374  m */\n      dup5\n        /* \"contracts/9_EjercicioMensajes.sol\":1373:1380  m.fecha */\n      0x60\n      add\n      mload\n        /* \"contracts/9_EjercicioMensajes.sol\":1316:1381  MensajeEnviado(m.remitente, m.destinatario, m.contenido, m.fecha) */\n      mload(0x40)\n      tag_48\n      swap3\n      swap2\n      swap1\n      tag_49\n      jump\t// in\n    tag_48:\n      mload(0x40)\n      dup1\n      swap2\n      sub\n      swap1\n      log3\n        /* \"contracts/9_EjercicioMensajes.sol\":850:1389  {... */\n      pop\n        /* \"contracts/9_EjercicioMensajes.sol\":751:1389  function enviarMensaje(address _destinatario, string calldata _contenido) external soloPropietario {... */\n      pop\n      pop\n      pop\n      jump\t// out\n        /* \"contracts/9_EjercicioMensajes.sol\":1790:1895  function verHistorial() external view returns (Mensaje[] memory) {... */\n    tag_17:\n        /* \"contracts/9_EjercicioMensajes.sol\":1837:1853  Mensaje[] memory */\n      0x60\n        /* \"contracts/9_EjercicioMensajes.sol\":1873:1887  historialTotal */\n      0x02\n        /* \"contracts/9_EjercicioMensajes.sol\":1866:1887  return historialTotal */\n      dup1\n      sload\n      dup1\n      0x20\n      mul\n      0x20\n      add\n      mload(0x40)\n      swap1\n      dup2\n      add\n      0x40\n      mstore\n      dup1\n      swap3\n      swap2\n      swap1\n      dup2\n      dup2\n      mstore\n      0x20\n      add\n      0x00\n      swap1\n    tag_51:\n      dup3\n      dup3\n      lt\n      iszero\n      tag_52\n      jumpi\n      dup4\n      dup3\n      swap1\n      0x00\n      mstore\n      keccak256(0x00, 0x20)\n      swap1\n      0x04\n      mul\n      add\n      mload(0x40)\n      dup1\n      0x80\n      add\n      0x40\n      mstore\n      swap1\n      dup2\n      0x00\n      dup3\n      add\n      0x00\n      swap1\n      sload\n      swap1\n      0x0100\n      exp\n      swap1\n      div\n      0xffffffffffffffffffffffffffffffffffffffff\n      and\n      0xffffffffffffffffffffffffffffffffffffffff\n      and\n      0xffffffffffffffffffffffffffffffffffffffff\n      and\n      dup2\n      mstore\n      0x20\n      add\n      0x01\n      dup3\n      add\n      0x00\n      swap1\n      sload\n      swap1\n      0x0100\n      exp\n      swap1\n      div\n      0xffffffffffffffffffffffffffffffffffffffff\n      and\n      0xffffffffffffffffffffffffffffffffffffffff\n      and\n      0xffffffffffffffffffffffffffffffffffffffff\n      and\n      dup2\n      mstore\n      0x20\n      add\n      0x02\n      dup3\n      add\n      dup1\n      sload\n      tag_54\n      swap1\n      tag_55\n      jump\t// in\n    tag_54:\n      dup1\n      0x1f\n      add\n      0x20\n      dup1\n      swap2\n      div\n      mul\n      0x20\n      add\n      mload(0x40)\n      swap1\n      dup2\n      add\n      0x40\n      mstore\n      dup1\n      swap3\n      swap2\n      swap1\n      dup2\n      dup2\n      mstore\n      0x20\n      add\n      dup3\n      dup1\n      sload\n      tag_56\n      swap1\n      tag_55\n      jump\t// in\n    tag_56:\n      dup1\n      iszero\n      tag_57\n      jumpi\n      dup1\n      0x1f\n      lt\n      tag_58\n      jumpi\n      0x0100\n      dup1\n      dup4\n      sload\n      div\n      mul\n      dup4\n      mstore\n      swap2\n      0x20\n      add\n      swap2\n      jump(tag_57)\n    tag_58:\n      dup3\n      add\n      swap2\n      swap1\n      0x00\n      mstore\n      keccak256(0x00, 0x20)\n      swap1\n    tag_59:\n      dup2\n      sload\n      dup2\n      mstore\n      swap1\n      0x01\n      add\n      swap1\n      0x20\n      add\n      dup1\n      dup4\n      gt\n      tag_59\n      jumpi\n      dup3\n      swap1\n      sub\n      0x1f\n      and\n      dup3\n      add\n      swap2\n    tag_57:\n      pop\n      pop\n      pop\n      pop\n      pop\n      dup2\n      mstore\n      0x20\n      add\n      0x03\n      dup3\n      add\n      sload\n      dup2\n      mstore\n      pop\n      pop\n      dup2\n      mstore\n      0x20\n      add\n      swap1\n      0x01\n      add\n      swap1\n      jump(tag_51)\n    tag_52:\n      pop\n      pop\n      pop\n      pop\n      swap1\n      pop\n        /* \"contracts/9_EjercicioMensajes.sol\":1790:1895  function verHistorial() external view returns (Mensaje[] memory) {... */\n      swap1\n      jump\t// out\n        /* \"contracts/9_EjercicioMensajes.sol\":1542:1782  function verMensaje(address _usuario, uint256 indice) external view returns (Mensaje memory) {... */\n    tag_23:\n        /* \"contracts/9_EjercicioMensajes.sol\":1619:1633  Mensaje memory */\n      tag_60\n      tag_61\n      jump\t// in\n    tag_60:\n        /* \"contracts/9_EjercicioMensajes.sol\":1663:1679  bandejaDeEntrada */\n      0x01\n        /* \"contracts/9_EjercicioMensajes.sol\":1663:1689  bandejaDeEntrada[_usuario] */\n      0x00\n        /* \"contracts/9_EjercicioMensajes.sol\":1680:1688  _usuario */\n      dup5\n        /* \"contracts/9_EjercicioMensajes.sol\":1663:1689  bandejaDeEntrada[_usuario] */\n      0xffffffffffffffffffffffffffffffffffffffff\n      and\n      0xffffffffffffffffffffffffffffffffffffffff\n      and\n      dup2\n      mstore\n      0x20\n      add\n      swap1\n      dup2\n      mstore\n      0x20\n      add\n      0x00\n      keccak256\n        /* \"contracts/9_EjercicioMensajes.sol\":1663:1696  bandejaDeEntrada[_usuario].length */\n      dup1\n      sload\n      swap1\n      pop\n        /* \"contracts/9_EjercicioMensajes.sol\":1654:1660  indice */\n      dup3\n        /* \"contracts/9_EjercicioMensajes.sol\":1654:1696  indice < bandejaDeEntrada[_usuario].length */\n      lt\n        /* \"contracts/9_EjercicioMensajes.sol\":1646:1722  require(indice < bandejaDeEntrada[_usuario].length, \"Indice fuera de rango\") */\n      tag_63\n      jumpi\n      mload(0x40)\n      0x08c379a000000000000000000000000000000000000000000000000000000000\n      dup2\n      mstore\n      0x04\n      add\n      tag_64\n      swap1\n      tag_65\n      jump\t// in\n    tag_64:\n      mload(0x40)\n      dup1\n      swap2\n      sub\n      swap1\n      revert\n    tag_63:\n        /* \"contracts/9_EjercicioMensajes.sol\":1740:1756  bandejaDeEntrada */\n      0x01\n        /* \"contracts/9_EjercicioMensajes.sol\":1740:1766  bandejaDeEntrada[_usuario] */\n      0x00\n        /* \"contracts/9_EjercicioMensajes.sol\":1757:1765  _usuario */\n      dup5\n        /* \"contracts/9_EjercicioMensajes.sol\":1740:1766  bandejaDeEntrada[_usuario] */\n      0xffffffffffffffffffffffffffffffffffffffff\n      and\n      0xffffffffffffffffffffffffffffffffffffffff\n      and\n      dup2\n      mstore\n      0x20\n      add\n      swap1\n      dup2\n      mstore\n      0x20\n      add\n      0x00\n      keccak256\n        /* \"contracts/9_EjercicioMensajes.sol\":1767:1773  indice */\n      dup3\n        /* \"contracts/9_EjercicioMensajes.sol\":1740:1774  bandejaDeEntrada[_usuario][indice] */\n      dup2\n      sload\n      dup2\n      lt\n      tag_66\n      jumpi\n      tag_67\n      tag_68\n      jump\t// in\n    tag_67:\n    tag_66:\n      swap1\n      0x00\n      mstore\n      keccak256(0x00, 0x20)\n      swap1\n      0x04\n      mul\n      add\n        /* \"contracts/9_EjercicioMensajes.sol\":1733:1774  return bandejaDeEntrada[_usuario][indice] */\n      mload(0x40)\n      dup1\n      0x80\n      add\n      0x40\n      mstore\n      swap1\n      dup2\n      0x00\n      dup3\n      add\n      0x00\n      swap1\n      sload\n      swap1\n      0x0100\n      exp\n      swap1\n      div\n      0xffffffffffffffffffffffffffffffffffffffff\n      and\n      0xffffffffffffffffffffffffffffffffffffffff\n      and\n      0xffffffffffffffffffffffffffffffffffffffff\n      and\n      dup2\n      mstore\n      0x20\n      add\n      0x01\n      dup3\n      add\n      0x00\n      swap1\n      sload\n      swap1\n      0x0100\n      exp\n      swap1\n      div\n      0xffffffffffffffffffffffffffffffffffffffff\n      and\n      0xffffffffffffffffffffffffffffffffffffffff\n      and\n      0xffffffffffffffffffffffffffffffffffffffff\n      and\n      dup2\n      mstore\n      0x20\n      add\n      0x02\n      dup3\n      add\n      dup1\n      sload\n      tag_70\n      swap1\n      tag_55\n      jump\t// in\n    tag_70:\n      dup1\n      0x1f\n      add\n      0x20\n      dup1\n      swap2\n      div\n      mul\n      0x20\n      add\n      mload(0x40)\n      swap1\n      dup2\n      add\n      0x40\n      mstore\n      dup1\n      swap3\n      swap2\n      swap1\n      dup2\n      dup2\n      mstore\n      0x20\n      add\n      dup3\n      dup1\n      sload\n      tag_71\n      swap1\n      tag_55\n      jump\t// in\n    tag_71:\n      dup1\n      iszero\n      tag_72\n      jumpi\n      dup1\n      0x1f\n      lt\n      tag_73\n      jumpi\n      0x0100\n      dup1\n      dup4\n      sload\n      div\n      mul\n      dup4\n      mstore\n      swap2\n      0x20\n      add\n      swap2\n      jump(tag_72)\n    tag_73:\n      dup3\n      add\n      swap2\n      swap1\n      0x00\n      mstore\n      keccak256(0x00, 0x20)\n      swap1\n    tag_74:\n      dup2\n      sload\n      dup2\n      mstore\n      swap1\n      0x01\n      add\n      swap1\n      0x20\n      add\n      dup1\n      dup4\n      gt\n      tag_74\n      jumpi\n      dup3\n      swap1\n      sub\n      0x1f\n      and\n      dup3\n      add\n      swap2\n    tag_72:\n      pop\n      pop\n      pop\n      pop\n      pop\n      dup2\n      mstore\n      0x20\n      add\n      0x03\n      dup3\n      add\n      sload\n      dup2\n      mstore\n      pop\n      pop\n      swap1\n      pop\n        /* \"contracts/9_EjercicioMensajes.sol\":1542:1782  function verMensaje(address _usuario, uint256 indice) external view returns (Mensaje memory) {... */\n      swap3\n      swap2\n      pop\n      pop\n      jump\t// out\n        /* \"contracts/9_EjercicioMensajes.sol\":1399:1534  function cantidadMensajes(address _usuario) external view returns (uint256) {... */\n    tag_29:\n        /* \"contracts/9_EjercicioMensajes.sol\":1466:1473  uint256 */\n      0x00\n        /* \"contracts/9_EjercicioMensajes.sol\":1493:1509  bandejaDeEntrada */\n      0x01\n        /* \"contracts/9_EjercicioMensajes.sol\":1493:1519  bandejaDeEntrada[_usuario] */\n      0x00\n        /* \"contracts/9_EjercicioMensajes.sol\":1510:1518  _usuario */\n      dup4\n        /* \"contracts/9_EjercicioMensajes.sol\":1493:1519  bandejaDeEntrada[_usuario] */\n      0xffffffffffffffffffffffffffffffffffffffff\n      and\n      0xffffffffffffffffffffffffffffffffffffffff\n      and\n      dup2\n      mstore\n      0x20\n      add\n      swap1\n      dup2\n      mstore\n      0x20\n      add\n      0x00\n      keccak256\n        /* \"contracts/9_EjercicioMensajes.sol\":1493:1526  bandejaDeEntrada[_usuario].length */\n      dup1\n      sload\n      swap1\n      pop\n        /* \"contracts/9_EjercicioMensajes.sol\":1486:1526  return bandejaDeEntrada[_usuario].length */\n      swap1\n      pop\n        /* \"contracts/9_EjercicioMensajes.sol\":1399:1534  function cantidadMensajes(address _usuario) external view returns (uint256) {... */\n      swap2\n      swap1\n      pop\n      jump\t// out\n    tag_61:\n      mload(0x40)\n      dup1\n      0x80\n      add\n      0x40\n      mstore\n      dup1\n      and(0xffffffffffffffffffffffffffffffffffffffff, 0x00)\n      dup2\n      mstore\n      0x20\n      add\n      and(0xffffffffffffffffffffffffffffffffffffffff, 0x00)\n      dup2\n      mstore\n      0x20\n      add\n      0x60\n      dup2\n      mstore\n      0x20\n      add\n      0x00\n      dup2\n      mstore\n      pop\n      swap1\n      jump\t// out\n        /* \"#utility.yul\":7:133   */\n    tag_76:\n        /* \"#utility.yul\":44:51   */\n      0x00\n        /* \"#utility.yul\":84:126   */\n      0xffffffffffffffffffffffffffffffffffffffff\n        /* \"#utility.yul\":77:82   */\n      dup3\n        /* \"#utility.yul\":73:127   */\n      and\n        /* \"#utility.yul\":62:127   */\n      swap1\n      pop\n        /* \"#utility.yul\":7:133   */\n      swap2\n      swap1\n      pop\n      jump\t// out\n        /* \"#utility.yul\":139:235   */\n    tag_77:\n        /* \"#utility.yul\":176:183   */\n      0x00\n        /* \"#utility.yul\":205:229   */\n      tag_137\n        /* \"#utility.yul\":223:228   */\n      dup3\n        /* \"#utility.yul\":205:229   */\n      tag_76\n      jump\t// in\n    tag_137:\n        /* \"#utility.yul\":194:229   */\n      swap1\n      pop\n        /* \"#utility.yul\":139:235   */\n      swap2\n      swap1\n      pop\n      jump\t// out\n        /* \"#utility.yul\":241:359   */\n    tag_78:\n        /* \"#utility.yul\":328:352   */\n      tag_139\n        /* \"#utility.yul\":346:351   */\n      dup2\n        /* \"#utility.yul\":328:352   */\n      tag_77\n      jump\t// in\n    tag_139:\n        /* \"#utility.yul\":323:326   */\n      dup3\n        /* \"#utility.yul\":316:353   */\n      mstore\n        /* \"#utility.yul\":241:359   */\n      pop\n      pop\n      jump\t// out\n        /* \"#utility.yul\":365:587   */\n    tag_11:\n        /* \"#utility.yul\":458:462   */\n      0x00\n        /* \"#utility.yul\":496:498   */\n      0x20\n        /* \"#utility.yul\":485:494   */\n      dup3\n        /* \"#utility.yul\":481:499   */\n      add\n        /* \"#utility.yul\":473:499   */\n      swap1\n      pop\n        /* \"#utility.yul\":509:580   */\n      tag_141\n        /* \"#utility.yul\":577:578   */\n      0x00\n        /* \"#utility.yul\":566:575   */\n      dup4\n        /* \"#utility.yul\":562:579   */\n      add\n        /* \"#utility.yul\":553:559   */\n      dup5\n        /* \"#utility.yul\":509:580   */\n      tag_78\n      jump\t// in\n    tag_141:\n        /* \"#utility.yul\":365:587   */\n      swap3\n      swap2\n      pop\n      pop\n      jump\t// out\n        /* \"#utility.yul\":674:791   */\n    tag_80:\n        /* \"#utility.yul\":783:784   */\n      0x00\n        /* \"#utility.yul\":780:781   */\n      0x00\n        /* \"#utility.yul\":773:785   */\n      revert\n        /* \"#utility.yul\":797:914   */\n    tag_81:\n        /* \"#utility.yul\":906:907   */\n      0x00\n        /* \"#utility.yul\":903:904   */\n      0x00\n        /* \"#utility.yul\":896:908   */\n      revert\n        /* \"#utility.yul\":920:1042   */\n    tag_82:\n        /* \"#utility.yul\":993:1017   */\n      tag_146\n        /* \"#utility.yul\":1011:1016   */\n      dup2\n        /* \"#utility.yul\":993:1017   */\n      tag_77\n      jump\t// in\n    tag_146:\n        /* \"#utility.yul\":986:991   */\n      dup2\n        /* \"#utility.yul\":983:1018   */\n      eq\n        /* \"#utility.yul\":973:1036   */\n      tag_147\n      jumpi\n        /* \"#utility.yul\":1032:1033   */\n      0x00\n        /* \"#utility.yul\":1029:1030   */\n      0x00\n        /* \"#utility.yul\":1022:1034   */\n      revert\n        /* \"#utility.yul\":973:1036   */\n    tag_147:\n        /* \"#utility.yul\":920:1042   */\n      pop\n      jump\t// out\n        /* \"#utility.yul\":1048:1187   */\n    tag_83:\n        /* \"#utility.yul\":1094:1099   */\n      0x00\n        /* \"#utility.yul\":1132:1138   */\n      dup2\n        /* \"#utility.yul\":1119:1139   */\n      calldataload\n        /* \"#utility.yul\":1110:1139   */\n      swap1\n      pop\n        /* \"#utility.yul\":1148:1181   */\n      tag_149\n        /* \"#utility.yul\":1175:1180   */\n      dup2\n        /* \"#utility.yul\":1148:1181   */\n      tag_82\n      jump\t// in\n    tag_149:\n        /* \"#utility.yul\":1048:1187   */\n      swap3\n      swap2\n      pop\n      pop\n      jump\t// out\n        /* \"#utility.yul\":1193:1310   */\n    tag_84:\n        /* \"#utility.yul\":1302:1303   */\n      0x00\n        /* \"#utility.yul\":1299:1300   */\n      0x00\n        /* \"#utility.yul\":1292:1304   */\n      revert\n        /* \"#utility.yul\":1316:1433   */\n    tag_85:\n        /* \"#utility.yul\":1425:1426   */\n      0x00\n        /* \"#utility.yul\":1422:1423   */\n      0x00\n        /* \"#utility.yul\":1415:1427   */\n      revert\n        /* \"#utility.yul\":1439:1556   */\n    tag_86:\n        /* \"#utility.yul\":1548:1549   */\n      0x00\n        /* \"#utility.yul\":1545:1546   */\n      0x00\n        /* \"#utility.yul\":1538:1550   */\n      revert\n        /* \"#utility.yul\":1576:2129   */\n    tag_87:\n        /* \"#utility.yul\":1634:1642   */\n      0x00\n        /* \"#utility.yul\":1644:1650   */\n      0x00\n        /* \"#utility.yul\":1694:1697   */\n      dup4\n        /* \"#utility.yul\":1687:1691   */\n      0x1f\n        /* \"#utility.yul\":1679:1685   */\n      dup5\n        /* \"#utility.yul\":1675:1692   */\n      add\n        /* \"#utility.yul\":1671:1698   */\n      slt\n        /* \"#utility.yul\":1661:1783   */\n      tag_154\n      jumpi\n        /* \"#utility.yul\":1702:1781   */\n      tag_155\n      tag_84\n      jump\t// in\n    tag_155:\n        /* \"#utility.yul\":1661:1783   */\n    tag_154:\n        /* \"#utility.yul\":1815:1821   */\n      dup3\n        /* \"#utility.yul\":1802:1822   */\n      calldataload\n        /* \"#utility.yul\":1792:1822   */\n      swap1\n      pop\n        /* \"#utility.yul\":1845:1863   */\n      0xffffffffffffffff\n        /* \"#utility.yul\":1837:1843   */\n      dup2\n        /* \"#utility.yul\":1834:1864   */\n      gt\n        /* \"#utility.yul\":1831:1948   */\n      iszero\n      tag_156\n      jumpi\n        /* \"#utility.yul\":1867:1946   */\n      tag_157\n      tag_85\n      jump\t// in\n    tag_157:\n        /* \"#utility.yul\":1831:1948   */\n    tag_156:\n        /* \"#utility.yul\":1981:1985   */\n      0x20\n        /* \"#utility.yul\":1973:1979   */\n      dup4\n        /* \"#utility.yul\":1969:1986   */\n      add\n        /* \"#utility.yul\":1957:1986   */\n      swap2\n      pop\n        /* \"#utility.yul\":2035:2038   */\n      dup4\n        /* \"#utility.yul\":2027:2031   */\n      0x01\n        /* \"#utility.yul\":2019:2025   */\n      dup3\n        /* \"#utility.yul\":2015:2032   */\n      mul\n        /* \"#utility.yul\":2005:2013   */\n      dup4\n        /* \"#utility.yul\":2001:2033   */\n      add\n        /* \"#utility.yul\":1998:2039   */\n      gt\n        /* \"#utility.yul\":1995:2123   */\n      iszero\n      tag_158\n      jumpi\n        /* \"#utility.yul\":2042:2121   */\n      tag_159\n      tag_86\n      jump\t// in\n    tag_159:\n        /* \"#utility.yul\":1995:2123   */\n    tag_158:\n        /* \"#utility.yul\":1576:2129   */\n      swap3\n      pop\n      swap3\n      swap1\n      pop\n      jump\t// out\n        /* \"#utility.yul\":2135:2809   */\n    tag_14:\n        /* \"#utility.yul\":2215:2221   */\n      0x00\n        /* \"#utility.yul\":2223:2229   */\n      0x00\n        /* \"#utility.yul\":2231:2237   */\n      0x00\n        /* \"#utility.yul\":2280:2282   */\n      0x40\n        /* \"#utility.yul\":2268:2277   */\n      dup5\n        /* \"#utility.yul\":2259:2266   */\n      dup7\n        /* \"#utility.yul\":2255:2278   */\n      sub\n        /* \"#utility.yul\":2251:2283   */\n      slt\n        /* \"#utility.yul\":2248:2367   */\n      iszero\n      tag_161\n      jumpi\n        /* \"#utility.yul\":2286:2365   */\n      tag_162\n      tag_80\n      jump\t// in\n    tag_162:\n        /* \"#utility.yul\":2248:2367   */\n    tag_161:\n        /* \"#utility.yul\":2406:2407   */\n      0x00\n        /* \"#utility.yul\":2431:2484   */\n      tag_163\n        /* \"#utility.yul\":2476:2483   */\n      dup7\n        /* \"#utility.yul\":2467:2473   */\n      dup3\n        /* \"#utility.yul\":2456:2465   */\n      dup8\n        /* \"#utility.yul\":2452:2474   */\n      add\n        /* \"#utility.yul\":2431:2484   */\n      tag_83\n      jump\t// in\n    tag_163:\n        /* \"#utility.yul\":2421:2484   */\n      swap4\n      pop\n        /* \"#utility.yul\":2377:2494   */\n      pop\n        /* \"#utility.yul\":2561:2563   */\n      0x20\n        /* \"#utility.yul\":2550:2559   */\n      dup5\n        /* \"#utility.yul\":2546:2564   */\n      add\n        /* \"#utility.yul\":2533:2565   */\n      calldataload\n        /* \"#utility.yul\":2592:2610   */\n      0xffffffffffffffff\n        /* \"#utility.yul\":2584:2590   */\n      dup2\n        /* \"#utility.yul\":2581:2611   */\n      gt\n        /* \"#utility.yul\":2578:2695   */\n      iszero\n      tag_164\n      jumpi\n        /* \"#utility.yul\":2614:2693   */\n      tag_165\n      tag_81\n      jump\t// in\n    tag_165:\n        /* \"#utility.yul\":2578:2695   */\n    tag_164:\n        /* \"#utility.yul\":2727:2792   */\n      tag_166\n        /* \"#utility.yul\":2784:2791   */\n      dup7\n        /* \"#utility.yul\":2775:2781   */\n      dup3\n        /* \"#utility.yul\":2764:2773   */\n      dup8\n        /* \"#utility.yul\":2760:2782   */\n      add\n        /* \"#utility.yul\":2727:2792   */\n      tag_87\n      jump\t// in\n    tag_166:\n        /* \"#utility.yul\":2709:2792   */\n      swap3\n      pop\n      swap3\n      pop\n        /* \"#utility.yul\":2504:2802   */\n      pop\n        /* \"#utility.yul\":2135:2809   */\n      swap3\n      pop\n      swap3\n      pop\n      swap3\n      jump\t// out\n        /* \"#utility.yul\":2815:2952   */\n    tag_88:\n        /* \"#utility.yul\":2905:2911   */\n      0x00\n        /* \"#utility.yul\":2939:2944   */\n      dup2\n        /* \"#utility.yul\":2933:2945   */\n      mload\n        /* \"#utility.yul\":2923:2945   */\n      swap1\n      pop\n        /* \"#utility.yul\":2815:2952   */\n      swap2\n      swap1\n      pop\n      jump\t// out\n        /* \"#utility.yul\":2958:3165   */\n    tag_89:\n        /* \"#utility.yul\":3080:3091   */\n      0x00\n        /* \"#utility.yul\":3114:3120   */\n      dup3\n        /* \"#utility.yul\":3109:3112   */\n      dup3\n        /* \"#utility.yul\":3102:3121   */\n      mstore\n        /* \"#utility.yul\":3154:3158   */\n      0x20\n        /* \"#utility.yul\":3149:3152   */\n      dup3\n        /* \"#utility.yul\":3145:3159   */\n      add\n        /* \"#utility.yul\":3130:3159   */\n      swap1\n      pop\n        /* \"#utility.yul\":2958:3165   */\n      swap3\n      swap2\n      pop\n      pop\n      jump\t// out\n        /* \"#utility.yul\":3171:3326   */\n    tag_90:\n        /* \"#utility.yul\":3261:3265   */\n      0x00\n        /* \"#utility.yul\":3284:3287   */\n      dup2\n        /* \"#utility.yul\":3276:3287   */\n      swap1\n      pop\n        /* \"#utility.yul\":3314:3318   */\n      0x20\n        /* \"#utility.yul\":3309:3312   */\n      dup3\n        /* \"#utility.yul\":3305:3319   */\n      add\n        /* \"#utility.yul\":3297:3319   */\n      swap1\n      pop\n        /* \"#utility.yul\":3171:3326   */\n      swap2\n      swap1\n      pop\n      jump\t// out\n        /* \"#utility.yul\":3332:3440   */\n    tag_91:\n        /* \"#utility.yul\":3409:3433   */\n      tag_171\n        /* \"#utility.yul\":3427:3432   */\n      dup2\n        /* \"#utility.yul\":3409:3433   */\n      tag_77\n      jump\t// in\n    tag_171:\n        /* \"#utility.yul\":3404:3407   */\n      dup3\n        /* \"#utility.yul\":3397:3434   */\n      mstore\n        /* \"#utility.yul\":3332:3440   */\n      pop\n      pop\n      jump\t// out\n        /* \"#utility.yul\":3446:3545   */\n    tag_92:\n        /* \"#utility.yul\":3498:3504   */\n      0x00\n        /* \"#utility.yul\":3532:3537   */\n      dup2\n        /* \"#utility.yul\":3526:3538   */\n      mload\n        /* \"#utility.yul\":3516:3538   */\n      swap1\n      pop\n        /* \"#utility.yul\":3446:3545   */\n      swap2\n      swap1\n      pop\n      jump\t// out\n        /* \"#utility.yul\":3551:3710   */\n    tag_93:\n        /* \"#utility.yul\":3625:3636   */\n      0x00\n        /* \"#utility.yul\":3659:3665   */\n      dup3\n        /* \"#utility.yul\":3654:3657   */\n      dup3\n        /* \"#utility.yul\":3647:3666   */\n      mstore\n        /* \"#utility.yul\":3699:3703   */\n      0x20\n        /* \"#utility.yul\":3694:3697   */\n      dup3\n        /* \"#utility.yul\":3690:3704   */\n      add\n        /* \"#utility.yul\":3675:3704   */\n      swap1\n      pop\n        /* \"#utility.yul\":3551:3710   */\n      swap3\n      swap2\n      pop\n      pop\n      jump\t// out\n        /* \"#utility.yul\":3716:3855   */\n    tag_94:\n        /* \"#utility.yul\":3805:3811   */\n      dup3\n        /* \"#utility.yul\":3800:3803   */\n      dup2\n        /* \"#utility.yul\":3795:3798   */\n      dup4\n        /* \"#utility.yul\":3789:3812   */\n      mcopy\n        /* \"#utility.yul\":3846:3847   */\n      0x00\n        /* \"#utility.yul\":3837:3843   */\n      dup4\n        /* \"#utility.yul\":3832:3835   */\n      dup4\n        /* \"#utility.yul\":3828:3844   */\n      add\n        /* \"#utility.yul\":3821:3848   */\n      mstore\n        /* \"#utility.yul\":3716:3855   */\n      pop\n      pop\n      pop\n      jump\t// out\n        /* \"#utility.yul\":3861:3963   */\n    tag_95:\n        /* \"#utility.yul\":3902:3908   */\n      0x00\n        /* \"#utility.yul\":3953:3955   */\n      0x1f\n        /* \"#utility.yul\":3949:3956   */\n      not\n        /* \"#utility.yul\":3944:3946   */\n      0x1f\n        /* \"#utility.yul\":3937:3942   */\n      dup4\n        /* \"#utility.yul\":3933:3947   */\n      add\n        /* \"#utility.yul\":3929:3957   */\n      and\n        /* \"#utility.yul\":3919:3957   */\n      swap1\n      pop\n        /* \"#utility.yul\":3861:3963   */\n      swap2\n      swap1\n      pop\n      jump\t// out\n        /* \"#utility.yul\":3969:4326   */\n    tag_96:\n        /* \"#utility.yul\":4047:4050   */\n      0x00\n        /* \"#utility.yul\":4075:4114   */\n      tag_177\n        /* \"#utility.yul\":4108:4113   */\n      dup3\n        /* \"#utility.yul\":4075:4114   */\n      tag_92\n      jump\t// in\n    tag_177:\n        /* \"#utility.yul\":4130:4191   */\n      tag_178\n        /* \"#utility.yul\":4184:4190   */\n      dup2\n        /* \"#utility.yul\":4179:4182   */\n      dup6\n        /* \"#utility.yul\":4130:4191   */\n      tag_93\n      jump\t// in\n    tag_178:\n        /* \"#utility.yul\":4123:4191   */\n      swap4\n      pop\n        /* \"#utility.yul\":4200:4265   */\n      tag_179\n        /* \"#utility.yul\":4258:4264   */\n      dup2\n        /* \"#utility.yul\":4253:4256   */\n      dup6\n        /* \"#utility.yul\":4246:4250   */\n      0x20\n        /* \"#utility.yul\":4239:4244   */\n      dup7\n        /* \"#utility.yul\":4235:4251   */\n      add\n        /* \"#utility.yul\":4200:4265   */\n      tag_94\n      jump\t// in\n    tag_179:\n        /* \"#utility.yul\":4290:4319   */\n      tag_180\n        /* \"#utility.yul\":4312:4318   */\n      dup2\n        /* \"#utility.yul\":4290:4319   */\n      tag_95\n      jump\t// in\n    tag_180:\n        /* \"#utility.yul\":4285:4288   */\n      dup5\n        /* \"#utility.yul\":4281:4320   */\n      add\n        /* \"#utility.yul\":4274:4320   */\n      swap2\n      pop\n        /* \"#utility.yul\":4051:4326   */\n      pop\n        /* \"#utility.yul\":3969:4326   */\n      swap3\n      swap2\n      pop\n      pop\n      jump\t// out\n        /* \"#utility.yul\":4332:4409   */\n    tag_97:\n        /* \"#utility.yul\":4369:4376   */\n      0x00\n        /* \"#utility.yul\":4398:4403   */\n      dup2\n        /* \"#utility.yul\":4387:4403   */\n      swap1\n      pop\n        /* \"#utility.yul\":4332:4409   */\n      swap2\n      swap1\n      pop\n      jump\t// out\n        /* \"#utility.yul\":4415:4523   */\n    tag_98:\n        /* \"#utility.yul\":4492:4516   */\n      tag_183\n        /* \"#utility.yul\":4510:4515   */\n      dup2\n        /* \"#utility.yul\":4492:4516   */\n      tag_97\n      jump\t// in\n    tag_183:\n        /* \"#utility.yul\":4487:4490   */\n      dup3\n        /* \"#utility.yul\":4480:4517   */\n      mstore\n        /* \"#utility.yul\":4415:4523   */\n      pop\n      pop\n      jump\t// out\n        /* \"#utility.yul\":4601:5560   */\n    tag_99:\n        /* \"#utility.yul\":4706:4709   */\n      0x00\n        /* \"#utility.yul\":4742:4746   */\n      0x80\n        /* \"#utility.yul\":4737:4740   */\n      dup4\n        /* \"#utility.yul\":4733:4747   */\n      add\n        /* \"#utility.yul\":4834:4838   */\n      0x00\n        /* \"#utility.yul\":4827:4832   */\n      dup4\n        /* \"#utility.yul\":4823:4839   */\n      add\n        /* \"#utility.yul\":4817:4840   */\n      mload\n        /* \"#utility.yul\":4853:4916   */\n      tag_185\n        /* \"#utility.yul\":4910:4914   */\n      0x00\n        /* \"#utility.yul\":4905:4908   */\n      dup7\n        /* \"#utility.yul\":4901:4915   */\n      add\n        /* \"#utility.yul\":4887:4899   */\n      dup3\n        /* \"#utility.yul\":4853:4916   */\n      tag_91\n      jump\t// in\n    tag_185:\n        /* \"#utility.yul\":4757:4926   */\n      pop\n        /* \"#utility.yul\":5016:5020   */\n      0x20\n        /* \"#utility.yul\":5009:5014   */\n      dup4\n        /* \"#utility.yul\":5005:5021   */\n      add\n        /* \"#utility.yul\":4999:5022   */\n      mload\n        /* \"#utility.yul\":5035:5098   */\n      tag_186\n        /* \"#utility.yul\":5092:5096   */\n      0x20\n        /* \"#utility.yul\":5087:5090   */\n      dup7\n        /* \"#utility.yul\":5083:5097   */\n      add\n        /* \"#utility.yul\":5069:5081   */\n      dup3\n        /* \"#utility.yul\":5035:5098   */\n      tag_91\n      jump\t// in\n    tag_186:\n        /* \"#utility.yul\":4936:5108   */\n      pop\n        /* \"#utility.yul\":5195:5199   */\n      0x40\n        /* \"#utility.yul\":5188:5193   */\n      dup4\n        /* \"#utility.yul\":5184:5200   */\n      add\n        /* \"#utility.yul\":5178:5201   */\n      mload\n        /* \"#utility.yul\":5248:5251   */\n      dup5\n        /* \"#utility.yul\":5242:5246   */\n      dup3\n        /* \"#utility.yul\":5238:5252   */\n      sub\n        /* \"#utility.yul\":5231:5235   */\n      0x40\n        /* \"#utility.yul\":5226:5229   */\n      dup7\n        /* \"#utility.yul\":5222:5236   */\n      add\n        /* \"#utility.yul\":5215:5253   */\n      mstore\n        /* \"#utility.yul\":5274:5347   */\n      tag_187\n        /* \"#utility.yul\":5342:5346   */\n      dup3\n        /* \"#utility.yul\":5328:5340   */\n      dup3\n        /* \"#utility.yul\":5274:5347   */\n      tag_96\n      jump\t// in\n    tag_187:\n        /* \"#utility.yul\":5266:5347   */\n      swap2\n      pop\n        /* \"#utility.yul\":5118:5358   */\n      pop\n        /* \"#utility.yul\":5441:5445   */\n      0x60\n        /* \"#utility.yul\":5434:5439   */\n      dup4\n        /* \"#utility.yul\":5430:5446   */\n      add\n        /* \"#utility.yul\":5424:5447   */\n      mload\n        /* \"#utility.yul\":5460:5523   */\n      tag_188\n        /* \"#utility.yul\":5517:5521   */\n      0x60\n        /* \"#utility.yul\":5512:5515   */\n      dup7\n        /* \"#utility.yul\":5508:5522   */\n      add\n        /* \"#utility.yul\":5494:5506   */\n      dup3\n        /* \"#utility.yul\":5460:5523   */\n      tag_98\n      jump\t// in\n    tag_188:\n        /* \"#utility.yul\":5368:5533   */\n      pop\n        /* \"#utility.yul\":5550:5554   */\n      dup1\n        /* \"#utility.yul\":5543:5554   */\n      swap2\n      pop\n        /* \"#utility.yul\":4711:5560   */\n      pop\n        /* \"#utility.yul\":4601:5560   */\n      swap3\n      swap2\n      pop\n      pop\n      jump\t// out\n        /* \"#utility.yul\":5566:5814   */\n    tag_100:\n        /* \"#utility.yul\":5681:5691   */\n      0x00\n        /* \"#utility.yul\":5716:5808   */\n      tag_190\n        /* \"#utility.yul\":5804:5807   */\n      dup4\n        /* \"#utility.yul\":5796:5802   */\n      dup4\n        /* \"#utility.yul\":5716:5808   */\n      tag_99\n      jump\t// in\n    tag_190:\n        /* \"#utility.yul\":5702:5808   */\n      swap1\n      pop\n        /* \"#utility.yul\":5566:5814   */\n      swap3\n      swap2\n      pop\n      pop\n      jump\t// out\n        /* \"#utility.yul\":5820:5956   */\n    tag_101:\n        /* \"#utility.yul\":5913:5917   */\n      0x00\n        /* \"#utility.yul\":5945:5949   */\n      0x20\n        /* \"#utility.yul\":5940:5943   */\n      dup3\n        /* \"#utility.yul\":5936:5950   */\n      add\n        /* \"#utility.yul\":5928:5950   */\n      swap1\n      pop\n        /* \"#utility.yul\":5820:5956   */\n      swap2\n      swap1\n      pop\n      jump\t// out\n        /* \"#utility.yul\":6038:7133   */\n    tag_102:\n        /* \"#utility.yul\":6203:6206   */\n      0x00\n        /* \"#utility.yul\":6232:6309   */\n      tag_193\n        /* \"#utility.yul\":6303:6308   */\n      dup3\n        /* \"#utility.yul\":6232:6309   */\n      tag_88\n      jump\t// in\n    tag_193:\n        /* \"#utility.yul\":6325:6434   */\n      tag_194\n        /* \"#utility.yul\":6427:6433   */\n      dup2\n        /* \"#utility.yul\":6422:6425   */\n      dup6\n        /* \"#utility.yul\":6325:6434   */\n      tag_89\n      jump\t// in\n    tag_194:\n        /* \"#utility.yul\":6318:6434   */\n      swap4\n      pop\n        /* \"#utility.yul\":6460:6463   */\n      dup4\n        /* \"#utility.yul\":6505:6509   */\n      0x20\n        /* \"#utility.yul\":6497:6503   */\n      dup3\n        /* \"#utility.yul\":6493:6510   */\n      mul\n        /* \"#utility.yul\":6488:6491   */\n      dup6\n        /* \"#utility.yul\":6484:6511   */\n      add\n        /* \"#utility.yul\":6535:6614   */\n      tag_195\n        /* \"#utility.yul\":6608:6613   */\n      dup6\n        /* \"#utility.yul\":6535:6614   */\n      tag_90\n      jump\t// in\n    tag_195:\n        /* \"#utility.yul\":6637:6644   */\n      dup1\n        /* \"#utility.yul\":6668:6669   */\n      0x00\n        /* \"#utility.yul\":6653:7088   */\n    tag_196:\n        /* \"#utility.yul\":6678:6684   */\n      dup6\n        /* \"#utility.yul\":6675:6676   */\n      dup2\n        /* \"#utility.yul\":6672:6685   */\n      lt\n        /* \"#utility.yul\":6653:7088   */\n      iszero\n      tag_198\n      jumpi\n        /* \"#utility.yul\":6749:6758   */\n      dup5\n        /* \"#utility.yul\":6743:6747   */\n      dup5\n        /* \"#utility.yul\":6739:6759   */\n      sub\n        /* \"#utility.yul\":6734:6737   */\n      dup10\n        /* \"#utility.yul\":6727:6760   */\n      mstore\n        /* \"#utility.yul\":6800:6806   */\n      dup2\n        /* \"#utility.yul\":6794:6807   */\n      mload\n        /* \"#utility.yul\":6828:6938   */\n      tag_199\n        /* \"#utility.yul\":6933:6937   */\n      dup6\n        /* \"#utility.yul\":6918:6931   */\n      dup3\n        /* \"#utility.yul\":6828:6938   */\n      tag_100\n      jump\t// in\n    tag_199:\n        /* \"#utility.yul\":6820:6938   */\n      swap5\n      pop\n        /* \"#utility.yul\":6961:7044   */\n      tag_200\n        /* \"#utility.yul\":7037:7043   */\n      dup4\n        /* \"#utility.yul\":6961:7044   */\n      tag_101\n      jump\t// in\n    tag_200:\n        /* \"#utility.yul\":6951:7044   */\n      swap3\n      pop\n        /* \"#utility.yul\":7073:7077   */\n      0x20\n        /* \"#utility.yul\":7068:7071   */\n      dup11\n        /* \"#utility.yul\":7064:7078   */\n      add\n        /* \"#utility.yul\":7057:7078   */\n      swap10\n      pop\n        /* \"#utility.yul\":6713:7088   */\n      pop\n        /* \"#utility.yul\":6700:6701   */\n      0x01\n        /* \"#utility.yul\":6697:6698   */\n      dup2\n        /* \"#utility.yul\":6693:6702   */\n      add\n        /* \"#utility.yul\":6688:6702   */\n      swap1\n      pop\n        /* \"#utility.yul\":6653:7088   */\n      jump(tag_196)\n    tag_198:\n        /* \"#utility.yul\":6657:6671   */\n      pop\n        /* \"#utility.yul\":7104:7108   */\n      dup3\n        /* \"#utility.yul\":7097:7108   */\n      swap8\n      pop\n        /* \"#utility.yul\":7124:7127   */\n      dup8\n        /* \"#utility.yul\":7117:7127   */\n      swap6\n      pop\n        /* \"#utility.yul\":6208:7133   */\n      pop\n      pop\n      pop\n      pop\n      pop\n        /* \"#utility.yul\":6038:7133   */\n      swap3\n      swap2\n      pop\n      pop\n      jump\t// out\n        /* \"#utility.yul\":7139:7604   */\n    tag_19:\n        /* \"#utility.yul\":7328:7332   */\n      0x00\n        /* \"#utility.yul\":7366:7368   */\n      0x20\n        /* \"#utility.yul\":7355:7364   */\n      dup3\n        /* \"#utility.yul\":7351:7369   */\n      add\n        /* \"#utility.yul\":7343:7369   */\n      swap1\n      pop\n        /* \"#utility.yul\":7415:7424   */\n      dup2\n        /* \"#utility.yul\":7409:7413   */\n      dup2\n        /* \"#utility.yul\":7405:7425   */\n      sub\n        /* \"#utility.yul\":7401:7402   */\n      0x00\n        /* \"#utility.yul\":7390:7399   */\n      dup4\n        /* \"#utility.yul\":7386:7403   */\n      add\n        /* \"#utility.yul\":7379:7426   */\n      mstore\n        /* \"#utility.yul\":7443:7597   */\n      tag_202\n        /* \"#utility.yul\":7592:7596   */\n      dup2\n        /* \"#utility.yul\":7583:7589   */\n      dup5\n        /* \"#utility.yul\":7443:7597   */\n      tag_102\n      jump\t// in\n    tag_202:\n        /* \"#utility.yul\":7435:7597   */\n      swap1\n      pop\n        /* \"#utility.yul\":7139:7604   */\n      swap3\n      swap2\n      pop\n      pop\n      jump\t// out\n        /* \"#utility.yul\":7610:7732   */\n    tag_103:\n        /* \"#utility.yul\":7683:7707   */\n      tag_204\n        /* \"#utility.yul\":7701:7706   */\n      dup2\n        /* \"#utility.yul\":7683:7707   */\n      tag_97\n      jump\t// in\n    tag_204:\n        /* \"#utility.yul\":7676:7681   */\n      dup2\n        /* \"#utility.yul\":7673:7708   */\n      eq\n        /* \"#utility.yul\":7663:7726   */\n      tag_205\n      jumpi\n        /* \"#utility.yul\":7722:7723   */\n      0x00\n        /* \"#utility.yul\":7719:7720   */\n      0x00\n        /* \"#utility.yul\":7712:7724   */\n      revert\n        /* \"#utility.yul\":7663:7726   */\n    tag_205:\n        /* \"#utility.yul\":7610:7732   */\n      pop\n      jump\t// out\n        /* \"#utility.yul\":7738:7877   */\n    tag_104:\n        /* \"#utility.yul\":7784:7789   */\n      0x00\n        /* \"#utility.yul\":7822:7828   */\n      dup2\n        /* \"#utility.yul\":7809:7829   */\n      calldataload\n        /* \"#utility.yul\":7800:7829   */\n      swap1\n      pop\n        /* \"#utility.yul\":7838:7871   */\n      tag_207\n        /* \"#utility.yul\":7865:7870   */\n      dup2\n        /* \"#utility.yul\":7838:7871   */\n      tag_103\n      jump\t// in\n    tag_207:\n        /* \"#utility.yul\":7738:7877   */\n      swap3\n      swap2\n      pop\n      pop\n      jump\t// out\n        /* \"#utility.yul\":7883:8357   */\n    tag_22:\n        /* \"#utility.yul\":7951:7957   */\n      0x00\n        /* \"#utility.yul\":7959:7965   */\n      0x00\n        /* \"#utility.yul\":8008:8010   */\n      0x40\n        /* \"#utility.yul\":7996:8005   */\n      dup4\n        /* \"#utility.yul\":7987:7994   */\n      dup6\n        /* \"#utility.yul\":7983:8006   */\n      sub\n        /* \"#utility.yul\":7979:8011   */\n      slt\n        /* \"#utility.yul\":7976:8095   */\n      iszero\n      tag_209\n      jumpi\n        /* \"#utility.yul\":8014:8093   */\n      tag_210\n      tag_80\n      jump\t// in\n    tag_210:\n        /* \"#utility.yul\":7976:8095   */\n    tag_209:\n        /* \"#utility.yul\":8134:8135   */\n      0x00\n        /* \"#utility.yul\":8159:8212   */\n      tag_211\n        /* \"#utility.yul\":8204:8211   */\n      dup6\n        /* \"#utility.yul\":8195:8201   */\n      dup3\n        /* \"#utility.yul\":8184:8193   */\n      dup7\n        /* \"#utility.yul\":8180:8202   */\n      add\n        /* \"#utility.yul\":8159:8212   */\n      tag_83\n      jump\t// in\n    tag_211:\n        /* \"#utility.yul\":8149:8212   */\n      swap3\n      pop\n        /* \"#utility.yul\":8105:8222   */\n      pop\n        /* \"#utility.yul\":8261:8263   */\n      0x20\n        /* \"#utility.yul\":8287:8340   */\n      tag_212\n        /* \"#utility.yul\":8332:8339   */\n      dup6\n        /* \"#utility.yul\":8323:8329   */\n      dup3\n        /* \"#utility.yul\":8312:8321   */\n      dup7\n        /* \"#utility.yul\":8308:8330   */\n      add\n        /* \"#utility.yul\":8287:8340   */\n      tag_104\n      jump\t// in\n    tag_212:\n        /* \"#utility.yul\":8277:8340   */\n      swap2\n      pop\n        /* \"#utility.yul\":8232:8350   */\n      pop\n        /* \"#utility.yul\":7883:8357   */\n      swap3\n      pop\n      swap3\n      swap1\n      pop\n      jump\t// out\n        /* \"#utility.yul\":8435:9404   */\n    tag_105:\n        /* \"#utility.yul\":8550:8553   */\n      0x00\n        /* \"#utility.yul\":8586:8590   */\n      0x80\n        /* \"#utility.yul\":8581:8584   */\n      dup4\n        /* \"#utility.yul\":8577:8591   */\n      add\n        /* \"#utility.yul\":8678:8682   */\n      0x00\n        /* \"#utility.yul\":8671:8676   */\n      dup4\n        /* \"#utility.yul\":8667:8683   */\n      add\n        /* \"#utility.yul\":8661:8684   */\n      mload\n        /* \"#utility.yul\":8697:8760   */\n      tag_214\n        /* \"#utility.yul\":8754:8758   */\n      0x00\n        /* \"#utility.yul\":8749:8752   */\n      dup7\n        /* \"#utility.yul\":8745:8759   */\n      add\n        /* \"#utility.yul\":8731:8743   */\n      dup3\n        /* \"#utility.yul\":8697:8760   */\n      tag_91\n      jump\t// in\n    tag_214:\n        /* \"#utility.yul\":8601:8770   */\n      pop\n        /* \"#utility.yul\":8860:8864   */\n      0x20\n        /* \"#utility.yul\":8853:8858   */\n      dup4\n        /* \"#utility.yul\":8849:8865   */\n      add\n        /* \"#utility.yul\":8843:8866   */\n      mload\n        /* \"#utility.yul\":8879:8942   */\n      tag_215\n        /* \"#utility.yul\":8936:8940   */\n      0x20\n        /* \"#utility.yul\":8931:8934   */\n      dup7\n        /* \"#utility.yul\":8927:8941   */\n      add\n        /* \"#utility.yul\":8913:8925   */\n      dup3\n        /* \"#utility.yul\":8879:8942   */\n      tag_91\n      jump\t// in\n    tag_215:\n        /* \"#utility.yul\":8780:8952   */\n      pop\n        /* \"#utility.yul\":9039:9043   */\n      0x40\n        /* \"#utility.yul\":9032:9037   */\n      dup4\n        /* \"#utility.yul\":9028:9044   */\n      add\n        /* \"#utility.yul\":9022:9045   */\n      mload\n        /* \"#utility.yul\":9092:9095   */\n      dup5\n        /* \"#utility.yul\":9086:9090   */\n      dup3\n        /* \"#utility.yul\":9082:9096   */\n      sub\n        /* \"#utility.yul\":9075:9079   */\n      0x40\n        /* \"#utility.yul\":9070:9073   */\n      dup7\n        /* \"#utility.yul\":9066:9080   */\n      add\n        /* \"#utility.yul\":9059:9097   */\n      mstore\n        /* \"#utility.yul\":9118:9191   */\n      tag_216\n        /* \"#utility.yul\":9186:9190   */\n      dup3\n        /* \"#utility.yul\":9172:9184   */\n      dup3\n        /* \"#utility.yul\":9118:9191   */\n      tag_96\n      jump\t// in\n    tag_216:\n        /* \"#utility.yul\":9110:9191   */\n      swap2\n      pop\n        /* \"#utility.yul\":8962:9202   */\n      pop\n        /* \"#utility.yul\":9285:9289   */\n      0x60\n        /* \"#utility.yul\":9278:9283   */\n      dup4\n        /* \"#utility.yul\":9274:9290   */\n      add\n        /* \"#utility.yul\":9268:9291   */\n      mload\n        /* \"#utility.yul\":9304:9367   */\n      tag_217\n        /* \"#utility.yul\":9361:9365   */\n      0x60\n        /* \"#utility.yul\":9356:9359   */\n      dup7\n        /* \"#utility.yul\":9352:9366   */\n      add\n        /* \"#utility.yul\":9338:9350   */\n      dup3\n        /* \"#utility.yul\":9304:9367   */\n      tag_98\n      jump\t// in\n    tag_217:\n        /* \"#utility.yul\":9212:9377   */\n      pop\n        /* \"#utility.yul\":9394:9398   */\n      dup1\n        /* \"#utility.yul\":9387:9398   */\n      swap2\n      pop\n        /* \"#utility.yul\":8555:9404   */\n      pop\n        /* \"#utility.yul\":8435:9404   */\n      swap3\n      swap2\n      pop\n      pop\n      jump\t// out\n        /* \"#utility.yul\":9410:9775   */\n    tag_25:\n        /* \"#utility.yul\":9549:9553   */\n      0x00\n        /* \"#utility.yul\":9587:9589   */\n      0x20\n        /* \"#utility.yul\":9576:9585   */\n      dup3\n        /* \"#utility.yul\":9572:9590   */\n      add\n        /* \"#utility.yul\":9564:9590   */\n      swap1\n      pop\n        /* \"#utility.yul\":9636:9645   */\n      dup2\n        /* \"#utility.yul\":9630:9634   */\n      dup2\n        /* \"#utility.yul\":9626:9646   */\n      sub\n        /* \"#utility.yul\":9622:9623   */\n      0x00\n        /* \"#utility.yul\":9611:9620   */\n      dup4\n        /* \"#utility.yul\":9607:9624   */\n      add\n        /* \"#utility.yul\":9600:9647   */\n      mstore\n        /* \"#utility.yul\":9664:9768   */\n      tag_219\n        /* \"#utility.yul\":9763:9767   */\n      dup2\n        /* \"#utility.yul\":9754:9760   */\n      dup5\n        /* \"#utility.yul\":9664:9768   */\n      tag_105\n      jump\t// in\n    tag_219:\n        /* \"#utility.yul\":9656:9768   */\n      swap1\n      pop\n        /* \"#utility.yul\":9410:9775   */\n      swap3\n      swap2\n      pop\n      pop\n      jump\t// out\n        /* \"#utility.yul\":9781:10110   */\n    tag_28:\n        /* \"#utility.yul\":9840:9846   */\n      0x00\n        /* \"#utility.yul\":9889:9891   */\n      0x20\n        /* \"#utility.yul\":9877:9886   */\n      dup3\n        /* \"#utility.yul\":9868:9875   */\n      dup5\n        /* \"#utility.yul\":9864:9887   */\n      sub\n        /* \"#utility.yul\":9860:9892   */\n      slt\n        /* \"#utility.yul\":9857:9976   */\n      iszero\n      tag_221\n      jumpi\n        /* \"#utility.yul\":9895:9974   */\n      tag_222\n      tag_80\n      jump\t// in\n    tag_222:\n        /* \"#utility.yul\":9857:9976   */\n    tag_221:\n        /* \"#utility.yul\":10015:10016   */\n      0x00\n        /* \"#utility.yul\":10040:10093   */\n      tag_223\n        /* \"#utility.yul\":10085:10092   */\n      dup5\n        /* \"#utility.yul\":10076:10082   */\n      dup3\n        /* \"#utility.yul\":10065:10074   */\n      dup6\n        /* \"#utility.yul\":10061:10083   */\n      add\n        /* \"#utility.yul\":10040:10093   */\n      tag_83\n      jump\t// in\n    tag_223:\n        /* \"#utility.yul\":10030:10093   */\n      swap2\n      pop\n        /* \"#utility.yul\":9986:10103   */\n      pop\n        /* \"#utility.yul\":9781:10110   */\n      swap3\n      swap2\n      pop\n      pop\n      jump\t// out\n        /* \"#utility.yul\":10116:10234   */\n    tag_106:\n        /* \"#utility.yul\":10203:10227   */\n      tag_225\n        /* \"#utility.yul\":10221:10226   */\n      dup2\n        /* \"#utility.yul\":10203:10227   */\n      tag_97\n      jump\t// in\n    tag_225:\n        /* \"#utility.yul\":10198:10201   */\n      dup3\n        /* \"#utility.yul\":10191:10228   */\n      mstore\n        /* \"#utility.yul\":10116:10234   */\n      pop\n      pop\n      jump\t// out\n        /* \"#utility.yul\":10240:10462   */\n    tag_31:\n        /* \"#utility.yul\":10333:10337   */\n      0x00\n        /* \"#utility.yul\":10371:10373   */\n      0x20\n        /* \"#utility.yul\":10360:10369   */\n      dup3\n        /* \"#utility.yul\":10356:10374   */\n      add\n        /* \"#utility.yul\":10348:10374   */\n      swap1\n      pop\n        /* \"#utility.yul\":10384:10455   */\n      tag_227\n        /* \"#utility.yul\":10452:10453   */\n      0x00\n        /* \"#utility.yul\":10441:10450   */\n      dup4\n        /* \"#utility.yul\":10437:10454   */\n      add\n        /* \"#utility.yul\":10428:10434   */\n      dup5\n        /* \"#utility.yul\":10384:10455   */\n      tag_106\n      jump\t// in\n    tag_227:\n        /* \"#utility.yul\":10240:10462   */\n      swap3\n      swap2\n      pop\n      pop\n      jump\t// out\n        /* \"#utility.yul\":10468:10637   */\n    tag_107:\n        /* \"#utility.yul\":10552:10563   */\n      0x00\n        /* \"#utility.yul\":10586:10592   */\n      dup3\n        /* \"#utility.yul\":10581:10584   */\n      dup3\n        /* \"#utility.yul\":10574:10593   */\n      mstore\n        /* \"#utility.yul\":10626:10630   */\n      0x20\n        /* \"#utility.yul\":10621:10624   */\n      dup3\n        /* \"#utility.yul\":10617:10631   */\n      add\n        /* \"#utility.yul\":10602:10631   */\n      swap1\n      pop\n        /* \"#utility.yul\":10468:10637   */\n      swap3\n      swap2\n      pop\n      pop\n      jump\t// out\n        /* \"#utility.yul\":10643:10871   */\n    tag_108:\n        /* \"#utility.yul\":10783:10817   */\n      0x536f6c6f20656c2070726f706965746172696f20707565646520656e76696172\n        /* \"#utility.yul\":10779:10780   */\n      0x00\n        /* \"#utility.yul\":10771:10777   */\n      dup3\n        /* \"#utility.yul\":10767:10781   */\n      add\n        /* \"#utility.yul\":10760:10818   */\n      mstore\n        /* \"#utility.yul\":10852:10863   */\n      0x206d656e73616a65730000000000000000000000000000000000000000000000\n        /* \"#utility.yul\":10847:10849   */\n      0x20\n        /* \"#utility.yul\":10839:10845   */\n      dup3\n        /* \"#utility.yul\":10835:10850   */\n      add\n        /* \"#utility.yul\":10828:10864   */\n      mstore\n        /* \"#utility.yul\":10643:10871   */\n      pop\n      jump\t// out\n        /* \"#utility.yul\":10877:11243   */\n    tag_109:\n        /* \"#utility.yul\":11019:11022   */\n      0x00\n        /* \"#utility.yul\":11040:11107   */\n      tag_231\n        /* \"#utility.yul\":11104:11106   */\n      0x29\n        /* \"#utility.yul\":11099:11102   */\n      dup4\n        /* \"#utility.yul\":11040:11107   */\n      tag_107\n      jump\t// in\n    tag_231:\n        /* \"#utility.yul\":11033:11107   */\n      swap2\n      pop\n        /* \"#utility.yul\":11116:11209   */\n      tag_232\n        /* \"#utility.yul\":11205:11208   */\n      dup3\n        /* \"#utility.yul\":11116:11209   */\n      tag_108\n      jump\t// in\n    tag_232:\n        /* \"#utility.yul\":11234:11236   */\n      0x40\n        /* \"#utility.yul\":11229:11232   */\n      dup3\n        /* \"#utility.yul\":11225:11237   */\n      add\n        /* \"#utility.yul\":11218:11237   */\n      swap1\n      pop\n        /* \"#utility.yul\":10877:11243   */\n      swap2\n      swap1\n      pop\n      jump\t// out\n        /* \"#utility.yul\":11249:11668   */\n    tag_35:\n        /* \"#utility.yul\":11415:11419   */\n      0x00\n        /* \"#utility.yul\":11453:11455   */\n      0x20\n        /* \"#utility.yul\":11442:11451   */\n      dup3\n        /* \"#utility.yul\":11438:11456   */\n      add\n        /* \"#utility.yul\":11430:11456   */\n      swap1\n      pop\n        /* \"#utility.yul\":11502:11511   */\n      dup2\n        /* \"#utility.yul\":11496:11500   */\n      dup2\n        /* \"#utility.yul\":11492:11512   */\n      sub\n        /* \"#utility.yul\":11488:11489   */\n      0x00\n        /* \"#utility.yul\":11477:11486   */\n      dup4\n        /* \"#utility.yul\":11473:11490   */\n      add\n        /* \"#utility.yul\":11466:11513   */\n      mstore\n        /* \"#utility.yul\":11530:11661   */\n      tag_234\n        /* \"#utility.yul\":11656:11660   */\n      dup2\n        /* \"#utility.yul\":11530:11661   */\n      tag_109\n      jump\t// in\n    tag_234:\n        /* \"#utility.yul\":11522:11661   */\n      swap1\n      pop\n        /* \"#utility.yul\":11249:11668   */\n      swap2\n      swap1\n      pop\n      jump\t// out\n        /* \"#utility.yul\":11674:11850   */\n    tag_110:\n        /* \"#utility.yul\":11814:11842   */\n      0x446972656363696f6e2064657374696e6f20696e76616c696461000000000000\n        /* \"#utility.yul\":11810:11811   */\n      0x00\n        /* \"#utility.yul\":11802:11808   */\n      dup3\n        /* \"#utility.yul\":11798:11812   */\n      add\n        /* \"#utility.yul\":11791:11843   */\n      mstore\n        /* \"#utility.yul\":11674:11850   */\n      pop\n      jump\t// out\n        /* \"#utility.yul\":11856:12222   */\n    tag_111:\n        /* \"#utility.yul\":11998:12001   */\n      0x00\n        /* \"#utility.yul\":12019:12086   */\n      tag_237\n        /* \"#utility.yul\":12083:12085   */\n      0x1a\n        /* \"#utility.yul\":12078:12081   */\n      dup4\n        /* \"#utility.yul\":12019:12086   */\n      tag_107\n      jump\t// in\n    tag_237:\n        /* \"#utility.yul\":12012:12086   */\n      swap2\n      pop\n        /* \"#utility.yul\":12095:12188   */\n      tag_238\n        /* \"#utility.yul\":12184:12187   */\n      dup3\n        /* \"#utility.yul\":12095:12188   */\n      tag_110\n      jump\t// in\n    tag_238:\n        /* \"#utility.yul\":12213:12215   */\n      0x20\n        /* \"#utility.yul\":12208:12211   */\n      dup3\n        /* \"#utility.yul\":12204:12216   */\n      add\n        /* \"#utility.yul\":12197:12216   */\n      swap1\n      pop\n        /* \"#utility.yul\":11856:12222   */\n      swap2\n      swap1\n      pop\n      jump\t// out\n        /* \"#utility.yul\":12228:12647   */\n    tag_39:\n        /* \"#utility.yul\":12394:12398   */\n      0x00\n        /* \"#utility.yul\":12432:12434   */\n      0x20\n        /* \"#utility.yul\":12421:12430   */\n      dup3\n        /* \"#utility.yul\":12417:12435   */\n      add\n        /* \"#utility.yul\":12409:12435   */\n      swap1\n      pop\n        /* \"#utility.yul\":12481:12490   */\n      dup2\n        /* \"#utility.yul\":12475:12479   */\n      dup2\n        /* \"#utility.yul\":12471:12491   */\n      sub\n        /* \"#utility.yul\":12467:12468   */\n      0x00\n        /* \"#utility.yul\":12456:12465   */\n      dup4\n        /* \"#utility.yul\":12452:12469   */\n      add\n        /* \"#utility.yul\":12445:12492   */\n      mstore\n        /* \"#utility.yul\":12509:12640   */\n      tag_240\n        /* \"#utility.yul\":12635:12639   */\n      dup2\n        /* \"#utility.yul\":12509:12640   */\n      tag_111\n      jump\t// in\n    tag_240:\n        /* \"#utility.yul\":12501:12640   */\n      swap1\n      pop\n        /* \"#utility.yul\":12228:12647   */\n      swap2\n      swap1\n      pop\n      jump\t// out\n        /* \"#utility.yul\":12653:12834   */\n    tag_112:\n        /* \"#utility.yul\":12793:12826   */\n      0x456c206d656e73616a65206e6f20707565646520657374617220766163696f00\n        /* \"#utility.yul\":12789:12790   */\n      0x00\n        /* \"#utility.yul\":12781:12787   */\n      dup3\n        /* \"#utility.yul\":12777:12791   */\n      add\n        /* \"#utility.yul\":12770:12827   */\n      mstore\n        /* \"#utility.yul\":12653:12834   */\n      pop\n      jump\t// out\n        /* \"#utility.yul\":12840:13206   */\n    tag_113:\n        /* \"#utility.yul\":12982:12985   */\n      0x00\n        /* \"#utility.yul\":13003:13070   */\n      tag_243\n        /* \"#utility.yul\":13067:13069   */\n      0x1f\n        /* \"#utility.yul\":13062:13065   */\n      dup4\n        /* \"#utility.yul\":13003:13070   */\n      tag_107\n      jump\t// in\n    tag_243:\n        /* \"#utility.yul\":12996:13070   */\n      swap2\n      pop\n        /* \"#utility.yul\":13079:13172   */\n      tag_244\n        /* \"#utility.yul\":13168:13171   */\n      dup3\n        /* \"#utility.yul\":13079:13172   */\n      tag_112\n      jump\t// in\n    tag_244:\n        /* \"#utility.yul\":13197:13199   */\n      0x20\n        /* \"#utility.yul\":13192:13195   */\n      dup3\n        /* \"#utility.yul\":13188:13200   */\n      add\n        /* \"#utility.yul\":13181:13200   */\n      swap1\n      pop\n        /* \"#utility.yul\":12840:13206   */\n      swap2\n      swap1\n      pop\n      jump\t// out\n        /* \"#utility.yul\":13212:13631   */\n    tag_42:\n        /* \"#utility.yul\":13378:13382   */\n      0x00\n        /* \"#utility.yul\":13416:13418   */\n      0x20\n        /* \"#utility.yul\":13405:13414   */\n      dup3\n        /* \"#utility.yul\":13401:13419   */\n      add\n        /* \"#utility.yul\":13393:13419   */\n      swap1\n      pop\n        /* \"#utility.yul\":13465:13474   */\n      dup2\n        /* \"#utility.yul\":13459:13463   */\n      dup2\n        /* \"#utility.yul\":13455:13475   */\n      sub\n        /* \"#utility.yul\":13451:13452   */\n      0x00\n        /* \"#utility.yul\":13440:13449   */\n      dup4\n        /* \"#utility.yul\":13436:13453   */\n      add\n        /* \"#utility.yul\":13429:13476   */\n      mstore\n        /* \"#utility.yul\":13493:13624   */\n      tag_246\n        /* \"#utility.yul\":13619:13623   */\n      dup2\n        /* \"#utility.yul\":13493:13624   */\n      tag_113\n      jump\t// in\n    tag_246:\n        /* \"#utility.yul\":13485:13624   */\n      swap1\n      pop\n        /* \"#utility.yul\":13212:13631   */\n      swap2\n      swap1\n      pop\n      jump\t// out\n        /* \"#utility.yul\":13637:13817   */\n    tag_114:\n        /* \"#utility.yul\":13685:13762   */\n      0x4e487b7100000000000000000000000000000000000000000000000000000000\n        /* \"#utility.yul\":13682:13683   */\n      0x00\n        /* \"#utility.yul\":13675:13763   */\n      mstore\n        /* \"#utility.yul\":13782:13786   */\n      0x41\n        /* \"#utility.yul\":13779:13780   */\n      0x04\n        /* \"#utility.yul\":13772:13787   */\n      mstore\n        /* \"#utility.yul\":13806:13810   */\n      0x24\n        /* \"#utility.yul\":13803:13804   */\n      0x00\n        /* \"#utility.yul\":13796:13811   */\n      revert\n        /* \"#utility.yul\":13823:14003   */\n    tag_115:\n        /* \"#utility.yul\":13871:13948   */\n      0x4e487b7100000000000000000000000000000000000000000000000000000000\n        /* \"#utility.yul\":13868:13869   */\n      0x00\n        /* \"#utility.yul\":13861:13949   */\n      mstore\n        /* \"#utility.yul\":13968:13972   */\n      0x22\n        /* \"#utility.yul\":13965:13966   */\n      0x04\n        /* \"#utility.yul\":13958:13973   */\n      mstore\n        /* \"#utility.yul\":13992:13996   */\n      0x24\n        /* \"#utility.yul\":13989:13990   */\n      0x00\n        /* \"#utility.yul\":13982:13997   */\n      revert\n        /* \"#utility.yul\":14009:14329   */\n    tag_55:\n        /* \"#utility.yul\":14053:14059   */\n      0x00\n        /* \"#utility.yul\":14090:14091   */\n      0x02\n        /* \"#utility.yul\":14084:14088   */\n      dup3\n        /* \"#utility.yul\":14080:14092   */\n      div\n        /* \"#utility.yul\":14070:14092   */\n      swap1\n      pop\n        /* \"#utility.yul\":14137:14138   */\n      0x01\n        /* \"#utility.yul\":14131:14135   */\n      dup3\n        /* \"#utility.yul\":14127:14139   */\n      and\n        /* \"#utility.yul\":14158:14176   */\n      dup1\n        /* \"#utility.yul\":14148:14229   */\n      tag_250\n      jumpi\n        /* \"#utility.yul\":14214:14218   */\n      0x7f\n        /* \"#utility.yul\":14206:14212   */\n      dup3\n        /* \"#utility.yul\":14202:14219   */\n      and\n        /* \"#utility.yul\":14192:14219   */\n      swap2\n      pop\n        /* \"#utility.yul\":14148:14229   */\n    tag_250:\n        /* \"#utility.yul\":14276:14278   */\n      0x20\n        /* \"#utility.yul\":14268:14274   */\n      dup3\n        /* \"#utility.yul\":14265:14279   */\n      lt\n        /* \"#utility.yul\":14245:14263   */\n      dup2\n        /* \"#utility.yul\":14242:14280   */\n      sub\n        /* \"#utility.yul\":14239:14323   */\n      tag_251\n      jumpi\n        /* \"#utility.yul\":14295:14313   */\n      tag_252\n      tag_115\n      jump\t// in\n    tag_252:\n        /* \"#utility.yul\":14239:14323   */\n    tag_251:\n        /* \"#utility.yul\":14060:14329   */\n      pop\n        /* \"#utility.yul\":14009:14329   */\n      swap2\n      swap1\n      pop\n      jump\t// out\n        /* \"#utility.yul\":14335:14476   */\n    tag_116:\n        /* \"#utility.yul\":14384:14388   */\n      0x00\n        /* \"#utility.yul\":14407:14410   */\n      dup2\n        /* \"#utility.yul\":14399:14410   */\n      swap1\n      pop\n        /* \"#utility.yul\":14430:14433   */\n      dup2\n        /* \"#utility.yul\":14427:14428   */\n      0x00\n        /* \"#utility.yul\":14420:14434   */\n      mstore\n        /* \"#utility.yul\":14464:14468   */\n      0x20\n        /* \"#utility.yul\":14461:14462   */\n      0x00\n        /* \"#utility.yul\":14451:14469   */\n      keccak256\n        /* \"#utility.yul\":14443:14469   */\n      swap1\n      pop\n        /* \"#utility.yul\":14335:14476   */\n      swap2\n      swap1\n      pop\n      jump\t// out\n        /* \"#utility.yul\":14482:14575   */\n    tag_117:\n        /* \"#utility.yul\":14519:14525   */\n      0x00\n        /* \"#utility.yul\":14566:14568   */\n      0x20\n        /* \"#utility.yul\":14561:14563   */\n      0x1f\n        /* \"#utility.yul\":14554:14559   */\n      dup4\n        /* \"#utility.yul\":14550:14564   */\n      add\n        /* \"#utility.yul\":14546:14569   */\n      div\n        /* \"#utility.yul\":14536:14569   */\n      swap1\n      pop\n        /* \"#utility.yul\":14482:14575   */\n      swap2\n      swap1\n      pop\n      jump\t// out\n        /* \"#utility.yul\":14581:14688   */\n    tag_118:\n        /* \"#utility.yul\":14625:14633   */\n      0x00\n        /* \"#utility.yul\":14675:14680   */\n      dup3\n        /* \"#utility.yul\":14669:14673   */\n      dup3\n        /* \"#utility.yul\":14665:14681   */\n      shl\n        /* \"#utility.yul\":14644:14681   */\n      swap1\n      pop\n        /* \"#utility.yul\":14581:14688   */\n      swap3\n      swap2\n      pop\n      pop\n      jump\t// out\n        /* \"#utility.yul\":14694:15087   */\n    tag_119:\n        /* \"#utility.yul\":14763:14769   */\n      0x00\n        /* \"#utility.yul\":14813:14814   */\n      0x08\n        /* \"#utility.yul\":14801:14811   */\n      dup4\n        /* \"#utility.yul\":14797:14815   */\n      mul\n        /* \"#utility.yul\":14836:14933   */\n      tag_257\n        /* \"#utility.yul\":14866:14932   */\n      0xffffffffffffffffffffffffffffffffffffffffffffffffffffffffffffffff\n        /* \"#utility.yul\":14855:14864   */\n      dup3\n        /* \"#utility.yul\":14836:14933   */\n      tag_118\n      jump\t// in\n    tag_257:\n        /* \"#utility.yul\":14954:14993   */\n      tag_258\n        /* \"#utility.yul\":14984:14992   */\n      dup7\n        /* \"#utility.yul\":14973:14982   */\n      dup4\n        /* \"#utility.yul\":14954:14993   */\n      tag_118\n      jump\t// in\n    tag_258:\n        /* \"#utility.yul\":14942:14993   */\n      swap6\n      pop\n        /* \"#utility.yul\":15026:15030   */\n      dup1\n        /* \"#utility.yul\":15022:15031   */\n      not\n        /* \"#utility.yul\":15015:15020   */\n      dup5\n        /* \"#utility.yul\":15011:15032   */\n      and\n        /* \"#utility.yul\":15002:15032   */\n      swap4\n      pop\n        /* \"#utility.yul\":15075:15079   */\n      dup1\n        /* \"#utility.yul\":15065:15073   */\n      dup7\n        /* \"#utility.yul\":15061:15080   */\n      and\n        /* \"#utility.yul\":15054:15059   */\n      dup5\n        /* \"#utility.yul\":15051:15081   */\n      or\n        /* \"#utility.yul\":15041:15081   */\n      swap3\n      pop\n        /* \"#utility.yul\":14770:15087   */\n      pop\n      pop\n        /* \"#utility.yul\":14694:15087   */\n      swap4\n      swap3\n      pop\n      pop\n      pop\n      jump\t// out\n        /* \"#utility.yul\":15093:15153   */\n    tag_120:\n        /* \"#utility.yul\":15121:15124   */\n      0x00\n        /* \"#utility.yul\":15142:15147   */\n      dup2\n        /* \"#utility.yul\":15135:15147   */\n      swap1\n      pop\n        /* \"#utility.yul\":15093:15153   */\n      swap2\n      swap1\n      pop\n      jump\t// out\n        /* \"#utility.yul\":15159:15301   */\n    tag_121:\n        /* \"#utility.yul\":15209:15218   */\n      0x00\n        /* \"#utility.yul\":15242:15295   */\n      tag_261\n        /* \"#utility.yul\":15260:15294   */\n      tag_262\n        /* \"#utility.yul\":15269:15293   */\n      tag_263\n        /* \"#utility.yul\":15287:15292   */\n      dup5\n        /* \"#utility.yul\":15269:15293   */\n      tag_97\n      jump\t// in\n    tag_263:\n        /* \"#utility.yul\":15260:15294   */\n      tag_120\n      jump\t// in\n    tag_262:\n        /* \"#utility.yul\":15242:15295   */\n      tag_97\n      jump\t// in\n    tag_261:\n        /* \"#utility.yul\":15229:15295   */\n      swap1\n      pop\n        /* \"#utility.yul\":15159:15301   */\n      swap2\n      swap1\n      pop\n      jump\t// out\n        /* \"#utility.yul\":15307:15382   */\n    tag_122:\n        /* \"#utility.yul\":15350:15353   */\n      0x00\n        /* \"#utility.yul\":15371:15376   */\n      dup2\n        /* \"#utility.yul\":15364:15376   */\n      swap1\n      pop\n        /* \"#utility.yul\":15307:15382   */\n      swap2\n      swap1\n      pop\n      jump\t// out\n        /* \"#utility.yul\":15388:15657   */\n    tag_123:\n        /* \"#utility.yul\":15498:15537   */\n      tag_266\n        /* \"#utility.yul\":15529:15536   */\n      dup4\n        /* \"#utility.yul\":15498:15537   */\n      tag_121\n      jump\t// in\n    tag_266:\n        /* \"#utility.yul\":15559:15650   */\n      tag_267\n        /* \"#utility.yul\":15608:15649   */\n      tag_268\n        /* \"#utility.yul\":15632:15648   */\n      dup3\n        /* \"#utility.yul\":15608:15649   */\n      tag_122\n      jump\t// in\n    tag_268:\n        /* \"#utility.yul\":15600:15606   */\n      dup5\n        /* \"#utility.yul\":15593:15597   */\n      dup5\n        /* \"#utility.yul\":15587:15598   */\n      sload\n        /* \"#utility.yul\":15559:15650   */\n      tag_119\n      jump\t// in\n    tag_267:\n        /* \"#utility.yul\":15553:15557   */\n      dup3\n        /* \"#utility.yul\":15546:15651   */\n      sstore\n        /* \"#utility.yul\":15464:15657   */\n      pop\n        /* \"#utility.yul\":15388:15657   */\n      pop\n      pop\n      pop\n      jump\t// out\n        /* \"#utility.yul\":15663:15736   */\n    tag_124:\n        /* \"#utility.yul\":15708:15711   */\n      0x00\n        /* \"#utility.yul\":15729:15730   */\n      0x00\n        /* \"#utility.yul\":15722:15730   */\n      swap1\n      pop\n        /* \"#utility.yul\":15663:15736   */\n      swap1\n      jump\t// out\n        /* \"#utility.yul\":15742:15931   */\n    tag_125:\n        /* \"#utility.yul\":15819:15851   */\n      tag_271\n      tag_124\n      jump\t// in\n    tag_271:\n        /* \"#utility.yul\":15860:15925   */\n      tag_272\n        /* \"#utility.yul\":15918:15924   */\n      dup2\n        /* \"#utility.yul\":15910:15916   */\n      dup5\n        /* \"#utility.yul\":15904:15908   */\n      dup5\n        /* \"#utility.yul\":15860:15925   */\n      tag_123\n      jump\t// in\n    tag_272:\n        /* \"#utility.yul\":15795:15931   */\n      pop\n        /* \"#utility.yul\":15742:15931   */\n      pop\n      pop\n      jump\t// out\n        /* \"#utility.yul\":15937:16123   */\n    tag_126:\n        /* \"#utility.yul\":15997:16117   */\n    tag_274:\n        /* \"#utility.yul\":16014:16017   */\n      dup2\n        /* \"#utility.yul\":16007:16012   */\n      dup2\n        /* \"#utility.yul\":16004:16018   */\n      lt\n        /* \"#utility.yul\":15997:16117   */\n      iszero\n      tag_276\n      jumpi\n        /* \"#utility.yul\":16068:16107   */\n      tag_277\n        /* \"#utility.yul\":16105:16106   */\n      0x00\n        /* \"#utility.yul\":16098:16103   */\n      dup3\n        /* \"#utility.yul\":16068:16107   */\n      tag_125\n      jump\t// in\n    tag_277:\n        /* \"#utility.yul\":16041:16042   */\n      0x01\n        /* \"#utility.yul\":16034:16039   */\n      dup2\n        /* \"#utility.yul\":16030:16043   */\n      add\n        /* \"#utility.yul\":16021:16043   */\n      swap1\n      pop\n        /* \"#utility.yul\":15997:16117   */\n      jump(tag_274)\n    tag_276:\n        /* \"#utility.yul\":15937:16123   */\n      pop\n      pop\n      jump\t// out\n        /* \"#utility.yul\":16129:16672   */\n    tag_127:\n        /* \"#utility.yul\":16230:16232   */\n      0x1f\n        /* \"#utility.yul\":16225:16228   */\n      dup3\n        /* \"#utility.yul\":16222:16233   */\n      gt\n        /* \"#utility.yul\":16219:16665   */\n      iszero\n      tag_279\n      jumpi\n        /* \"#utility.yul\":16264:16302   */\n      tag_280\n        /* \"#utility.yul\":16296:16301   */\n      dup2\n        /* \"#utility.yul\":16264:16302   */\n      tag_116\n      jump\t// in\n    tag_280:\n        /* \"#utility.yul\":16348:16377   */\n      tag_281\n        /* \"#utility.yul\":16366:16376   */\n      dup5\n        /* \"#utility.yul\":16348:16377   */\n      tag_117\n      jump\t// in\n    tag_281:\n        /* \"#utility.yul\":16338:16346   */\n      dup2\n        /* \"#utility.yul\":16334:16378   */\n      add\n        /* \"#utility.yul\":16531:16533   */\n      0x20\n        /* \"#utility.yul\":16519:16529   */\n      dup6\n        /* \"#utility.yul\":16516:16534   */\n      lt\n        /* \"#utility.yul\":16513:16562   */\n      iszero\n      tag_282\n      jumpi\n        /* \"#utility.yul\":16552:16560   */\n      dup2\n        /* \"#utility.yul\":16537:16560   */\n      swap1\n      pop\n        /* \"#utility.yul\":16513:16562   */\n    tag_282:\n        /* \"#utility.yul\":16575:16655   */\n      tag_283\n        /* \"#utility.yul\":16631:16653   */\n      tag_284\n        /* \"#utility.yul\":16649:16652   */\n      dup6\n        /* \"#utility.yul\":16631:16653   */\n      tag_117\n      jump\t// in\n    tag_284:\n        /* \"#utility.yul\":16621:16629   */\n      dup4\n        /* \"#utility.yul\":16617:16654   */\n      add\n        /* \"#utility.yul\":16604:16615   */\n      dup3\n        /* \"#utility.yul\":16575:16655   */\n      tag_126\n      jump\t// in\n    tag_283:\n        /* \"#utility.yul\":16234:16665   */\n      pop\n      pop\n        /* \"#utility.yul\":16219:16665   */\n    tag_279:\n        /* \"#utility.yul\":16129:16672   */\n      pop\n      pop\n      pop\n      jump\t// out\n        /* \"#utility.yul\":16678:16795   */\n    tag_128:\n        /* \"#utility.yul\":16732:16740   */\n      0x00\n        /* \"#utility.yul\":16782:16787   */\n      dup3\n        /* \"#utility.yul\":16776:16780   */\n      dup3\n        /* \"#utility.yul\":16772:16788   */\n      shr\n        /* \"#utility.yul\":16751:16788   */\n      swap1\n      pop\n        /* \"#utility.yul\":16678:16795   */\n      swap3\n      swap2\n      pop\n      pop\n      jump\t// out\n        /* \"#utility.yul\":16801:16970   */\n    tag_129:\n        /* \"#utility.yul\":16845:16851   */\n      0x00\n        /* \"#utility.yul\":16878:16929   */\n      tag_287\n        /* \"#utility.yul\":16926:16927   */\n      0x00\n        /* \"#utility.yul\":16922:16928   */\n      not\n        /* \"#utility.yul\":16914:16919   */\n      dup5\n        /* \"#utility.yul\":16911:16912   */\n      0x08\n        /* \"#utility.yul\":16907:16920   */\n      mul\n        /* \"#utility.yul\":16878:16929   */\n      tag_128\n      jump\t// in\n    tag_287:\n        /* \"#utility.yul\":16874:16930   */\n      not\n        /* \"#utility.yul\":16959:16963   */\n      dup1\n        /* \"#utility.yul\":16953:16957   */\n      dup4\n        /* \"#utility.yul\":16949:16964   */\n      and\n        /* \"#utility.yul\":16939:16964   */\n      swap2\n      pop\n        /* \"#utility.yul\":16852:16970   */\n      pop\n        /* \"#utility.yul\":16801:16970   */\n      swap3\n      swap2\n      pop\n      pop\n      jump\t// out\n        /* \"#utility.yul\":16975:17270   */\n    tag_130:\n        /* \"#utility.yul\":17051:17055   */\n      0x00\n        /* \"#utility.yul\":17197:17226   */\n      tag_289\n        /* \"#utility.yul\":17222:17225   */\n      dup4\n        /* \"#utility.yul\":17216:17220   */\n      dup4\n        /* \"#utility.yul\":17197:17226   */\n      tag_129\n      jump\t// in\n    tag_289:\n        /* \"#utility.yul\":17189:17226   */\n      swap2\n      pop\n        /* \"#utility.yul\":17259:17262   */\n      dup3\n        /* \"#utility.yul\":17256:17257   */\n      0x02\n        /* \"#utility.yul\":17252:17263   */\n      mul\n        /* \"#utility.yul\":17246:17250   */\n      dup3\n        /* \"#utility.yul\":17243:17264   */\n      or\n        /* \"#utility.yul\":17235:17264   */\n      swap1\n      pop\n        /* \"#utility.yul\":16975:17270   */\n      swap3\n      swap2\n      pop\n      pop\n      jump\t// out\n        /* \"#utility.yul\":17275:18670   */\n    tag_45:\n        /* \"#utility.yul\":17392:17429   */\n      tag_291\n        /* \"#utility.yul\":17425:17428   */\n      dup3\n        /* \"#utility.yul\":17392:17429   */\n      tag_92\n      jump\t// in\n    tag_291:\n        /* \"#utility.yul\":17494:17512   */\n      0xffffffffffffffff\n        /* \"#utility.yul\":17486:17492   */\n      dup2\n        /* \"#utility.yul\":17483:17513   */\n      gt\n        /* \"#utility.yul\":17480:17536   */\n      iszero\n      tag_292\n      jumpi\n        /* \"#utility.yul\":17516:17534   */\n      tag_293\n      tag_114\n      jump\t// in\n    tag_293:\n        /* \"#utility.yul\":17480:17536   */\n    tag_292:\n        /* \"#utility.yul\":17560:17598   */\n      tag_294\n        /* \"#utility.yul\":17592:17596   */\n      dup3\n        /* \"#utility.yul\":17586:17597   */\n      sload\n        /* \"#utility.yul\":17560:17598   */\n      tag_55\n      jump\t// in\n    tag_294:\n        /* \"#utility.yul\":17645:17712   */\n      tag_295\n        /* \"#utility.yul\":17705:17711   */\n      dup3\n        /* \"#utility.yul\":17697:17703   */\n      dup3\n        /* \"#utility.yul\":17691:17695   */\n      dup6\n        /* \"#utility.yul\":17645:17712   */\n      tag_127\n      jump\t// in\n    tag_295:\n        /* \"#utility.yul\":17739:17740   */\n      0x00\n        /* \"#utility.yul\":17763:17767   */\n      0x20\n        /* \"#utility.yul\":17750:17767   */\n      swap1\n      pop\n        /* \"#utility.yul\":17795:17797   */\n      0x1f\n        /* \"#utility.yul\":17787:17793   */\n      dup4\n        /* \"#utility.yul\":17784:17798   */\n      gt\n        /* \"#utility.yul\":17812:17813   */\n      0x01\n        /* \"#utility.yul\":17807:18425   */\n      dup2\n      eq\n      tag_297\n      jumpi\n        /* \"#utility.yul\":18469:18470   */\n      0x00\n        /* \"#utility.yul\":18486:18492   */\n      dup5\n        /* \"#utility.yul\":18483:18560   */\n      iszero\n      tag_298\n      jumpi\n        /* \"#utility.yul\":18535:18544   */\n      dup3\n        /* \"#utility.yul\":18530:18533   */\n      dup8\n        /* \"#utility.yul\":18526:18545   */\n      add\n        /* \"#utility.yul\":18520:18546   */\n      mload\n        /* \"#utility.yul\":18511:18546   */\n      swap1\n      pop\n        /* \"#utility.yul\":18483:18560   */\n    tag_298:\n        /* \"#utility.yul\":18586:18653   */\n      tag_299\n        /* \"#utility.yul\":18646:18652   */\n      dup6\n        /* \"#utility.yul\":18639:18644   */\n      dup3\n        /* \"#utility.yul\":18586:18653   */\n      tag_130\n      jump\t// in\n    tag_299:\n        /* \"#utility.yul\":18580:18584   */\n      dup7\n        /* \"#utility.yul\":18573:18654   */\n      sstore\n        /* \"#utility.yul\":18442:18664   */\n      pop\n        /* \"#utility.yul\":17777:18664   */\n      jump(tag_296)\n        /* \"#utility.yul\":17807:18425   */\n    tag_297:\n        /* \"#utility.yul\":17859:17863   */\n      0x1f\n        /* \"#utility.yul\":17855:17864   */\n      not\n        /* \"#utility.yul\":17847:17853   */\n      dup5\n        /* \"#utility.yul\":17843:17865   */\n      and\n        /* \"#utility.yul\":17893:17930   */\n      tag_300\n        /* \"#utility.yul\":17925:17929   */\n      dup7\n        /* \"#utility.yul\":17893:17930   */\n      tag_116\n      jump\t// in\n    tag_300:\n        /* \"#utility.yul\":17952:17953   */\n      0x00\n        /* \"#utility.yul\":17966:18174   */\n    tag_301:\n        /* \"#utility.yul\":17980:17987   */\n      dup3\n        /* \"#utility.yul\":17977:17978   */\n      dup2\n        /* \"#utility.yul\":17974:17988   */\n      lt\n        /* \"#utility.yul\":17966:18174   */\n      iszero\n      tag_303\n      jumpi\n        /* \"#utility.yul\":18059:18068   */\n      dup5\n        /* \"#utility.yul\":18054:18057   */\n      dup10\n        /* \"#utility.yul\":18050:18069   */\n      add\n        /* \"#utility.yul\":18044:18070   */\n      mload\n        /* \"#utility.yul\":18036:18042   */\n      dup3\n        /* \"#utility.yul\":18029:18071   */\n      sstore\n        /* \"#utility.yul\":18110:18111   */\n      0x01\n        /* \"#utility.yul\":18102:18108   */\n      dup3\n        /* \"#utility.yul\":18098:18112   */\n      add\n        /* \"#utility.yul\":18088:18112   */\n      swap2\n      pop\n        /* \"#utility.yul\":18157:18159   */\n      0x20\n        /* \"#utility.yul\":18146:18155   */\n      dup6\n        /* \"#utility.yul\":18142:18160   */\n      add\n        /* \"#utility.yul\":18129:18160   */\n      swap5\n      pop\n        /* \"#utility.yul\":18003:18007   */\n      0x20\n        /* \"#utility.yul\":18000:18001   */\n      dup2\n        /* \"#utility.yul\":17996:18008   */\n      add\n        /* \"#utility.yul\":17991:18008   */\n      swap1\n      pop\n        /* \"#utility.yul\":17966:18174   */\n      jump(tag_301)\n    tag_303:\n        /* \"#utility.yul\":18202:18208   */\n      dup7\n        /* \"#utility.yul\":18193:18200   */\n      dup4\n        /* \"#utility.yul\":18190:18209   */\n      lt\n        /* \"#utility.yul\":18187:18366   */\n      iszero\n      tag_304\n      jumpi\n        /* \"#utility.yul\":18260:18269   */\n      dup5\n        /* \"#utility.yul\":18255:18258   */\n      dup10\n        /* \"#utility.yul\":18251:18270   */\n      add\n        /* \"#utility.yul\":18245:18271   */\n      mload\n        /* \"#utility.yul\":18303:18351   */\n      tag_305\n        /* \"#utility.yul\":18345:18349   */\n      0x1f\n        /* \"#utility.yul\":18337:18343   */\n      dup10\n        /* \"#utility.yul\":18333:18350   */\n      and\n        /* \"#utility.yul\":18322:18331   */\n      dup3\n        /* \"#utility.yul\":18303:18351   */\n      tag_129\n      jump\t// in\n    tag_305:\n        /* \"#utility.yul\":18295:18301   */\n      dup4\n        /* \"#utility.yul\":18288:18352   */\n      sstore\n        /* \"#utility.yul\":18210:18366   */\n      pop\n        /* \"#utility.yul\":18187:18366   */\n    tag_304:\n        /* \"#utility.yul\":18412:18413   */\n      0x01\n        /* \"#utility.yul\":18408:18409   */\n      0x02\n        /* \"#utility.yul\":18400:18406   */\n      dup9\n        /* \"#utility.yul\":18396:18410   */\n      mul\n        /* \"#utility.yul\":18392:18414   */\n      add\n        /* \"#utility.yul\":18386:18390   */\n      dup9\n        /* \"#utility.yul\":18379:18415   */\n      sstore\n        /* \"#utility.yul\":17814:18425   */\n      pop\n      pop\n      pop\n        /* \"#utility.yul\":17777:18664   */\n    tag_296:\n      pop\n        /* \"#utility.yul\":17367:18670   */\n      pop\n      pop\n      pop\n        /* \"#utility.yul\":17275:18670   */\n      pop\n      pop\n      jump\t// out\n        /* \"#utility.yul\":18676:19053   */\n    tag_131:\n        /* \"#utility.yul\":18764:18767   */\n      0x00\n        /* \"#utility.yul\":18792:18831   */\n      tag_307\n        /* \"#utility.yul\":18825:18830   */\n      dup3\n        /* \"#utility.yul\":18792:18831   */\n      tag_92\n      jump\t// in\n    tag_307:\n        /* \"#utility.yul\":18847:18918   */\n      tag_308\n        /* \"#utility.yul\":18911:18917   */\n      dup2\n        /* \"#utility.yul\":18906:18909   */\n      dup6\n        /* \"#utility.yul\":18847:18918   */\n      tag_107\n      jump\t// in\n    tag_308:\n        /* \"#utility.yul\":18840:18918   */\n      swap4\n      pop\n        /* \"#utility.yul\":18927:18992   */\n      tag_309\n        /* \"#utility.yul\":18985:18991   */\n      dup2\n        /* \"#utility.yul\":18980:18983   */\n      dup6\n        /* \"#utility.yul\":18973:18977   */\n      0x20\n        /* \"#utility.yul\":18966:18971   */\n      dup7\n        /* \"#utility.yul\":18962:18978   */\n      add\n        /* \"#utility.yul\":18927:18992   */\n      tag_94\n      jump\t// in\n    tag_309:\n        /* \"#utility.yul\":19017:19046   */\n      tag_310\n        /* \"#utility.yul\":19039:19045   */\n      dup2\n        /* \"#utility.yul\":19017:19046   */\n      tag_95\n      jump\t// in\n    tag_310:\n        /* \"#utility.yul\":19012:19015   */\n      dup5\n        /* \"#utility.yul\":19008:19047   */\n      add\n        /* \"#utility.yul\":19001:19047   */\n      swap2\n      pop\n        /* \"#utility.yul\":18768:19053   */\n      pop\n        /* \"#utility.yul\":18676:19053   */\n      swap3\n      swap2\n      pop\n      pop\n      jump\t// out\n        /* \"#utility.yul\":19059:19482   */\n    tag_49:\n        /* \"#utility.yul\":19200:19204   */\n      0x00\n        /* \"#utility.yul\":19238:19240   */\n      0x40\n        /* \"#utility.yul\":19227:19236   */\n      dup3\n        /* \"#utility.yul\":19223:19241   */\n      add\n        /* \"#utility.yul\":19215:19241   */\n      swap1\n      pop\n        /* \"#utility.yul\":19287:19296   */\n      dup2\n        /* \"#utility.yul\":19281:19285   */\n      dup2\n        /* \"#utility.yul\":19277:19297   */\n      sub\n        /* \"#utility.yul\":19273:19274   */\n      0x00\n        /* \"#utility.yul\":19262:19271   */\n      dup4\n        /* \"#utility.yul\":19258:19275   */\n      add\n        /* \"#utility.yul\":19251:19298   */\n      mstore\n        /* \"#utility.yul\":19315:19393   */\n      tag_312\n        /* \"#utility.yul\":19388:19392   */\n      dup2\n        /* \"#utility.yul\":19379:19385   */\n      dup6\n        /* \"#utility.yul\":19315:19393   */\n      tag_131\n      jump\t// in\n    tag_312:\n        /* \"#utility.yul\":19307:19393   */\n      swap1\n      pop\n        /* \"#utility.yul\":19403:19475   */\n      tag_313\n        /* \"#utility.yul\":19471:19473   */\n      0x20\n        /* \"#utility.yul\":19460:19469   */\n      dup4\n        /* \"#utility.yul\":19456:19474   */\n      add\n        /* \"#utility.yul\":19447:19453   */\n      dup5\n        /* \"#utility.yul\":19403:19475   */\n      tag_106\n      jump\t// in\n    tag_313:\n        /* \"#utility.yul\":19059:19482   */\n      swap4\n      swap3\n      pop\n      pop\n      pop\n      jump\t// out\n        /* \"#utility.yul\":19488:19659   */\n    tag_132:\n        /* \"#utility.yul\":19628:19651   */\n      0x496e646963652066756572612064652072616e676f0000000000000000000000\n        /* \"#utility.yul\":19624:19625   */\n      0x00\n        /* \"#utility.yul\":19616:19622   */\n      dup3\n        /* \"#utility.yul\":19612:19626   */\n      add\n        /* \"#utility.yul\":19605:19652   */\n      mstore\n        /* \"#utility.yul\":19488:19659   */\n      pop\n      jump\t// out\n        /* \"#utility.yul\":19665:20031   */\n    tag_133:\n        /* \"#utility.yul\":19807:19810   */\n      0x00\n        /* \"#utility.yul\":19828:19895   */\n      tag_316\n        /* \"#utility.yul\":19892:19894   */\n      0x15\n        /* \"#utility.yul\":19887:19890   */\n      dup4\n        /* \"#utility.yul\":19828:19895   */\n      tag_107\n      jump\t// in\n    tag_316:\n        /* \"#utility.yul\":19821:19895   */\n      swap2\n      pop\n        /* \"#utility.yul\":19904:19997   */\n      tag_317\n        /* \"#utility.yul\":19993:19996   */\n      dup3\n        /* \"#utility.yul\":19904:19997   */\n      tag_132\n      jump\t// in\n    tag_317:\n        /* \"#utility.yul\":20022:20024   */\n      0x20\n        /* \"#utility.yul\":20017:20020   */\n      dup3\n        /* \"#utility.yul\":20013:20025   */\n      add\n        /* \"#utility.yul\":20006:20025   */\n      swap1\n      pop\n        /* \"#utility.yul\":19665:20031   */\n      swap2\n      swap1\n      pop\n      jump\t// out\n        /* \"#utility.yul\":20037:20456   */\n    tag_65:\n        /* \"#utility.yul\":20203:20207   */\n      0x00\n        /* \"#utility.yul\":20241:20243   */\n      0x20\n        /* \"#utility.yul\":20230:20239   */\n      dup3\n        /* \"#utility.yul\":20226:20244   */\n      add\n        /* \"#utility.yul\":20218:20244   */\n      swap1\n      pop\n        /* \"#utility.yul\":20290:20299   */\n      dup2\n        /* \"#utility.yul\":20284:20288   */\n      dup2\n        /* \"#utility.yul\":20280:20300   */\n      sub\n        /* \"#utility.yul\":20276:20277   */\n      0x00\n        /* \"#utility.yul\":20265:20274   */\n      dup4\n        /* \"#utility.yul\":20261:20278   */\n      add\n        /* \"#utility.yul\":20254:20301   */\n      mstore\n        /* \"#utility.yul\":20318:20449   */\n      tag_319\n        /* \"#utility.yul\":20444:20448   */\n      dup2\n        /* \"#utility.yul\":20318:20449   */\n      tag_133\n      jump\t// in\n    tag_319:\n        /* \"#utility.yul\":20310:20449   */\n      swap1\n      pop\n        /* \"#utility.yul\":20037:20456   */\n      swap2\n      swap1\n      pop\n      jump\t// out\n        /* \"#utility.yul\":20462:20642   */\n    tag_68:\n        /* \"#utility.yul\":20510:20587   */\n      0x4e487b7100000000000000000000000000000000000000000000000000000000\n        /* \"#utility.yul\":20507:20508   */\n      0x00\n        /* \"#utility.yul\":20500:20588   */\n      mstore\n        /* \"#utility.yul\":20607:20611   */\n      0x32\n        /* \"#utility.yul\":20604:20605   */\n      0x04\n        /* \"#utility.yul\":20597:20612   */\n      mstore\n        /* \"#utility.yul\":20631:20635   */\n      0x24\n        /* \"#utility.yul\":20628:20629   */\n      0x00\n        /* \"#utility.yul\":20621:20636   */\n      revert\n\n    auxdata: 0xa2646970667358221220eb3ac3252a555a1c4dc83a04d6bb136d3d79bd70c3dc58142a6ac3d2c3d0688964736f6c634300081e0033\n}\n",
				"bytecode": {
					"linkReferences": {},
					"object": "6080604052348015600e575f5ffd5b50335f5f6101000a81548173ffffffffffffffffffffffffffffffffffffffff021916908373ffffffffffffffffffffffffffffffffffffffff1602179055506113cb8061005b5f395ff3fe608060405234801561000f575f5ffd5b5060043610610055575f3560e01c80633c4f81cd146100595780637aa361c814610077578063a716ce5214610093578063e9051fa0146100b1578063eb25f188146100e1575b5f5ffd5b610061610111565b60405161006e9190610a1d565b60405180910390f35b610091600480360381019061008c9190610ac9565b610135565b005b61009b61056a565b6040516100a89190610cd8565b60405180910390f35b6100cb60048036038101906100c69190610d22565b610709565b6040516100d89190610dc0565b60405180910390f35b6100fb60048036038101906100f69190610de0565b610944565b6040516101089190610e1a565b60405180910390f35b5f5f9054906101000a900473ffffffffffffffffffffffffffffffffffffffff1681565b5f5f9054906101000a900473ffffffffffffffffffffffffffffffffffffffff1673ffffffffffffffffffffffffffffffffffffffff163373ffffffffffffffffffffffffffffffffffffffff16146101c3576040517f08c379a00000000000000000000000000000000000000000000000000000000081526004016101ba90610eb3565b60405180910390fd5b5f73ffffffffffffffffffffffffffffffffffffffff168373ffffffffffffffffffffffffffffffffffffffff1603610231576040517f08c379a000000000000000000000000000000000000000000000000000000000815260040161022890610f1b565b60405180910390fd5b5f8282905011610276576040517f08c379a000000000000000000000000000000000000000000000000000000000815260040161026d90610f83565b60405180910390fd5b5f60405180608001604052803373ffffffffffffffffffffffffffffffffffffffff1681526020018573ffffffffffffffffffffffffffffffffffffffff16815260200184848080601f0160208091040260200160405190810160405280939291908181526020018383808284375f81840152601f19601f82011690508083019250505050505050815260200142815250905060015f8573ffffffffffffffffffffffffffffffffffffffff1673ffffffffffffffffffffffffffffffffffffffff1681526020019081526020015f2081908060018154018082558091505060019003905f5260205f2090600402015f909190919091505f820151815f015f6101000a81548173ffffffffffffffffffffffffffffffffffffffff021916908373ffffffffffffffffffffffffffffffffffffffff1602179055506020820151816001015f6101000a81548173ffffffffffffffffffffffffffffffffffffffff021916908373ffffffffffffffffffffffffffffffffffffffff160217905550604082015181600201908161040c91906111cb565b50606082015181600301555050600281908060018154018082558091505060019003905f5260205f2090600402015f909190919091505f820151815f015f6101000a81548173ffffffffffffffffffffffffffffffffffffffff021916908373ffffffffffffffffffffffffffffffffffffffff1602179055506020820151816001015f6101000a81548173ffffffffffffffffffffffffffffffffffffffff021916908373ffffffffffffffffffffffffffffffffffffffff16021790555060408201518160020190816104e191906111cb565b50606082015181600301555050806020015173ffffffffffffffffffffffffffffffffffffffff16815f015173ffffffffffffffffffffffffffffffffffffffff167f548510cce09773bc99aa548269c8027f90df95fe99a95c47000e048a4f31e4dc8360400151846060015160405161055c9291906112d2565b60405180910390a350505050565b60606002805480602002602001604051908101604052809291908181526020015f905b82821015610700578382905f5260205f2090600402016040518060800160405290815f82015f9054906101000a900473ffffffffffffffffffffffffffffffffffffffff1673ffffffffffffffffffffffffffffffffffffffff1673ffffffffffffffffffffffffffffffffffffffff168152602001600182015f9054906101000a900473ffffffffffffffffffffffffffffffffffffffff1673ffffffffffffffffffffffffffffffffffffffff1673ffffffffffffffffffffffffffffffffffffffff16815260200160028201805461066790610ffb565b80601f016020809104026020016040519081016040528092919081815260200182805461069390610ffb565b80156106de5780601f106106b5576101008083540402835291602001916106de565b820191905f5260205f20905b8154815290600101906020018083116106c157829003601f168201915b505050505081526020016003820154815250508152602001906001019061058d565b50505050905090565b61071161098d565b60015f8473ffffffffffffffffffffffffffffffffffffffff1673ffffffffffffffffffffffffffffffffffffffff1681526020019081526020015f20805490508210610793576040517f08c379a000000000000000000000000000000000000000000000000000000000815260040161078a9061134a565b60405180910390fd5b60015f8473ffffffffffffffffffffffffffffffffffffffff1673ffffffffffffffffffffffffffffffffffffffff1681526020019081526020015f2082815481106107e2576107e1611368565b5b905f5260205f2090600402016040518060800160405290815f82015f9054906101000a900473ffffffffffffffffffffffffffffffffffffffff1673ffffffffffffffffffffffffffffffffffffffff1673ffffffffffffffffffffffffffffffffffffffff168152602001600182015f9054906101000a900473ffffffffffffffffffffffffffffffffffffffff1673ffffffffffffffffffffffffffffffffffffffff1673ffffffffffffffffffffffffffffffffffffffff1681526020016002820180546108b290610ffb565b80601f01602080910402602001604051908101604052809291908181526020018280546108de90610ffb565b80156109295780601f1061090057610100808354040283529160200191610929565b820191905f5260205f20905b81548152906001019060200180831161090c57829003601f168201915b50505050508152602001600382015481525050905092915050565b5f60015f8373ffffffffffffffffffffffffffffffffffffffff1673ffffffffffffffffffffffffffffffffffffffff1681526020019081526020015f20805490509050919050565b60405180608001604052805f73ffffffffffffffffffffffffffffffffffffffff1681526020015f73ffffffffffffffffffffffffffffffffffffffff168152602001606081526020015f81525090565b5f73ffffffffffffffffffffffffffffffffffffffff82169050919050565b5f610a07826109de565b9050919050565b610a17816109fd565b82525050565b5f602082019050610a305f830184610a0e565b92915050565b5f5ffd5b5f5ffd5b610a47816109fd565b8114610a51575f5ffd5b50565b5f81359050610a6281610a3e565b92915050565b5f5ffd5b5f5ffd5b5f5ffd5b5f5f83601f840112610a8957610a88610a68565b5b8235905067ffffffffffffffff811115610aa657610aa5610a6c565b5b602083019150836001820283011115610ac257610ac1610a70565b5b9250929050565b5f5f5f60408486031215610ae057610adf610a36565b5b5f610aed86828701610a54565b935050602084013567ffffffffffffffff811115610b0e57610b0d610a3a565b5b610b1a86828701610a74565b92509250509250925092565b5f81519050919050565b5f82825260208201905092915050565b5f819050602082019050919050565b610b58816109fd565b82525050565b5f81519050919050565b5f82825260208201905092915050565b8281835e5f83830152505050565b5f601f19601f8301169050919050565b5f610ba082610b5e565b610baa8185610b68565b9350610bba818560208601610b78565b610bc381610b86565b840191505092915050565b5f819050919050565b610be081610bce565b82525050565b5f608083015f830151610bfb5f860182610b4f565b506020830151610c0e6020860182610b4f565b5060408301518482036040860152610c268282610b96565b9150506060830151610c3b6060860182610bd7565b508091505092915050565b5f610c518383610be6565b905092915050565b5f602082019050919050565b5f610c6f82610b26565b610c798185610b30565b935083602082028501610c8b85610b40565b805f5b85811015610cc65784840389528151610ca78582610c46565b9450610cb283610c59565b925060208a01995050600181019050610c8e565b50829750879550505050505092915050565b5f6020820190508181035f830152610cf08184610c65565b905092915050565b610d0181610bce565b8114610d0b575f5ffd5b50565b5f81359050610d1c81610cf8565b92915050565b5f5f60408385031215610d3857610d37610a36565b5b5f610d4585828601610a54565b9250506020610d5685828601610d0e565b9150509250929050565b5f608083015f830151610d755f860182610b4f565b506020830151610d886020860182610b4f565b5060408301518482036040860152610da08282610b96565b9150506060830151610db56060860182610bd7565b508091505092915050565b5f6020820190508181035f830152610dd88184610d60565b905092915050565b5f60208284031215610df557610df4610a36565b5b5f610e0284828501610a54565b91505092915050565b610e1481610bce565b82525050565b5f602082019050610e2d5f830184610e0b565b92915050565b5f82825260208201905092915050565b7f536f6c6f20656c2070726f706965746172696f20707565646520656e766961725f8201527f206d656e73616a65730000000000000000000000000000000000000000000000602082015250565b5f610e9d602983610e33565b9150610ea882610e43565b604082019050919050565b5f6020820190508181035f830152610eca81610e91565b9050919050565b7f446972656363696f6e2064657374696e6f20696e76616c6964610000000000005f82015250565b5f610f05601a83610e33565b9150610f1082610ed1565b602082019050919050565b5f6020820190508181035f830152610f3281610ef9565b9050919050565b7f456c206d656e73616a65206e6f20707565646520657374617220766163696f005f82015250565b5f610f6d601f83610e33565b9150610f7882610f39565b602082019050919050565b5f6020820190508181035f830152610f9a81610f61565b9050919050565b7f4e487b71000000000000000000000000000000000000000000000000000000005f52604160045260245ffd5b7f4e487b71000000000000000000000000000000000000000000000000000000005f52602260045260245ffd5b5f600282049050600182168061101257607f821691505b60208210810361102557611024610fce565b5b50919050565b5f819050815f5260205f209050919050565b5f6020601f8301049050919050565b5f82821b905092915050565b5f600883026110877fffffffffffffffffffffffffffffffffffffffffffffffffffffffffffffffff8261104c565b611091868361104c565b95508019841693508086168417925050509392505050565b5f819050919050565b5f6110cc6110c76110c284610bce565b6110a9565b610bce565b9050919050565b5f819050919050565b6110e5836110b2565b6110f96110f1826110d3565b848454611058565b825550505050565b5f5f905090565b611110611101565b61111b8184846110dc565b505050565b5b8181101561113e576111335f82611108565b600181019050611121565b5050565b601f821115611183576111548161102b565b61115d8461103d565b8101602085101561116c578190505b6111806111788561103d565b830182611120565b50505b505050565b5f82821c905092915050565b5f6111a35f1984600802611188565b1980831691505092915050565b5f6111bb8383611194565b9150826002028217905092915050565b6111d482610b5e565b67ffffffffffffffff8111156111ed576111ec610fa1565b5b6111f78254610ffb565b611202828285611142565b5f60209050601f831160018114611233575f8415611221578287015190505b61122b85826111b0565b865550611292565b601f1984166112418661102b565b5f5b8281101561126857848901518255600182019150602085019450602081019050611243565b868310156112855784890151611281601f891682611194565b8355505b6001600288020188555050505b505050505050565b5f6112a482610b5e565b6112ae8185610e33565b93506112be818560208601610b78565b6112c781610b86565b840191505092915050565b5f6040820190508181035f8301526112ea818561129a565b90506112f96020830184610e0b565b9392505050565b7f496e646963652066756572612064652072616e676f00000000000000000000005f82015250565b5f611334601583610e33565b915061133f82611300565b602082019050919050565b5f6020820190508181035f83015261136181611328565b9050919050565b7f4e487b71000000000000000000000000000000000000000000000000000000005f52603260045260245ffdfea2646970667358221220eb3ac3252a555a1c4dc83a04d6bb136d3d79bd70c3dc58142a6ac3d2c3d0688964736f6c634300081e0033",
					"opcodes": "PUSH1 0x80 PUSH1 0x40 MSTORE CALLVALUE DUP1 ISZERO PUSH1 0xE JUMPI PUSH0 PUSH0 REVERT JUMPDEST POP CALLER PUSH0 PUSH0 PUSH2 0x100 EXP DUP2 SLOAD DUP2 PUSH20 0xFFFFFFFFFFFFFFFFFFFFFFFFFFFFFFFFFFFFFFFF MUL NOT AND SWAP1 DUP4 PUSH20 0xFFFFFFFFFFFFFFFFFFFFFFFFFFFFFFFFFFFFFFFF AND MUL OR SWAP1 SSTORE POP PUSH2 0x13CB DUP1 PUSH2 0x5B PUSH0 CODECOPY PUSH0 RETURN INVALID PUSH1 0x80 PUSH1 0x40 MSTORE CALLVALUE DUP1 ISZERO PUSH2 0xF JUMPI PUSH0 PUSH0 REVERT JUMPDEST POP PUSH1 0x4 CALLDATASIZE LT PUSH2 0x55 JUMPI PUSH0 CALLDATALOAD PUSH1 0xE0 SHR DUP1 PUSH4 0x3C4F81CD EQ PUSH2 0x59 JUMPI DUP1 PUSH4 0x7AA361C8 EQ PUSH2 0x77 JUMPI DUP1 PUSH4 0xA716CE52 EQ PUSH2 0x93 JUMPI DUP1 PUSH4 0xE9051FA0 EQ PUSH2 0xB1 JUMPI DUP1 PUSH4 0xEB25F188 EQ PUSH2 0xE1 JUMPI JUMPDEST PUSH0 PUSH0 REVERT JUMPDEST PUSH2 0x61 PUSH2 0x111 JUMP JUMPDEST PUSH1 0x40 MLOAD PUSH2 0x6E SWAP2 SWAP1 PUSH2 0xA1D JUMP JUMPDEST PUSH1 0x40 MLOAD DUP1 SWAP2 SUB SWAP1 RETURN JUMPDEST PUSH2 0x91 PUSH1 0x4 DUP1 CALLDATASIZE SUB DUP2 ADD SWAP1 PUSH2 0x8C SWAP2 SWAP1 PUSH2 0xAC9 JUMP JUMPDEST PUSH2 0x135 JUMP JUMPDEST STOP JUMPDEST PUSH2 0x9B PUSH2 0x56A JUMP JUMPDEST PUSH1 0x40 MLOAD PUSH2 0xA8 SWAP2 SWAP1 PUSH2 0xCD8 JUMP JUMPDEST PUSH1 0x40 MLOAD DUP1 SWAP2 SUB SWAP1 RETURN JUMPDEST PUSH2 0xCB PUSH1 0x4 DUP1 CALLDATASIZE SUB DUP2 ADD SWAP1 PUSH2 0xC6 SWAP2 SWAP1 PUSH2 0xD22 JUMP JUMPDEST PUSH2 0x709 JUMP JUMPDEST PUSH1 0x40 MLOAD PUSH2 0xD8 SWAP2 SWAP1 PUSH2 0xDC0 JUMP JUMPDEST PUSH1 0x40 MLOAD DUP1 SWAP2 SUB SWAP1 RETURN JUMPDEST PUSH2 0xFB PUSH1 0x4 DUP1 CALLDATASIZE SUB DUP2 ADD SWAP1 PUSH2 0xF6 SWAP2 SWAP1 PUSH2 0xDE0 JUMP JUMPDEST PUSH2 0x944 JUMP JUMPDEST PUSH1 0x40 MLOAD PUSH2 0x108 SWAP2 SWAP1 PUSH2 0xE1A JUMP JUMPDEST PUSH1 0x40 MLOAD DUP1 SWAP2 SUB SWAP1 RETURN JUMPDEST PUSH0 PUSH0 SWAP1 SLOAD SWAP1 PUSH2 0x100 EXP SWAP1 DIV PUSH20 0xFFFFFFFFFFFFFFFFFFFFFFFFFFFFFFFFFFFFFFFF AND DUP2 JUMP JUMPDEST PUSH0 PUSH0 SWAP1 SLOAD SWAP1 PUSH2 0x100 EXP SWAP1 DIV PUSH20 0xFFFFFFFFFFFFFFFFFFFFFFFFFFFFFFFFFFFFFFFF AND PUSH20 0xFFFFFFFFFFFFFFFFFFFFFFFFFFFFFFFFFFFFFFFF AND CALLER PUSH20 0xFFFFFFFFFFFFFFFFFFFFFFFFFFFFFFFFFFFFFFFF AND EQ PUSH2 0x1C3 JUMPI PUSH1 0x40 MLOAD PUSH32 0x8C379A000000000000000000000000000000000000000000000000000000000 DUP2 MSTORE PUSH1 0x4 ADD PUSH2 0x1BA SWAP1 PUSH2 0xEB3 JUMP JUMPDEST PUSH1 0x40 MLOAD DUP1 SWAP2 SUB SWAP1 REVERT JUMPDEST PUSH0 PUSH20 0xFFFFFFFFFFFFFFFFFFFFFFFFFFFFFFFFFFFFFFFF AND DUP4 PUSH20 0xFFFFFFFFFFFFFFFFFFFFFFFFFFFFFFFFFFFFFFFF AND SUB PUSH2 0x231 JUMPI PUSH1 0x40 MLOAD PUSH32 0x8C379A000000000000000000000000000000000000000000000000000000000 DUP2 MSTORE PUSH1 0x4 ADD PUSH2 0x228 SWAP1 PUSH2 0xF1B JUMP JUMPDEST PUSH1 0x40 MLOAD DUP1 SWAP2 SUB SWAP1 REVERT JUMPDEST PUSH0 DUP3 DUP3 SWAP1 POP GT PUSH2 0x276 JUMPI PUSH1 0x40 MLOAD PUSH32 0x8C379A000000000000000000000000000000000000000000000000000000000 DUP2 MSTORE PUSH1 0x4 ADD PUSH2 0x26D SWAP1 PUSH2 0xF83 JUMP JUMPDEST PUSH1 0x40 MLOAD DUP1 SWAP2 SUB SWAP1 REVERT JUMPDEST PUSH0 PUSH1 0x40 MLOAD DUP1 PUSH1 0x80 ADD PUSH1 0x40 MSTORE DUP1 CALLER PUSH20 0xFFFFFFFFFFFFFFFFFFFFFFFFFFFFFFFFFFFFFFFF AND DUP2 MSTORE PUSH1 0x20 ADD DUP6 PUSH20 0xFFFFFFFFFFFFFFFFFFFFFFFFFFFFFFFFFFFFFFFF AND DUP2 MSTORE PUSH1 0x20 ADD DUP5 DUP5 DUP1 DUP1 PUSH1 0x1F ADD PUSH1 0x20 DUP1 SWAP2 DIV MUL PUSH1 0x20 ADD PUSH1 0x40 MLOAD SWAP1 DUP2 ADD PUSH1 0x40 MSTORE DUP1 SWAP4 SWAP3 SWAP2 SWAP1 DUP2 DUP2 MSTORE PUSH1 0x20 ADD DUP4 DUP4 DUP1 DUP3 DUP5 CALLDATACOPY PUSH0 DUP2 DUP5 ADD MSTORE PUSH1 0x1F NOT PUSH1 0x1F DUP3 ADD AND SWAP1 POP DUP1 DUP4 ADD SWAP3 POP POP POP POP POP POP POP DUP2 MSTORE PUSH1 0x20 ADD TIMESTAMP DUP2 MSTORE POP SWAP1 POP PUSH1 0x1 PUSH0 DUP6 PUSH20 0xFFFFFFFFFFFFFFFFFFFFFFFFFFFFFFFFFFFFFFFF AND PUSH20 0xFFFFFFFFFFFFFFFFFFFFFFFFFFFFFFFFFFFFFFFF AND DUP2 MSTORE PUSH1 0x20 ADD SWAP1 DUP2 MSTORE PUSH1 0x20 ADD PUSH0 KECCAK256 DUP2 SWAP1 DUP1 PUSH1 0x1 DUP2 SLOAD ADD DUP1 DUP3 SSTORE DUP1 SWAP2 POP POP PUSH1 0x1 SWAP1 SUB SWAP1 PUSH0 MSTORE PUSH1 0x20 PUSH0 KECCAK256 SWAP1 PUSH1 0x4 MUL ADD PUSH0 SWAP1 SWAP2 SWAP1 SWAP2 SWAP1 SWAP2 POP PUSH0 DUP3 ADD MLOAD DUP2 PUSH0 ADD PUSH0 PUSH2 0x100 EXP DUP2 SLOAD DUP2 PUSH20 0xFFFFFFFFFFFFFFFFFFFFFFFFFFFFFFFFFFFFFFFF MUL NOT AND SWAP1 DUP4 PUSH20 0xFFFFFFFFFFFFFFFFFFFFFFFFFFFFFFFFFFFFFFFF AND MUL OR SWAP1 SSTORE POP PUSH1 0x20 DUP3 ADD MLOAD DUP2 PUSH1 0x1 ADD PUSH0 PUSH2 0x100 EXP DUP2 SLOAD DUP2 PUSH20 0xFFFFFFFFFFFFFFFFFFFFFFFFFFFFFFFFFFFFFFFF MUL NOT AND SWAP1 DUP4 PUSH20 0xFFFFFFFFFFFFFFFFFFFFFFFFFFFFFFFFFFFFFFFF AND MUL OR SWAP1 SSTORE POP PUSH1 0x40 DUP3 ADD MLOAD DUP2 PUSH1 0x2 ADD SWAP1 DUP2 PUSH2 0x40C SWAP2 SWAP1 PUSH2 0x11CB JUMP JUMPDEST POP PUSH1 0x60 DUP3 ADD MLOAD DUP2 PUSH1 0x3 ADD SSTORE POP POP PUSH1 0x2 DUP2 SWAP1 DUP1 PUSH1 0x1 DUP2 SLOAD ADD DUP1 DUP3 SSTORE DUP1 SWAP2 POP POP PUSH1 0x1 SWAP1 SUB SWAP1 PUSH0 MSTORE PUSH1 0x20 PUSH0 KECCAK256 SWAP1 PUSH1 0x4 MUL ADD PUSH0 SWAP1 SWAP2 SWAP1 SWAP2 SWAP1 SWAP2 POP PUSH0 DUP3 ADD MLOAD DUP2 PUSH0 ADD PUSH0 PUSH2 0x100 EXP DUP2 SLOAD DUP2 PUSH20 0xFFFFFFFFFFFFFFFFFFFFFFFFFFFFFFFFFFFFFFFF MUL NOT AND SWAP1 DUP4 PUSH20 0xFFFFFFFFFFFFFFFFFFFFFFFFFFFFFFFFFFFFFFFF AND MUL OR SWAP1 SSTORE POP PUSH1 0x20 DUP3 ADD MLOAD DUP2 PUSH1 0x1 ADD PUSH0 PUSH2 0x100 EXP DUP2 SLOAD DUP2 PUSH20 0xFFFFFFFFFFFFFFFFFFFFFFFFFFFFFFFFFFFFFFFF MUL NOT AND SWAP1 DUP4 PUSH20 0xFFFFFFFFFFFFFFFFFFFFFFFFFFFFFFFFFFFFFFFF AND MUL OR SWAP1 SSTORE POP PUSH1 0x40 DUP3 ADD MLOAD DUP2 PUSH1 0x2 ADD SWAP1 DUP2 PUSH2 0x4E1 SWAP2 SWAP1 PUSH2 0x11CB JUMP JUMPDEST POP PUSH1 0x60 DUP3 ADD MLOAD DUP2 PUSH1 0x3 ADD SSTORE POP POP DUP1 PUSH1 0x20 ADD MLOAD PUSH20 0xFFFFFFFFFFFFFFFFFFFFFFFFFFFFFFFFFFFFFFFF AND DUP2 PUSH0 ADD MLOAD PUSH20 0xFFFFFFFFFFFFFFFFFFFFFFFFFFFFFFFFFFFFFFFF AND PUSH32 0x548510CCE09773BC99AA548269C8027F90DF95FE99A95C47000E048A4F31E4DC DUP4 PUSH1 0x40 ADD MLOAD DUP5 PUSH1 0x60 ADD MLOAD PUSH1 0x40 MLOAD PUSH2 0x55C SWAP3 SWAP2 SWAP1 PUSH2 0x12D2 JUMP JUMPDEST PUSH1 0x40 MLOAD DUP1 SWAP2 SUB SWAP1 LOG3 POP POP POP POP JUMP JUMPDEST PUSH1 0x60 PUSH1 0x2 DUP1 SLOAD DUP1 PUSH1 0x20 MUL PUSH1 0x20 ADD PUSH1 0x40 MLOAD SWAP1 DUP2 ADD PUSH1 0x40 MSTORE DUP1 SWAP3 SWAP2 SWAP1 DUP2 DUP2 MSTORE PUSH1 0x20 ADD PUSH0 SWAP1 JUMPDEST DUP3 DUP3 LT ISZERO PUSH2 0x700 JUMPI DUP4 DUP3 SWAP1 PUSH0 MSTORE PUSH1 0x20 PUSH0 KECCAK256 SWAP1 PUSH1 0x4 MUL ADD PUSH1 0x40 MLOAD DUP1 PUSH1 0x80 ADD PUSH1 0x40 MSTORE SWAP1 DUP2 PUSH0 DUP3 ADD PUSH0 SWAP1 SLOAD SWAP1 PUSH2 0x100 EXP SWAP1 DIV PUSH20 0xFFFFFFFFFFFFFFFFFFFFFFFFFFFFFFFFFFFFFFFF AND PUSH20 0xFFFFFFFFFFFFFFFFFFFFFFFFFFFFFFFFFFFFFFFF AND PUSH20 0xFFFFFFFFFFFFFFFFFFFFFFFFFFFFFFFFFFFFFFFF AND DUP2 MSTORE PUSH1 0x20 ADD PUSH1 0x1 DUP3 ADD PUSH0 SWAP1 SLOAD SWAP1 PUSH2 0x100 EXP SWAP1 DIV PUSH20 0xFFFFFFFFFFFFFFFFFFFFFFFFFFFFFFFFFFFFFFFF AND PUSH20 0xFFFFFFFFFFFFFFFFFFFFFFFFFFFFFFFFFFFFFFFF AND PUSH20 0xFFFFFFFFFFFFFFFFFFFFFFFFFFFFFFFFFFFFFFFF AND DUP2 MSTORE PUSH1 0x20 ADD PUSH1 0x2 DUP3 ADD DUP1 SLOAD PUSH2 0x667 SWAP1 PUSH2 0xFFB JUMP JUMPDEST DUP1 PUSH1 0x1F ADD PUSH1 0x20 DUP1 SWAP2 DIV MUL PUSH1 0x20 ADD PUSH1 0x40 MLOAD SWAP1 DUP2 ADD PUSH1 0x40 MSTORE DUP1 SWAP3 SWAP2 SWAP1 DUP2 DUP2 MSTORE PUSH1 0x20 ADD DUP3 DUP1 SLOAD PUSH2 0x693 SWAP1 PUSH2 0xFFB JUMP JUMPDEST DUP1 ISZERO PUSH2 0x6DE JUMPI DUP1 PUSH1 0x1F LT PUSH2 0x6B5 JUMPI PUSH2 0x100 DUP1 DUP4 SLOAD DIV MUL DUP4 MSTORE SWAP2 PUSH1 0x20 ADD SWAP2 PUSH2 0x6DE JUMP JUMPDEST DUP3 ADD SWAP2 SWAP1 PUSH0 MSTORE PUSH1 0x20 PUSH0 KECCAK256 SWAP1 JUMPDEST DUP2 SLOAD DUP2 MSTORE SWAP1 PUSH1 0x1 ADD SWAP1 PUSH1 0x20 ADD DUP1 DUP4 GT PUSH2 0x6C1 JUMPI DUP3 SWAP1 SUB PUSH1 0x1F AND DUP3 ADD SWAP2 JUMPDEST POP POP POP POP POP DUP2 MSTORE PUSH1 0x20 ADD PUSH1 0x3 DUP3 ADD SLOAD DUP2 MSTORE POP POP DUP2 MSTORE PUSH1 0x20 ADD SWAP1 PUSH1 0x1 ADD SWAP1 PUSH2 0x58D JUMP JUMPDEST POP POP POP POP SWAP1 POP SWAP1 JUMP JUMPDEST PUSH2 0x711 PUSH2 0x98D JUMP JUMPDEST PUSH1 0x1 PUSH0 DUP5 PUSH20 0xFFFFFFFFFFFFFFFFFFFFFFFFFFFFFFFFFFFFFFFF AND PUSH20 0xFFFFFFFFFFFFFFFFFFFFFFFFFFFFFFFFFFFFFFFF AND DUP2 MSTORE PUSH1 0x20 ADD SWAP1 DUP2 MSTORE PUSH1 0x20 ADD PUSH0 KECCAK256 DUP1 SLOAD SWAP1 POP DUP3 LT PUSH2 0x793 JUMPI PUSH1 0x40 MLOAD PUSH32 0x8C379A000000000000000000000000000000000000000000000000000000000 DUP2 MSTORE PUSH1 0x4 ADD PUSH2 0x78A SWAP1 PUSH2 0x134A JUMP JUMPDEST PUSH1 0x40 MLOAD DUP1 SWAP2 SUB SWAP1 REVERT JUMPDEST PUSH1 0x1 PUSH0 DUP5 PUSH20 0xFFFFFFFFFFFFFFFFFFFFFFFFFFFFFFFFFFFFFFFF AND PUSH20 0xFFFFFFFFFFFFFFFFFFFFFFFFFFFFFFFFFFFFFFFF AND DUP2 MSTORE PUSH1 0x20 ADD SWAP1 DUP2 MSTORE PUSH1 0x20 ADD PUSH0 KECCAK256 DUP3 DUP2 SLOAD DUP2 LT PUSH2 0x7E2 JUMPI PUSH2 0x7E1 PUSH2 0x1368 JUMP JUMPDEST JUMPDEST SWAP1 PUSH0 MSTORE PUSH1 0x20 PUSH0 KECCAK256 SWAP1 PUSH1 0x4 MUL ADD PUSH1 0x40 MLOAD DUP1 PUSH1 0x80 ADD PUSH1 0x40 MSTORE SWAP1 DUP2 PUSH0 DUP3 ADD PUSH0 SWAP1 SLOAD SWAP1 PUSH2 0x100 EXP SWAP1 DIV PUSH20 0xFFFFFFFFFFFFFFFFFFFFFFFFFFFFFFFFFFFFFFFF AND PUSH20 0xFFFFFFFFFFFFFFFFFFFFFFFFFFFFFFFFFFFFFFFF AND PUSH20 0xFFFFFFFFFFFFFFFFFFFFFFFFFFFFFFFFFFFFFFFF AND DUP2 MSTORE PUSH1 0x20 ADD PUSH1 0x1 DUP3 ADD PUSH0 SWAP1 SLOAD SWAP1 PUSH2 0x100 EXP SWAP1 DIV PUSH20 0xFFFFFFFFFFFFFFFFFFFFFFFFFFFFFFFFFFFFFFFF AND PUSH20 0xFFFFFFFFFFFFFFFFFFFFFFFFFFFFFFFFFFFFFFFF AND PUSH20 0xFFFFFFFFFFFFFFFFFFFFFFFFFFFFFFFFFFFFFFFF AND DUP2 MSTORE PUSH1 0x20 ADD PUSH1 0x2 DUP3 ADD DUP1 SLOAD PUSH2 0x8B2 SWAP1 PUSH2 0xFFB JUMP JUMPDEST DUP1 PUSH1 0x1F ADD PUSH1 0x20 DUP1 SWAP2 DIV MUL PUSH1 0x20 ADD PUSH1 0x40 MLOAD SWAP1 DUP2 ADD PUSH1 0x40 MSTORE DUP1 SWAP3 SWAP2 SWAP1 DUP2 DUP2 MSTORE PUSH1 0x20 ADD DUP3 DUP1 SLOAD PUSH2 0x8DE SWAP1 PUSH2 0xFFB JUMP JUMPDEST DUP1 ISZERO PUSH2 0x929 JUMPI DUP1 PUSH1 0x1F LT PUSH2 0x900 JUMPI PUSH2 0x100 DUP1 DUP4 SLOAD DIV MUL DUP4 MSTORE SWAP2 PUSH1 0x20 ADD SWAP2 PUSH2 0x929 JUMP JUMPDEST DUP3 ADD SWAP2 SWAP1 PUSH0 MSTORE PUSH1 0x20 PUSH0 KECCAK256 SWAP1 JUMPDEST DUP2 SLOAD DUP2 MSTORE SWAP1 PUSH1 0x1 ADD SWAP1 PUSH1 0x20 ADD DUP1 DUP4 GT PUSH2 0x90C JUMPI DUP3 SWAP1 SUB PUSH1 0x1F AND DUP3 ADD SWAP2 JUMPDEST POP POP POP POP POP DUP2 MSTORE PUSH1 0x20 ADD PUSH1 0x3 DUP3 ADD SLOAD DUP2 MSTORE POP POP SWAP1 POP SWAP3 SWAP2 POP POP JUMP JUMPDEST PUSH0 PUSH1 0x1 PUSH0 DUP4 PUSH20 0xFFFFFFFFFFFFFFFFFFFFFFFFFFFFFFFFFFFFFFFF AND PUSH20 0xFFFFFFFFFFFFFFFFFFFFFFFFFFFFFFFFFFFFFFFF AND DUP2 MSTORE PUSH1 0x20 ADD SWAP1 DUP2 MSTORE PUSH1 0x20 ADD PUSH0 KECCAK256 DUP1 SLOAD SWAP1 POP SWAP1 POP SWAP2 SWAP1 POP JUMP JUMPDEST PUSH1 0x40 MLOAD DUP1 PUSH1 0x80 ADD PUSH1 0x40 MSTORE DUP1 PUSH0 PUSH20 0xFFFFFFFFFFFFFFFFFFFFFFFFFFFFFFFFFFFFFFFF AND DUP2 MSTORE PUSH1 0x20 ADD PUSH0 PUSH20 0xFFFFFFFFFFFFFFFFFFFFFFFFFFFFFFFFFFFFFFFF AND DUP2 MSTORE PUSH1 0x20 ADD PUSH1 0x60 DUP2 MSTORE PUSH1 0x20 ADD PUSH0 DUP2 MSTORE POP SWAP1 JUMP JUMPDEST PUSH0 PUSH20 0xFFFFFFFFFFFFFFFFFFFFFFFFFFFFFFFFFFFFFFFF DUP3 AND SWAP1 POP SWAP2 SWAP1 POP JUMP JUMPDEST PUSH0 PUSH2 0xA07 DUP3 PUSH2 0x9DE JUMP JUMPDEST SWAP1 POP SWAP2 SWAP1 POP JUMP JUMPDEST PUSH2 0xA17 DUP2 PUSH2 0x9FD JUMP JUMPDEST DUP3 MSTORE POP POP JUMP JUMPDEST PUSH0 PUSH1 0x20 DUP3 ADD SWAP1 POP PUSH2 0xA30 PUSH0 DUP4 ADD DUP5 PUSH2 0xA0E JUMP JUMPDEST SWAP3 SWAP2 POP POP JUMP JUMPDEST PUSH0 PUSH0 REVERT JUMPDEST PUSH0 PUSH0 REVERT JUMPDEST PUSH2 0xA47 DUP2 PUSH2 0x9FD JUMP JUMPDEST DUP2 EQ PUSH2 0xA51 JUMPI PUSH0 PUSH0 REVERT JUMPDEST POP JUMP JUMPDEST PUSH0 DUP2 CALLDATALOAD SWAP1 POP PUSH2 0xA62 DUP2 PUSH2 0xA3E JUMP JUMPDEST SWAP3 SWAP2 POP POP JUMP JUMPDEST PUSH0 PUSH0 REVERT JUMPDEST PUSH0 PUSH0 REVERT JUMPDEST PUSH0 PUSH0 REVERT JUMPDEST PUSH0 PUSH0 DUP4 PUSH1 0x1F DUP5 ADD SLT PUSH2 0xA89 JUMPI PUSH2 0xA88 PUSH2 0xA68 JUMP JUMPDEST JUMPDEST DUP3 CALLDATALOAD SWAP1 POP PUSH8 0xFFFFFFFFFFFFFFFF DUP2 GT ISZERO PUSH2 0xAA6 JUMPI PUSH2 0xAA5 PUSH2 0xA6C JUMP JUMPDEST JUMPDEST PUSH1 0x20 DUP4 ADD SWAP2 POP DUP4 PUSH1 0x1 DUP3 MUL DUP4 ADD GT ISZERO PUSH2 0xAC2 JUMPI PUSH2 0xAC1 PUSH2 0xA70 JUMP JUMPDEST JUMPDEST SWAP3 POP SWAP3 SWAP1 POP JUMP JUMPDEST PUSH0 PUSH0 PUSH0 PUSH1 0x40 DUP5 DUP7 SUB SLT ISZERO PUSH2 0xAE0 JUMPI PUSH2 0xADF PUSH2 0xA36 JUMP JUMPDEST JUMPDEST PUSH0 PUSH2 0xAED DUP7 DUP3 DUP8 ADD PUSH2 0xA54 JUMP JUMPDEST SWAP4 POP POP PUSH1 0x20 DUP5 ADD CALLDATALOAD PUSH8 0xFFFFFFFFFFFFFFFF DUP2 GT ISZERO PUSH2 0xB0E JUMPI PUSH2 0xB0D PUSH2 0xA3A JUMP JUMPDEST JUMPDEST PUSH2 0xB1A DUP7 DUP3 DUP8 ADD PUSH2 0xA74 JUMP JUMPDEST SWAP3 POP SWAP3 POP POP SWAP3 POP SWAP3 POP SWAP3 JUMP JUMPDEST PUSH0 DUP2 MLOAD SWAP1 POP SWAP2 SWAP1 POP JUMP JUMPDEST PUSH0 DUP3 DUP3 MSTORE PUSH1 0x20 DUP3 ADD SWAP1 POP SWAP3 SWAP2 POP POP JUMP JUMPDEST PUSH0 DUP2 SWAP1 POP PUSH1 0x20 DUP3 ADD SWAP1 POP SWAP2 SWAP1 POP JUMP JUMPDEST PUSH2 0xB58 DUP2 PUSH2 0x9FD JUMP JUMPDEST DUP3 MSTORE POP POP JUMP JUMPDEST PUSH0 DUP2 MLOAD SWAP1 POP SWAP2 SWAP1 POP JUMP JUMPDEST PUSH0 DUP3 DUP3 MSTORE PUSH1 0x20 DUP3 ADD SWAP1 POP SWAP3 SWAP2 POP POP JUMP JUMPDEST DUP3 DUP2 DUP4 MCOPY PUSH0 DUP4 DUP4 ADD MSTORE POP POP POP JUMP JUMPDEST PUSH0 PUSH1 0x1F NOT PUSH1 0x1F DUP4 ADD AND SWAP1 POP SWAP2 SWAP1 POP JUMP JUMPDEST PUSH0 PUSH2 0xBA0 DUP3 PUSH2 0xB5E JUMP JUMPDEST PUSH2 0xBAA DUP2 DUP6 PUSH2 0xB68 JUMP JUMPDEST SWAP4 POP PUSH2 0xBBA DUP2 DUP6 PUSH1 0x20 DUP7 ADD PUSH2 0xB78 JUMP JUMPDEST PUSH2 0xBC3 DUP2 PUSH2 0xB86 JUMP JUMPDEST DUP5 ADD SWAP2 POP POP SWAP3 SWAP2 POP POP JUMP JUMPDEST PUSH0 DUP2 SWAP1 POP SWAP2 SWAP1 POP JUMP JUMPDEST PUSH2 0xBE0 DUP2 PUSH2 0xBCE JUMP JUMPDEST DUP3 MSTORE POP POP JUMP JUMPDEST PUSH0 PUSH1 0x80 DUP4 ADD PUSH0 DUP4 ADD MLOAD PUSH2 0xBFB PUSH0 DUP7 ADD DUP3 PUSH2 0xB4F JUMP JUMPDEST POP PUSH1 0x20 DUP4 ADD MLOAD PUSH2 0xC0E PUSH1 0x20 DUP7 ADD DUP3 PUSH2 0xB4F JUMP JUMPDEST POP PUSH1 0x40 DUP4 ADD MLOAD DUP5 DUP3 SUB PUSH1 0x40 DUP7 ADD MSTORE PUSH2 0xC26 DUP3 DUP3 PUSH2 0xB96 JUMP JUMPDEST SWAP2 POP POP PUSH1 0x60 DUP4 ADD MLOAD PUSH2 0xC3B PUSH1 0x60 DUP7 ADD DUP3 PUSH2 0xBD7 JUMP JUMPDEST POP DUP1 SWAP2 POP POP SWAP3 SWAP2 POP POP JUMP JUMPDEST PUSH0 PUSH2 0xC51 DUP4 DUP4 PUSH2 0xBE6 JUMP JUMPDEST SWAP1 POP SWAP3 SWAP2 POP POP JUMP JUMPDEST PUSH0 PUSH1 0x20 DUP3 ADD SWAP1 POP SWAP2 SWAP1 POP JUMP JUMPDEST PUSH0 PUSH2 0xC6F DUP3 PUSH2 0xB26 JUMP JUMPDEST PUSH2 0xC79 DUP2 DUP6 PUSH2 0xB30 JUMP JUMPDEST SWAP4 POP DUP4 PUSH1 0x20 DUP3 MUL DUP6 ADD PUSH2 0xC8B DUP6 PUSH2 0xB40 JUMP JUMPDEST DUP1 PUSH0 JUMPDEST DUP6 DUP2 LT ISZERO PUSH2 0xCC6 JUMPI DUP5 DUP5 SUB DUP10 MSTORE DUP2 MLOAD PUSH2 0xCA7 DUP6 DUP3 PUSH2 0xC46 JUMP JUMPDEST SWAP5 POP PUSH2 0xCB2 DUP4 PUSH2 0xC59 JUMP JUMPDEST SWAP3 POP PUSH1 0x20 DUP11 ADD SWAP10 POP POP PUSH1 0x1 DUP2 ADD SWAP1 POP PUSH2 0xC8E JUMP JUMPDEST POP DUP3 SWAP8 POP DUP8 SWAP6 POP POP POP POP POP POP SWAP3 SWAP2 POP POP JUMP JUMPDEST PUSH0 PUSH1 0x20 DUP3 ADD SWAP1 POP DUP2 DUP2 SUB PUSH0 DUP4 ADD MSTORE PUSH2 0xCF0 DUP2 DUP5 PUSH2 0xC65 JUMP JUMPDEST SWAP1 POP SWAP3 SWAP2 POP POP JUMP JUMPDEST PUSH2 0xD01 DUP2 PUSH2 0xBCE JUMP JUMPDEST DUP2 EQ PUSH2 0xD0B JUMPI PUSH0 PUSH0 REVERT JUMPDEST POP JUMP JUMPDEST PUSH0 DUP2 CALLDATALOAD SWAP1 POP PUSH2 0xD1C DUP2 PUSH2 0xCF8 JUMP JUMPDEST SWAP3 SWAP2 POP POP JUMP JUMPDEST PUSH0 PUSH0 PUSH1 0x40 DUP4 DUP6 SUB SLT ISZERO PUSH2 0xD38 JUMPI PUSH2 0xD37 PUSH2 0xA36 JUMP JUMPDEST JUMPDEST PUSH0 PUSH2 0xD45 DUP6 DUP3 DUP7 ADD PUSH2 0xA54 JUMP JUMPDEST SWAP3 POP POP PUSH1 0x20 PUSH2 0xD56 DUP6 DUP3 DUP7 ADD PUSH2 0xD0E JUMP JUMPDEST SWAP2 POP POP SWAP3 POP SWAP3 SWAP1 POP JUMP JUMPDEST PUSH0 PUSH1 0x80 DUP4 ADD PUSH0 DUP4 ADD MLOAD PUSH2 0xD75 PUSH0 DUP7 ADD DUP3 PUSH2 0xB4F JUMP JUMPDEST POP PUSH1 0x20 DUP4 ADD MLOAD PUSH2 0xD88 PUSH1 0x20 DUP7 ADD DUP3 PUSH2 0xB4F JUMP JUMPDEST POP PUSH1 0x40 DUP4 ADD MLOAD DUP5 DUP3 SUB PUSH1 0x40 DUP7 ADD MSTORE PUSH2 0xDA0 DUP3 DUP3 PUSH2 0xB96 JUMP JUMPDEST SWAP2 POP POP PUSH1 0x60 DUP4 ADD MLOAD PUSH2 0xDB5 PUSH1 0x60 DUP7 ADD DUP3 PUSH2 0xBD7 JUMP JUMPDEST POP DUP1 SWAP2 POP POP SWAP3 SWAP2 POP POP JUMP JUMPDEST PUSH0 PUSH1 0x20 DUP3 ADD SWAP1 POP DUP2 DUP2 SUB PUSH0 DUP4 ADD MSTORE PUSH2 0xDD8 DUP2 DUP5 PUSH2 0xD60 JUMP JUMPDEST SWAP1 POP SWAP3 SWAP2 POP POP JUMP JUMPDEST PUSH0 PUSH1 0x20 DUP3 DUP5 SUB SLT ISZERO PUSH2 0xDF5 JUMPI PUSH2 0xDF4 PUSH2 0xA36 JUMP JUMPDEST JUMPDEST PUSH0 PUSH2 0xE02 DUP5 DUP3 DUP6 ADD PUSH2 0xA54 JUMP JUMPDEST SWAP2 POP POP SWAP3 SWAP2 POP POP JUMP JUMPDEST PUSH2 0xE14 DUP2 PUSH2 0xBCE JUMP JUMPDEST DUP3 MSTORE POP POP JUMP JUMPDEST PUSH0 PUSH1 0x20 DUP3 ADD SWAP1 POP PUSH2 0xE2D PUSH0 DUP4 ADD DUP5 PUSH2 0xE0B JUMP JUMPDEST SWAP3 SWAP2 POP POP JUMP JUMPDEST PUSH0 DUP3 DUP3 MSTORE PUSH1 0x20 DUP3 ADD SWAP1 POP SWAP3 SWAP2 POP POP JUMP JUMPDEST PUSH32 0x536F6C6F20656C2070726F706965746172696F20707565646520656E76696172 PUSH0 DUP3 ADD MSTORE PUSH32 0x206D656E73616A65730000000000000000000000000000000000000000000000 PUSH1 0x20 DUP3 ADD MSTORE POP JUMP JUMPDEST PUSH0 PUSH2 0xE9D PUSH1 0x29 DUP4 PUSH2 0xE33 JUMP JUMPDEST SWAP2 POP PUSH2 0xEA8 DUP3 PUSH2 0xE43 JUMP JUMPDEST PUSH1 0x40 DUP3 ADD SWAP1 POP SWAP2 SWAP1 POP JUMP JUMPDEST PUSH0 PUSH1 0x20 DUP3 ADD SWAP1 POP DUP2 DUP2 SUB PUSH0 DUP4 ADD MSTORE PUSH2 0xECA DUP2 PUSH2 0xE91 JUMP JUMPDEST SWAP1 POP SWAP2 SWAP1 POP JUMP JUMPDEST PUSH32 0x446972656363696F6E2064657374696E6F20696E76616C696461000000000000 PUSH0 DUP3 ADD MSTORE POP JUMP JUMPDEST PUSH0 PUSH2 0xF05 PUSH1 0x1A DUP4 PUSH2 0xE33 JUMP JUMPDEST SWAP2 POP PUSH2 0xF10 DUP3 PUSH2 0xED1 JUMP JUMPDEST PUSH1 0x20 DUP3 ADD SWAP1 POP SWAP2 SWAP1 POP JUMP JUMPDEST PUSH0 PUSH1 0x20 DUP3 ADD SWAP1 POP DUP2 DUP2 SUB PUSH0 DUP4 ADD MSTORE PUSH2 0xF32 DUP2 PUSH2 0xEF9 JUMP JUMPDEST SWAP1 POP SWAP2 SWAP1 POP JUMP JUMPDEST PUSH32 0x456C206D656E73616A65206E6F20707565646520657374617220766163696F00 PUSH0 DUP3 ADD MSTORE POP JUMP JUMPDEST PUSH0 PUSH2 0xF6D PUSH1 0x1F DUP4 PUSH2 0xE33 JUMP JUMPDEST SWAP2 POP PUSH2 0xF78 DUP3 PUSH2 0xF39 JUMP JUMPDEST PUSH1 0x20 DUP3 ADD SWAP1 POP SWAP2 SWAP1 POP JUMP JUMPDEST PUSH0 PUSH1 0x20 DUP3 ADD SWAP1 POP DUP2 DUP2 SUB PUSH0 DUP4 ADD MSTORE PUSH2 0xF9A DUP2 PUSH2 0xF61 JUMP JUMPDEST SWAP1 POP SWAP2 SWAP1 POP JUMP JUMPDEST PUSH32 0x4E487B7100000000000000000000000000000000000000000000000000000000 PUSH0 MSTORE PUSH1 0x41 PUSH1 0x4 MSTORE PUSH1 0x24 PUSH0 REVERT JUMPDEST PUSH32 0x4E487B7100000000000000000000000000000000000000000000000000000000 PUSH0 MSTORE PUSH1 0x22 PUSH1 0x4 MSTORE PUSH1 0x24 PUSH0 REVERT JUMPDEST PUSH0 PUSH1 0x2 DUP3 DIV SWAP1 POP PUSH1 0x1 DUP3 AND DUP1 PUSH2 0x1012 JUMPI PUSH1 0x7F DUP3 AND SWAP2 POP JUMPDEST PUSH1 0x20 DUP3 LT DUP2 SUB PUSH2 0x1025 JUMPI PUSH2 0x1024 PUSH2 0xFCE JUMP JUMPDEST JUMPDEST POP SWAP2 SWAP1 POP JUMP JUMPDEST PUSH0 DUP2 SWAP1 POP DUP2 PUSH0 MSTORE PUSH1 0x20 PUSH0 KECCAK256 SWAP1 POP SWAP2 SWAP1 POP JUMP JUMPDEST PUSH0 PUSH1 0x20 PUSH1 0x1F DUP4 ADD DIV SWAP1 POP SWAP2 SWAP1 POP JUMP JUMPDEST PUSH0 DUP3 DUP3 SHL SWAP1 POP SWAP3 SWAP2 POP POP JUMP JUMPDEST PUSH0 PUSH1 0x8 DUP4 MUL PUSH2 0x1087 PUSH32 0xFFFFFFFFFFFFFFFFFFFFFFFFFFFFFFFFFFFFFFFFFFFFFFFFFFFFFFFFFFFFFFFF DUP3 PUSH2 0x104C JUMP JUMPDEST PUSH2 0x1091 DUP7 DUP4 PUSH2 0x104C JUMP JUMPDEST SWAP6 POP DUP1 NOT DUP5 AND SWAP4 POP DUP1 DUP7 AND DUP5 OR SWAP3 POP POP POP SWAP4 SWAP3 POP POP POP JUMP JUMPDEST PUSH0 DUP2 SWAP1 POP SWAP2 SWAP1 POP JUMP JUMPDEST PUSH0 PUSH2 0x10CC PUSH2 0x10C7 PUSH2 0x10C2 DUP5 PUSH2 0xBCE JUMP JUMPDEST PUSH2 0x10A9 JUMP JUMPDEST PUSH2 0xBCE JUMP JUMPDEST SWAP1 POP SWAP2 SWAP1 POP JUMP JUMPDEST PUSH0 DUP2 SWAP1 POP SWAP2 SWAP1 POP JUMP JUMPDEST PUSH2 0x10E5 DUP4 PUSH2 0x10B2 JUMP JUMPDEST PUSH2 0x10F9 PUSH2 0x10F1 DUP3 PUSH2 0x10D3 JUMP JUMPDEST DUP5 DUP5 SLOAD PUSH2 0x1058 JUMP JUMPDEST DUP3 SSTORE POP POP POP POP JUMP JUMPDEST PUSH0 PUSH0 SWAP1 POP SWAP1 JUMP JUMPDEST PUSH2 0x1110 PUSH2 0x1101 JUMP JUMPDEST PUSH2 0x111B DUP2 DUP5 DUP5 PUSH2 0x10DC JUMP JUMPDEST POP POP POP JUMP JUMPDEST JUMPDEST DUP2 DUP2 LT ISZERO PUSH2 0x113E JUMPI PUSH2 0x1133 PUSH0 DUP3 PUSH2 0x1108 JUMP JUMPDEST PUSH1 0x1 DUP2 ADD SWAP1 POP PUSH2 0x1121 JUMP JUMPDEST POP POP JUMP JUMPDEST PUSH1 0x1F DUP3 GT ISZERO PUSH2 0x1183 JUMPI PUSH2 0x1154 DUP2 PUSH2 0x102B JUMP JUMPDEST PUSH2 0x115D DUP5 PUSH2 0x103D JUMP JUMPDEST DUP2 ADD PUSH1 0x20 DUP6 LT ISZERO PUSH2 0x116C JUMPI DUP2 SWAP1 POP JUMPDEST PUSH2 0x1180 PUSH2 0x1178 DUP6 PUSH2 0x103D JUMP JUMPDEST DUP4 ADD DUP3 PUSH2 0x1120 JUMP JUMPDEST POP POP JUMPDEST POP POP POP JUMP JUMPDEST PUSH0 DUP3 DUP3 SHR SWAP1 POP SWAP3 SWAP2 POP POP JUMP JUMPDEST PUSH0 PUSH2 0x11A3 PUSH0 NOT DUP5 PUSH1 0x8 MUL PUSH2 0x1188 JUMP JUMPDEST NOT DUP1 DUP4 AND SWAP2 POP POP SWAP3 SWAP2 POP POP JUMP JUMPDEST PUSH0 PUSH2 0x11BB DUP4 DUP4 PUSH2 0x1194 JUMP JUMPDEST SWAP2 POP DUP3 PUSH1 0x2 MUL DUP3 OR SWAP1 POP SWAP3 SWAP2 POP POP JUMP JUMPDEST PUSH2 0x11D4 DUP3 PUSH2 0xB5E JUMP JUMPDEST PUSH8 0xFFFFFFFFFFFFFFFF DUP2 GT ISZERO PUSH2 0x11ED JUMPI PUSH2 0x11EC PUSH2 0xFA1 JUMP JUMPDEST JUMPDEST PUSH2 0x11F7 DUP3 SLOAD PUSH2 0xFFB JUMP JUMPDEST PUSH2 0x1202 DUP3 DUP3 DUP6 PUSH2 0x1142 JUMP JUMPDEST PUSH0 PUSH1 0x20 SWAP1 POP PUSH1 0x1F DUP4 GT PUSH1 0x1 DUP2 EQ PUSH2 0x1233 JUMPI PUSH0 DUP5 ISZERO PUSH2 0x1221 JUMPI DUP3 DUP8 ADD MLOAD SWAP1 POP JUMPDEST PUSH2 0x122B DUP6 DUP3 PUSH2 0x11B0 JUMP JUMPDEST DUP7 SSTORE POP PUSH2 0x1292 JUMP JUMPDEST PUSH1 0x1F NOT DUP5 AND PUSH2 0x1241 DUP7 PUSH2 0x102B JUMP JUMPDEST PUSH0 JUMPDEST DUP3 DUP2 LT ISZERO PUSH2 0x1268 JUMPI DUP5 DUP10 ADD MLOAD DUP3 SSTORE PUSH1 0x1 DUP3 ADD SWAP2 POP PUSH1 0x20 DUP6 ADD SWAP5 POP PUSH1 0x20 DUP2 ADD SWAP1 POP PUSH2 0x1243 JUMP JUMPDEST DUP7 DUP4 LT ISZERO PUSH2 0x1285 JUMPI DUP5 DUP10 ADD MLOAD PUSH2 0x1281 PUSH1 0x1F DUP10 AND DUP3 PUSH2 0x1194 JUMP JUMPDEST DUP4 SSTORE POP JUMPDEST PUSH1 0x1 PUSH1 0x2 DUP9 MUL ADD DUP9 SSTORE POP POP POP JUMPDEST POP POP POP POP POP POP JUMP JUMPDEST PUSH0 PUSH2 0x12A4 DUP3 PUSH2 0xB5E JUMP JUMPDEST PUSH2 0x12AE DUP2 DUP6 PUSH2 0xE33 JUMP JUMPDEST SWAP4 POP PUSH2 0x12BE DUP2 DUP6 PUSH1 0x20 DUP7 ADD PUSH2 0xB78 JUMP JUMPDEST PUSH2 0x12C7 DUP2 PUSH2 0xB86 JUMP JUMPDEST DUP5 ADD SWAP2 POP POP SWAP3 SWAP2 POP POP JUMP JUMPDEST PUSH0 PUSH1 0x40 DUP3 ADD SWAP1 POP DUP2 DUP2 SUB PUSH0 DUP4 ADD MSTORE PUSH2 0x12EA DUP2 DUP6 PUSH2 0x129A JUMP JUMPDEST SWAP1 POP PUSH2 0x12F9 PUSH1 0x20 DUP4 ADD DUP5 PUSH2 0xE0B JUMP JUMPDEST SWAP4 SWAP3 POP POP POP JUMP JUMPDEST PUSH32 0x496E646963652066756572612064652072616E676F0000000000000000000000 PUSH0 DUP3 ADD MSTORE POP JUMP JUMPDEST PUSH0 PUSH2 0x1334 PUSH1 0x15 DUP4 PUSH2 0xE33 JUMP JUMPDEST SWAP2 POP PUSH2 0x133F DUP3 PUSH2 0x1300 JUMP JUMPDEST PUSH1 0x20 DUP3 ADD SWAP1 POP SWAP2 SWAP1 POP JUMP JUMPDEST PUSH0 PUSH1 0x20 DUP3 ADD SWAP1 POP DUP2 DUP2 SUB PUSH0 DUP4 ADD MSTORE PUSH2 0x1361 DUP2 PUSH2 0x1328 JUMP JUMPDEST SWAP1 POP SWAP2 SWAP1 POP JUMP JUMPDEST PUSH32 0x4E487B7100000000000000000000000000000000000000000000000000000000 PUSH0 MSTORE PUSH1 0x32 PUSH1 0x4 MSTORE PUSH1 0x24 PUSH0 REVERT INVALID LOG2 PUSH5 0x6970667358 0x22 SLT KECCAK256 0xEB GASPRICE 0xC3 0x25 0x2A SSTORE GAS SHR 0x4D 0xC8 GASPRICE DIV 0xD6 0xBB SGT PUSH14 0x3D79BD70C3DC58142A6AC3D2C3D0 PUSH9 0x8964736F6C63430008 0x1E STOP CALLER "
				},
				"gasEstimates": {
					"creation": {
						"codeDepositCost": "1013400",
						"executionCost": "25316",
						"totalCost": "1038716"
					},
					"external": {
						"cantidadMensajes(address)": "2903",
						"enviarMensaje(address,string)": "infinite",
						"propietario()": "2485",
						"verHistorial()": "infinite",
						"verMensaje(address,uint256)": "infinite"
					}
				},
				"methodIdentifiers": {
					"cantidadMensajes(address)": "eb25f188",
					"enviarMensaje(address,string)": "7aa361c8",
					"propietario()": "3c4f81cd",
					"verHistorial()": "a716ce52",
					"verMensaje(address,uint256)": "e9051fa0"
				}
			},
			"storageLayout": {
				"storage": [
					{
						"astId": 3,
						"contract": "contracts/9_EjercicioMensajes.sol:MensajesBasicos",
						"label": "propietario",
						"offset": 0,
						"slot": "0",
						"type": "t_address"
					},
					{
						"astId": 49,
						"contract": "contracts/9_EjercicioMensajes.sol:MensajesBasicos",
						"label": "bandejaDeEntrada",
						"offset": 0,
						"slot": "1",
						"type": "t_mapping(t_address,t_array(t_struct(Mensaje)33_storage)dyn_storage)"
					},
					{
						"astId": 53,
						"contract": "contracts/9_EjercicioMensajes.sol:MensajesBasicos",
						"label": "historialTotal",
						"offset": 0,
						"slot": "2",
						"type": "t_array(t_struct(Mensaje)33_storage)dyn_storage"
					}
				],
				"types": {
					"t_address": {
						"encoding": "inplace",
						"label": "address",
						"numberOfBytes": "20"
					},
					"t_array(t_struct(Mensaje)33_storage)dyn_storage": {
						"base": "t_struct(Mensaje)33_storage",
						"encoding": "dynamic_array",
						"label": "struct MensajesBasicos.Mensaje[]",
						"numberOfBytes": "32"
					},
					"t_mapping(t_address,t_array(t_struct(Mensaje)33_storage)dyn_storage)": {
						"encoding": "mapping",
						"key": "t_address",
						"label": "mapping(address => struct MensajesBasicos.Mensaje[])",
						"numberOfBytes": "32",
						"value": "t_array(t_struct(Mensaje)33_storage)dyn_storage"
					},
					"t_string_storage": {
						"encoding": "bytes",
						"label": "string",
						"numberOfBytes": "32"
					},
					"t_struct(Mensaje)33_storage": {
						"encoding": "inplace",
						"label": "struct MensajesBasicos.Mensaje",
						"members": [
							{
								"astId": 26,
								"contract": "contracts/9_EjercicioMensajes.sol:MensajesBasicos",
								"label": "remitente",
								"offset": 0,
								"slot": "0",
								"type": "t_address"
							},
							{
								"astId": 28,
								"contract": "contracts/9_EjercicioMensajes.sol:MensajesBasicos",
								"label": "destinatario",
								"offset": 0,
								"slot": "1",
								"type": "t_address"
							},
							{
								"astId": 30,
								"contract": "contracts/9_EjercicioMensajes.sol:MensajesBasicos",
								"label": "contenido",
								"offset": 0,
								"slot": "2",
								"type": "t_string_storage"
							},
							{
								"astId": 32,
								"contract": "contracts/9_EjercicioMensajes.sol:MensajesBasicos",
								"label": "fecha",
								"offset": 0,
								"slot": "3",
								"type": "t_uint256"
							}
						],
						"numberOfBytes": "128"
					},
					"t_uint256": {
						"encoding": "inplace",
						"label": "uint256",
						"numberOfBytes": "32"
					}
				}
			},
			"userdoc": {
				"kind": "user",
				"methods": {},
				"version": 1
			}
		}
	}
}