{
	"data": {
		"bytecode": {
			"linkReferences": {},
			"object": "6080604052348015600e575f5ffd5b50336001806101000a81548173ffffffffffffffffffffffffffffffffffffffff021916908373ffffffffffffffffffffffffffffffffffffffff1602179055506106da8061005c5f395ff3fe608060405234801561000f575f5ffd5b5060043610610086575f3560e01c8063b5400a8311610059578063b5400a8314610102578063b84d51851461011e578063b9e30ac61461013a578063ea865e061461015657610086565b80631ea318dd1461008a57806350f58e53146100a85780638da5cb5b146100c6578063a41de865146100e4575b5f5ffd5b610092610172565b60405161009f9190610274565b60405180910390f35b6100b0610178565b6040516100bd91906102a7565b60405180910390f35b6100ce61018a565b6040516100db91906102ff565b60405180910390f35b6100ec6101ae565b6040516100f99190610330565b60405180910390f35b61011c60048036038101906101179190610384565b6101b3565b005b610138600480360381019061013391906103d9565b6101cf565b005b610154600480360381019061014f919061042e565b610212565b005b610170600480360381019061016b9190610595565b61022c565b005b60025481565b60015f9054906101000a900460ff1681565b60018054906101000a900473ffffffffffffffffffffffffffffffffffffffff1681565b5f5481565b8060015f6101000a81548160ff02191690831515021790555050565b806001806101000a81548173ffffffffffffffffffffffffffffffffffffffff021916908373ffffffffffffffffffffffffffffffffffffffff16021790555050565b805f5f8282546102229190610609565b9250508190555050565b8060405160200161023d919061068e565b6040516020818303038152906040528051906020012060028190555050565b5f819050919050565b61026e8161025c565b82525050565b5f6020820190506102875f830184610265565b92915050565b5f8115159050919050565b6102a18161028d565b82525050565b5f6020820190506102ba5f830184610298565b92915050565b5f73ffffffffffffffffffffffffffffffffffffffff82169050919050565b5f6102e9826102c0565b9050919050565b6102f9816102df565b82525050565b5f6020820190506103125f8301846102f0565b92915050565b5f819050919050565b61032a81610318565b82525050565b5f6020820190506103435f830184610321565b92915050565b5f604051905090565b5f5ffd5b5f5ffd5b6103638161028d565b811461036d575f5ffd5b50565b5f8135905061037e8161035a565b92915050565b5f6020828403121561039957610398610352565b5b5f6103a684828501610370565b91505092915050565b6103b8816102df565b81146103c2575f5ffd5b50565b5f813590506103d3816103af565b92915050565b5f602082840312156103ee576103ed610352565b5b5f6103fb848285016103c5565b91505092915050565b61040d81610318565b8114610417575f5ffd5b50565b5f8135905061042881610404565b92915050565b5f6020828403121561044357610442610352565b5b5f6104508482850161041a565b91505092915050565b5f5ffd5b5f5ffd5b5f601f19601f8301169050919050565b7f4e487b71000000000000000000000000000000000000000000000000000000005f52604160045260245ffd5b6104a782610461565b810181811067ffffffffffffffff821117156104c6576104c5610471565b5b80604052505050565b5f6104d8610349565b90506104e4828261049e565b919050565b5f67ffffffffffffffff82111561050357610502610471565b5b61050c82610461565b9050602081019050919050565b828183375f83830152505050565b5f610539610534846104e9565b6104cf565b9050828152602081018484840111156105555761055461045d565b5b610560848285610519565b509392505050565b5f82601f83011261057c5761057b610459565b5b813561058c848260208601610527565b91505092915050565b5f602082840312156105aa576105a9610352565b5b5f82013567ffffffffffffffff8111156105c7576105c6610356565b5b6105d384828501610568565b91505092915050565b7f4e487b71000000000000000000000000000000000000000000000000000000005f52601160045260245ffd5b5f61061382610318565b915061061e83610318565b9250828201905080821115610636576106356105dc565b5b92915050565b5f81519050919050565b5f81905092915050565b8281835e5f83830152505050565b5f6106688261063c565b6106728185610646565b9350610682818560208601610650565b80840191505092915050565b5f610699828461065e565b91508190509291505056fea2646970667358221220ad8e83571cb59f192f4d8c47a70713f140c970296c011a4fd7a19880ac4444ad64736f6c634300081e0033",
			"opcodes": "PUSH1 0x80 PUSH1 0x40 MSTORE CALLVALUE DUP1 ISZERO PUSH1 0xE JUMPI PUSH0 PUSH0 REVERT JUMPDEST POP CALLER PUSH1 0x1 DUP1 PUSH2 0x100 EXP DUP2 SLOAD DUP2 PUSH20 0xFFFFFFFFFFFFFFFFFFFFFFFFFFFFFFFFFFFFFFFF MUL NOT AND SWAP1 DUP4 PUSH20 0xFFFFFFFFFFFFFFFFFFFFFFFFFFFFFFFFFFFFFFFF AND MUL OR SWAP1 SSTORE POP PUSH2 0x6DA DUP1 PUSH2 0x5C PUSH0 CODECOPY PUSH0 RETURN INVALID PUSH1 0x80 PUSH1 0x40 MSTORE CALLVALUE DUP1 ISZERO PUSH2 0xF JUMPI PUSH0 PUSH0 REVERT JUMPDEST POP PUSH1 0x4 CALLDATASIZE LT PUSH2 0x86 JUMPI PUSH0 CALLDATALOAD PUSH1 0xE0 SHR DUP1 PUSH4 0xB5400A83 GT PUSH2 0x59 JUMPI DUP1 PUSH4 0xB5400A83 EQ PUSH2 0x102 JUMPI DUP1 PUSH4 0xB84D5185 EQ PUSH2 0x11E JUMPI DUP1 PUSH4 0xB9E30AC6 EQ PUSH2 0x13A JUMPI DUP1 PUSH4 0xEA865E06 EQ PUSH2 0x156 JUMPI PUSH2 0x86 JUMP JUMPDEST DUP1 PUSH4 0x1EA318DD EQ PUSH2 0x8A JUMPI DUP1 PUSH4 0x50F58E53 EQ PUSH2 0xA8 JUMPI DUP1 PUSH4 0x8DA5CB5B EQ PUSH2 0xC6 JUMPI DUP1 PUSH4 0xA41DE865 EQ PUSH2 0xE4 JUMPI JUMPDEST PUSH0 PUSH0 REVERT JUMPDEST PUSH2 0x92 PUSH2 0x172 JUMP JUMPDEST PUSH1 0x40 MLOAD PUSH2 0x9F SWAP2 SWAP1 PUSH2 0x274 JUMP JUMPDEST PUSH1 0x40 MLOAD DUP1 SWAP2 SUB SWAP1 RETURN JUMPDEST PUSH2 0xB0 PUSH2 0x178 JUMP JUMPDEST PUSH1 0x40 MLOAD PUSH2 0xBD SWAP2 SWAP1 PUSH2 0x2A7 JUMP JUMPDEST PUSH1 0x40 MLOAD DUP1 SWAP2 SUB SWAP1 RETURN JUMPDEST PUSH2 0xCE PUSH2 0x18A JUMP JUMPDEST PUSH1 0x40 MLOAD PUSH2 0xDB SWAP2 SWAP1 PUSH2 0x2FF JUMP JUMPDEST PUSH1 0x40 MLOAD DUP1 SWAP2 SUB SWAP1 RETURN JUMPDEST PUSH2 0xEC PUSH2 0x1AE JUMP JUMPDEST PUSH1 0x40 MLOAD PUSH2 0xF9 SWAP2 SWAP1 PUSH2 0x330 JUMP JUMPDEST PUSH1 0x40 MLOAD DUP1 SWAP2 SUB SWAP1 RETURN JUMPDEST PUSH2 0x11C PUSH1 0x4 DUP1 CALLDATASIZE SUB DUP2 ADD SWAP1 PUSH2 0x117 SWAP2 SWAP1 PUSH2 0x384 JUMP JUMPDEST PUSH2 0x1B3 JUMP JUMPDEST STOP JUMPDEST PUSH2 0x138 PUSH1 0x4 DUP1 CALLDATASIZE SUB DUP2 ADD SWAP1 PUSH2 0x133 SWAP2 SWAP1 PUSH2 0x3D9 JUMP JUMPDEST PUSH2 0x1CF JUMP JUMPDEST STOP JUMPDEST PUSH2 0x154 PUSH1 0x4 DUP1 CALLDATASIZE SUB DUP2 ADD SWAP1 PUSH2 0x14F SWAP2 SWAP1 PUSH2 0x42E JUMP JUMPDEST PUSH2 0x212 JUMP JUMPDEST STOP JUMPDEST PUSH2 0x170 PUSH1 0x4 DUP1 CALLDATASIZE SUB DUP2 ADD SWAP1 PUSH2 0x16B SWAP2 SWAP1 PUSH2 0x595 JUMP JUMPDEST PUSH2 0x22C JUMP JUMPDEST STOP JUMPDEST PUSH1 0x2 SLOAD DUP2 JUMP JUMPDEST PUSH1 0x1 PUSH0 SWAP1 SLOAD SWAP1 PUSH2 0x100 EXP SWAP1 DIV PUSH1 0xFF AND DUP2 JUMP JUMPDEST PUSH1 0x1 DUP1 SLOAD SWAP1 PUSH2 0x100 EXP SWAP1 DIV PUSH20 0xFFFFFFFFFFFFFFFFFFFFFFFFFFFFFFFFFFFFFFFF AND DUP2 JUMP JUMPDEST PUSH0 SLOAD DUP2 JUMP JUMPDEST DUP1 PUSH1 0x1 PUSH0 PUSH2 0x100 EXP DUP2 SLOAD DUP2 PUSH1 0xFF MUL NOT AND SWAP1 DUP4 ISZERO ISZERO MUL OR SWAP1 SSTORE POP POP JUMP JUMPDEST DUP1 PUSH1 0x1 DUP1 PUSH2 0x100 EXP DUP2 SLOAD DUP2 PUSH20 0xFFFFFFFFFFFFFFFFFFFFFFFFFFFFFFFFFFFFFFFF MUL NOT AND SWAP1 DUP4 PUSH20 0xFFFFFFFFFFFFFFFFFFFFFFFFFFFFFFFFFFFFFFFF AND MUL OR SWAP1 SSTORE POP POP JUMP JUMPDEST DUP1 PUSH0 PUSH0 DUP3 DUP3 SLOAD PUSH2 0x222 SWAP2 SWAP1 PUSH2 0x609 JUMP JUMPDEST SWAP3 POP POP DUP2 SWAP1 SSTORE POP POP JUMP JUMPDEST DUP1 PUSH1 0x40 MLOAD PUSH1 0x20 ADD PUSH2 0x23D SWAP2 SWAP1 PUSH2 0x68E JUMP JUMPDEST PUSH1 0x40 MLOAD PUSH1 0x20 DUP2 DUP4 SUB SUB DUP2 MSTORE SWAP1 PUSH1 0x40 MSTORE DUP1 MLOAD SWAP1 PUSH1 0x20 ADD KECCAK256 PUSH1 0x2 DUP2 SWAP1 SSTORE POP POP JUMP JUMPDEST PUSH0 DUP2 SWAP1 POP SWAP2 SWAP1 POP JUMP JUMPDEST PUSH2 0x26E DUP2 PUSH2 0x25C JUMP JUMPDEST DUP3 MSTORE POP POP JUMP JUMPDEST PUSH0 PUSH1 0x20 DUP3 ADD SWAP1 POP PUSH2 0x287 PUSH0 DUP4 ADD DUP5 PUSH2 0x265 JUMP JUMPDEST SWAP3 SWAP2 POP POP JUMP JUMPDEST PUSH0 DUP2 ISZERO ISZERO SWAP1 POP SWAP2 SWAP1 POP JUMP JUMPDEST PUSH2 0x2A1 DUP2 PUSH2 0x28D JUMP JUMPDEST DUP3 MSTORE POP POP JUMP JUMPDEST PUSH0 PUSH1 0x20 DUP3 ADD SWAP1 POP PUSH2 0x2BA PUSH0 DUP4 ADD DUP5 PUSH2 0x298 JUMP JUMPDEST SWAP3 SWAP2 POP POP JUMP JUMPDEST PUSH0 PUSH20 0xFFFFFFFFFFFFFFFFFFFFFFFFFFFFFFFFFFFFFFFF DUP3 AND SWAP1 POP SWAP2 SWAP1 POP JUMP JUMPDEST PUSH0 PUSH2 0x2E9 DUP3 PUSH2 0x2C0 JUMP JUMPDEST SWAP1 POP SWAP2 SWAP1 POP JUMP JUMPDEST PUSH2 0x2F9 DUP2 PUSH2 0x2DF JUMP JUMPDEST DUP3 MSTORE POP POP JUMP JUMPDEST PUSH0 PUSH1 0x20 DUP3 ADD SWAP1 POP PUSH2 0x312 PUSH0 DUP4 ADD DUP5 PUSH2 0x2F0 JUMP JUMPDEST SWAP3 SWAP2 POP POP JUMP JUMPDEST PUSH0 DUP2 SWAP1 POP SWAP2 SWAP1 POP JUMP JUMPDEST PUSH2 0x32A DUP2 PUSH2 0x318 JUMP JUMPDEST DUP3 MSTORE POP POP JUMP JUMPDEST PUSH0 PUSH1 0x20 DUP3 ADD SWAP1 POP PUSH2 0x343 PUSH0 DUP4 ADD DUP5 PUSH2 0x321 JUMP JUMPDEST SWAP3 SWAP2 POP POP JUMP JUMPDEST PUSH0 PUSH1 0x40 MLOAD SWAP1 POP SWAP1 JUMP JUMPDEST PUSH0 PUSH0 REVERT JUMPDEST PUSH0 PUSH0 REVERT JUMPDEST PUSH2 0x363 DUP2 PUSH2 0x28D JUMP JUMPDEST DUP2 EQ PUSH2 0x36D JUMPI PUSH0 PUSH0 REVERT JUMPDEST POP JUMP JUMPDEST PUSH0 DUP2 CALLDATALOAD SWAP1 POP PUSH2 0x37E DUP2 PUSH2 0x35A JUMP JUMPDEST SWAP3 SWAP2 POP POP JUMP JUMPDEST PUSH0 PUSH1 0x20 DUP3 DUP5 SUB SLT ISZERO PUSH2 0x399 JUMPI PUSH2 0x398 PUSH2 0x352 JUMP JUMPDEST JUMPDEST PUSH0 PUSH2 0x3A6 DUP5 DUP3 DUP6 ADD PUSH2 0x370 JUMP JUMPDEST SWAP2 POP POP SWAP3 SWAP2 POP POP JUMP JUMPDEST PUSH2 0x3B8 DUP2 PUSH2 0x2DF JUMP JUMPDEST DUP2 EQ PUSH2 0x3C2 JUMPI PUSH0 PUSH0 REVERT JUMPDEST POP JUMP JUMPDEST PUSH0 DUP2 CALLDATALOAD SWAP1 POP PUSH2 0x3D3 DUP2 PUSH2 0x3AF JUMP JUMPDEST SWAP3 SWAP2 POP POP JUMP JUMPDEST PUSH0 PUSH1 0x20 DUP3 DUP5 SUB SLT ISZERO PUSH2 0x3EE JUMPI PUSH2 0x3ED PUSH2 0x352 JUMP JUMPDEST JUMPDEST PUSH0 PUSH2 0x3FB DUP5 DUP3 DUP6 ADD PUSH2 0x3C5 JUMP JUMPDEST SWAP2 POP POP SWAP3 SWAP2 POP POP JUMP JUMPDEST PUSH2 0x40D DUP2 PUSH2 0x318 JUMP JUMPDEST DUP2 EQ PUSH2 0x417 JUMPI PUSH0 PUSH0 REVERT JUMPDEST POP JUMP JUMPDEST PUSH0 DUP2 CALLDATALOAD SWAP1 POP PUSH2 0x428 DUP2 PUSH2 0x404 JUMP JUMPDEST SWAP3 SWAP2 POP POP JUMP JUMPDEST PUSH0 PUSH1 0x20 DUP3 DUP5 SUB SLT ISZERO PUSH2 0x443 JUMPI PUSH2 0x442 PUSH2 0x352 JUMP JUMPDEST JUMPDEST PUSH0 PUSH2 0x450 DUP5 DUP3 DUP6 ADD PUSH2 0x41A JUMP JUMPDEST SWAP2 POP POP SWAP3 SWAP2 POP POP JUMP JUMPDEST PUSH0 PUSH0 REVERT JUMPDEST PUSH0 PUSH0 REVERT JUMPDEST PUSH0 PUSH1 0x1F NOT PUSH1 0x1F DUP4 ADD AND SWAP1 POP SWAP2 SWAP1 POP JUMP JUMPDEST PUSH32 0x4E487B7100000000000000000000000000000000000000000000000000000000 PUSH0 MSTORE PUSH1 0x41 PUSH1 0x4 MSTORE PUSH1 0x24 PUSH0 REVERT JUMPDEST PUSH2 0x4A7 DUP3 PUSH2 0x461 JUMP JUMPDEST DUP2 ADD DUP2 DUP2 LT PUSH8 0xFFFFFFFFFFFFFFFF DUP3 GT OR ISZERO PUSH2 0x4C6 JUMPI PUSH2 0x4C5 PUSH2 0x471 JUMP JUMPDEST JUMPDEST DUP1 PUSH1 0x40 MSTORE POP POP POP JUMP JUMPDEST PUSH0 PUSH2 0x4D8 PUSH2 0x349 JUMP JUMPDEST SWAP1 POP PUSH2 0x4E4 DUP3 DUP3 PUSH2 0x49E JUMP JUMPDEST SWAP2 SWAP1 POP JUMP JUMPDEST PUSH0 PUSH8 0xFFFFFFFFFFFFFFFF DUP3 GT ISZERO PUSH2 0x503 JUMPI PUSH2 0x502 PUSH2 0x471 JUMP JUMPDEST JUMPDEST PUSH2 0x50C DUP3 PUSH2 0x461 JUMP JUMPDEST SWAP1 POP PUSH1 0x20 DUP2 ADD SWAP1 POP SWAP2 SWAP1 POP JUMP JUMPDEST DUP3 DUP2 DUP4 CALLDATACOPY PUSH0 DUP4 DUP4 ADD MSTORE POP POP POP JUMP JUMPDEST PUSH0 PUSH2 0x539 PUSH2 0x534 DUP5 PUSH2 0x4E9 JUMP JUMPDEST PUSH2 0x4CF JUMP JUMPDEST SWAP1 POP DUP3 DUP2 MSTORE PUSH1 0x20 DUP2 ADD DUP5 DUP5 DUP5 ADD GT ISZERO PUSH2 0x555 JUMPI PUSH2 0x554 PUSH2 0x45D JUMP JUMPDEST JUMPDEST PUSH2 0x560 DUP5 DUP3 DUP6 PUSH2 0x519 JUMP JUMPDEST POP SWAP4 SWAP3 POP POP POP JUMP JUMPDEST PUSH0 DUP3 PUSH1 0x1F DUP4 ADD SLT PUSH2 0x57C JUMPI PUSH2 0x57B PUSH2 0x459 JUMP JUMPDEST JUMPDEST DUP2 CALLDATALOAD PUSH2 0x58C DUP5 DUP3 PUSH1 0x20 DUP7 ADD PUSH2 0x527 JUMP JUMPDEST SWAP2 POP POP SWAP3 SWAP2 POP POP JUMP JUMPDEST PUSH0 PUSH1 0x20 DUP3 DUP5 SUB SLT ISZERO PUSH2 0x5AA JUMPI PUSH2 0x5A9 PUSH2 0x352 JUMP JUMPDEST JUMPDEST PUSH0 DUP3 ADD CALLDATALOAD PUSH8 0xFFFFFFFFFFFFFFFF DUP2 GT ISZERO PUSH2 0x5C7 JUMPI PUSH2 0x5C6 PUSH2 0x356 JUMP JUMPDEST JUMPDEST PUSH2 0x5D3 DUP5 DUP3 DUP6 ADD PUSH2 0x568 JUMP JUMPDEST SWAP2 POP POP SWAP3 SWAP2 POP POP JUMP JUMPDEST PUSH32 0x4E487B7100000000000000000000000000000000000000000000000000000000 PUSH0 MSTORE PUSH1 0x11 PUSH1 0x4 MSTORE PUSH1 0x24 PUSH0 REVERT JUMPDEST PUSH0 PUSH2 0x613 DUP3 PUSH2 0x318 JUMP JUMPDEST SWAP2 POP PUSH2 0x61E DUP4 PUSH2 0x318 JUMP JUMPDEST SWAP3 POP DUP3 DUP3 ADD SWAP1 POP DUP1 DUP3 GT ISZERO PUSH2 0x636 JUMPI PUSH2 0x635 PUSH2 0x5DC JUMP JUMPDEST JUMPDEST SWAP3 SWAP2 POP POP JUMP JUMPDEST PUSH0 DUP2 MLOAD SWAP1 POP SWAP2 SWAP1 POP JUMP JUMPDEST PUSH0 DUP2 SWAP1 POP SWAP3 SWAP2 POP POP JUMP JUMPDEST DUP3 DUP2 DUP4 MCOPY PUSH0 DUP4 DUP4 ADD MSTORE POP POP POP JUMP JUMPDEST PUSH0 PUSH2 0x668 DUP3 PUSH2 0x63C JUMP JUMPDEST PUSH2 0x672 DUP2 DUP6 PUSH2 0x646 JUMP JUMPDEST SWAP4 POP PUSH2 0x682 DUP2 DUP6 PUSH1 0x20 DUP7 ADD PUSH2 0x650 JUMP JUMPDEST DUP1 DUP5 ADD SWAP2 POP POP SWAP3 SWAP2 POP POP JUMP JUMPDEST PUSH0 PUSH2 0x699 DUP3 DUP5 PUSH2 0x65E JUMP JUMPDEST SWAP2 POP DUP2 SWAP1 POP SWAP3 SWAP2 POP POP JUMP INVALID LOG2 PUSH5 0x6970667358 0x22 SLT KECCAK256 0xAD DUP15 DUP4 JUMPI SHR 0xB5 SWAP16 NOT 0x2F 0x4D DUP13 SELFBALANCE 0xA7 SMOD SGT CALL BLOCKHASH 0xC9 PUSH17 0x296C011A4FD7A19880AC4444AD64736F6C PUSH4 0x4300081E STOP CALLER "
		},
		"gasEstimates": {
			"creation": {
				"codeDepositCost": "350800",
				"executionCost": "24700",
				"totalCost": "375500"
			},
			"external": {
				"asignarPausado(bool)": "24673",
				"cambiarOwner(address)": "24788",
				"clave()": "2426",
				"incrementar(uint256)": "infinite",
				"owner()": "2601",
				"pausado()": "2489",
				"saldo()": "2491",
				"setClave(string)": "infinite"
			}
		},
		"methodIdentifiers": {
			"asignarPausado(bool)": "b5400a83",
			"cambiarOwner(address)": "b84d5185",
			"clave()": "1ea318dd",
			"incrementar(uint256)": "b9e30ac6",
			"owner()": "8da5cb5b",
			"pausado()": "50f58e53",
			"saldo()": "a41de865",
			"setClave(string)": "ea865e06"
		}
	},
	"abi": [
		{
			"inputs": [],
			"stateMutability": "nonpayable",
			"type": "constructor"
		},
		{
			"inputs": [
				{
					"internalType": "bool",
					"name": "valor",
					"type": "bool"
				}
			],
			"name": "asignarPausado",
			"outputs": [],
			"stateMutability": "nonpayable",
			"type": "function"
		},
		{
			"inputs": [
				{
					"internalType": "address",
					"name": "_nuevoPropietario",
					"type": "address"
				}
			],
			"name": "cambiarOwner",
			"outputs": [],
			"stateMutability": "nonpayable",
			"type": "function"
		},
		{
			"inputs": [],
			"name": "clave",
			"outputs": [
				{
					"internalType": "bytes32",
					"name": "",
					"type": "bytes32"
				}
			],
			"stateMutability": "view",
			"type": "function"
		},
		{
			"inputs": [
				{
					"internalType": "uint256",
					"name": "valor",
					"type": "uint256"
				}
			],
			"name": "incrementar",
			"outputs": [],
			"stateMutability": "nonpayable",
			"type": "function"
		},
		{
			"inputs": [],
			"name": "owner",
			"outputs": [
				{
					"internalType": "address",
					"name": "",
					"type": "address"
				}
			],
			"stateMutability": "view",
			"type": "function"
		},
		{
			"inputs": [],
			"name": "pausado",
			"outputs": [
				{
					"internalType": "bool",
					"name": "",
					"type": "bool"
				}
			],
			"stateMutability": "view",
			"type": "function"
		},
		{
			"inputs": [],
			"name": "saldo",
			"outputs": [
				{
					"internalType": "uint256",
					"name": "",
					"type": "uint256"
				}
			],
			"stateMutability": "view",
			"type": "function"
		},
		{
			"inputs": [
				{
					"internalType": "string",
					"name": "_str",
					"type": "string"
				}
			],
			"name": "setClave",
			"outputs": [],
			"stateMutability": "nonpayable",
			"type": "function"
		}
	]
}