{
	"data": {
		"bytecode": {
			"linkReferences": {},
			"object": "6080604052348015600e575f5ffd5b5061052e8061001c5f395ff3fe608060405234801561000f575f5ffd5b5060043610610029575f3560e01c8063c38eb0411461002d575b5f5ffd5b610047600480360381019061004291906102c8565b61005e565b604051610055929190610302565b60405180910390f35b5f5f5f5f90505f5f90505f600190505f5f90505f5f90505b8782108061008357508781105b15610197575f6002846100969190610356565b1480156100a257508782105b15610107576100e66040518060400160405280600b81526020017f53756d6172205061723a20000000000000000000000000000000000000000000815250846101a7565b82856100f291906103b3565b945081806100ff906103e6565b925050610184565b5f6002846101159190610356565b1415801561012257508781105b15610183576101666040518060400160405280600d81526020017f53756d617220496d7061723a2000000000000000000000000000000000000000815250846101a7565b828461017291906103b3565b9350808061017f906103e6565b9150505b5b828061018f906103e6565b935050610076565b8484965096505050505050915091565b61023f82826040516024016101bd92919061049d565b6040516020818303038152906040527fb60e72cc000000000000000000000000000000000000000000000000000000007bffffffffffffffffffffffffffffffffffffffffffffffffffffffff19166020820180517bffffffffffffffffffffffffffffffffffffffffffffffffffffffff8381831617835250505050610243565b5050565b61025a8161025261025d61027c565b63ffffffff16565b50565b5f6a636f6e736f6c652e6c6f6790505f5f835160208501845afa505050565b610287819050919050565b61028f6104cb565b565b5f5ffd5b5f819050919050565b6102a781610295565b81146102b1575f5ffd5b50565b5f813590506102c28161029e565b92915050565b5f602082840312156102dd576102dc610291565b5b5f6102ea848285016102b4565b91505092915050565b6102fc81610295565b82525050565b5f6040820190506103155f8301856102f3565b61032260208301846102f3565b9392505050565b7f4e487b71000000000000000000000000000000000000000000000000000000005f52601260045260245ffd5b5f61036082610295565b915061036b83610295565b92508261037b5761037a610329565b5b828206905092915050565b7f4e487b71000000000000000000000000000000000000000000000000000000005f52601160045260245ffd5b5f6103bd82610295565b91506103c883610295565b92508282019050808211156103e0576103df610386565b5b92915050565b5f6103f082610295565b91507fffffffffffffffffffffffffffffffffffffffffffffffffffffffffffffffff820361042257610421610386565b5b600182019050919050565b5f81519050919050565b5f82825260208201905092915050565b8281835e5f83830152505050565b5f601f19601f8301169050919050565b5f61046f8261042d565b6104798185610437565b9350610489818560208601610447565b61049281610455565b840191505092915050565b5f6040820190508181035f8301526104b58185610465565b90506104c460208301846102f3565b9392505050565b7f4e487b71000000000000000000000000000000000000000000000000000000005f52605160045260245ffdfea264697066735822122046288f4519f01abee99385bcc4f3b3746d2d50855c67192a8efbef80989ef12564736f6c634300081e0033",
			"opcodes": "PUSH1 0x80 PUSH1 0x40 MSTORE CALLVALUE DUP1 ISZERO PUSH1 0xE JUMPI PUSH0 PUSH0 REVERT JUMPDEST POP PUSH2 0x52E DUP1 PUSH2 0x1C PUSH0 CODECOPY PUSH0 RETURN INVALID PUSH1 0x80 PUSH1 0x40 MSTORE CALLVALUE DUP1 ISZERO PUSH2 0xF JUMPI PUSH0 PUSH0 REVERT JUMPDEST POP PUSH1 0x4 CALLDATASIZE LT PUSH2 0x29 JUMPI PUSH0 CALLDATALOAD PUSH1 0xE0 SHR DUP1 PUSH4 0xC38EB041 EQ PUSH2 0x2D JUMPI JUMPDEST PUSH0 PUSH0 REVERT JUMPDEST PUSH2 0x47 PUSH1 0x4 DUP1 CALLDATASIZE SUB DUP2 ADD SWAP1 PUSH2 0x42 SWAP2 SWAP1 PUSH2 0x2C8 JUMP JUMPDEST PUSH2 0x5E JUMP JUMPDEST PUSH1 0x40 MLOAD PUSH2 0x55 SWAP3 SWAP2 SWAP1 PUSH2 0x302 JUMP JUMPDEST PUSH1 0x40 MLOAD DUP1 SWAP2 SUB SWAP1 RETURN JUMPDEST PUSH0 PUSH0 PUSH0 PUSH0 SWAP1 POP PUSH0 PUSH0 SWAP1 POP PUSH0 PUSH1 0x1 SWAP1 POP PUSH0 PUSH0 SWAP1 POP PUSH0 PUSH0 SWAP1 POP JUMPDEST DUP8 DUP3 LT DUP1 PUSH2 0x83 JUMPI POP DUP8 DUP2 LT JUMPDEST ISZERO PUSH2 0x197 JUMPI PUSH0 PUSH1 0x2 DUP5 PUSH2 0x96 SWAP2 SWAP1 PUSH2 0x356 JUMP JUMPDEST EQ DUP1 ISZERO PUSH2 0xA2 JUMPI POP DUP8 DUP3 LT JUMPDEST ISZERO PUSH2 0x107 JUMPI PUSH2 0xE6 PUSH1 0x40 MLOAD DUP1 PUSH1 0x40 ADD PUSH1 0x40 MSTORE DUP1 PUSH1 0xB DUP2 MSTORE PUSH1 0x20 ADD PUSH32 0x53756D6172205061723A20000000000000000000000000000000000000000000 DUP2 MSTORE POP DUP5 PUSH2 0x1A7 JUMP JUMPDEST DUP3 DUP6 PUSH2 0xF2 SWAP2 SWAP1 PUSH2 0x3B3 JUMP JUMPDEST SWAP5 POP DUP2 DUP1 PUSH2 0xFF SWAP1 PUSH2 0x3E6 JUMP JUMPDEST SWAP3 POP POP PUSH2 0x184 JUMP JUMPDEST PUSH0 PUSH1 0x2 DUP5 PUSH2 0x115 SWAP2 SWAP1 PUSH2 0x356 JUMP JUMPDEST EQ ISZERO DUP1 ISZERO PUSH2 0x122 JUMPI POP DUP8 DUP2 LT JUMPDEST ISZERO PUSH2 0x183 JUMPI PUSH2 0x166 PUSH1 0x40 MLOAD DUP1 PUSH1 0x40 ADD PUSH1 0x40 MSTORE DUP1 PUSH1 0xD DUP2 MSTORE PUSH1 0x20 ADD PUSH32 0x53756D617220496D7061723A2000000000000000000000000000000000000000 DUP2 MSTORE POP DUP5 PUSH2 0x1A7 JUMP JUMPDEST DUP3 DUP5 PUSH2 0x172 SWAP2 SWAP1 PUSH2 0x3B3 JUMP JUMPDEST SWAP4 POP DUP1 DUP1 PUSH2 0x17F SWAP1 PUSH2 0x3E6 JUMP JUMPDEST SWAP2 POP POP JUMPDEST JUMPDEST DUP3 DUP1 PUSH2 0x18F SWAP1 PUSH2 0x3E6 JUMP JUMPDEST SWAP4 POP POP PUSH2 0x76 JUMP JUMPDEST DUP5 DUP5 SWAP7 POP SWAP7 POP POP POP POP POP POP SWAP2 POP SWAP2 JUMP JUMPDEST PUSH2 0x23F DUP3 DUP3 PUSH1 0x40 MLOAD PUSH1 0x24 ADD PUSH2 0x1BD SWAP3 SWAP2 SWAP1 PUSH2 0x49D JUMP JUMPDEST PUSH1 0x40 MLOAD PUSH1 0x20 DUP2 DUP4 SUB SUB DUP2 MSTORE SWAP1 PUSH1 0x40 MSTORE PUSH32 0xB60E72CC00000000000000000000000000000000000000000000000000000000 PUSH28 0xFFFFFFFFFFFFFFFFFFFFFFFFFFFFFFFFFFFFFFFFFFFFFFFFFFFFFFFF NOT AND PUSH1 0x20 DUP3 ADD DUP1 MLOAD PUSH28 0xFFFFFFFFFFFFFFFFFFFFFFFFFFFFFFFFFFFFFFFFFFFFFFFFFFFFFFFF DUP4 DUP2 DUP4 AND OR DUP4 MSTORE POP POP POP POP PUSH2 0x243 JUMP JUMPDEST POP POP JUMP JUMPDEST PUSH2 0x25A DUP2 PUSH2 0x252 PUSH2 0x25D PUSH2 0x27C JUMP JUMPDEST PUSH4 0xFFFFFFFF AND JUMP JUMPDEST POP JUMP JUMPDEST PUSH0 PUSH11 0x636F6E736F6C652E6C6F67 SWAP1 POP PUSH0 PUSH0 DUP4 MLOAD PUSH1 0x20 DUP6 ADD DUP5 GAS STATICCALL POP POP POP JUMP JUMPDEST PUSH2 0x287 DUP2 SWAP1 POP SWAP2 SWAP1 POP JUMP JUMPDEST PUSH2 0x28F PUSH2 0x4CB JUMP JUMPDEST JUMP JUMPDEST PUSH0 PUSH0 REVERT JUMPDEST PUSH0 DUP2 SWAP1 POP SWAP2 SWAP1 POP JUMP JUMPDEST PUSH2 0x2A7 DUP2 PUSH2 0x295 JUMP JUMPDEST DUP2 EQ PUSH2 0x2B1 JUMPI PUSH0 PUSH0 REVERT JUMPDEST POP JUMP JUMPDEST PUSH0 DUP2 CALLDATALOAD SWAP1 POP PUSH2 0x2C2 DUP2 PUSH2 0x29E JUMP JUMPDEST SWAP3 SWAP2 POP POP JUMP JUMPDEST PUSH0 PUSH1 0x20 DUP3 DUP5 SUB SLT ISZERO PUSH2 0x2DD JUMPI PUSH2 0x2DC PUSH2 0x291 JUMP JUMPDEST JUMPDEST PUSH0 PUSH2 0x2EA DUP5 DUP3 DUP6 ADD PUSH2 0x2B4 JUMP JUMPDEST SWAP2 POP POP SWAP3 SWAP2 POP POP JUMP JUMPDEST PUSH2 0x2FC DUP2 PUSH2 0x295 JUMP JUMPDEST DUP3 MSTORE POP POP JUMP JUMPDEST PUSH0 PUSH1 0x40 DUP3 ADD SWAP1 POP PUSH2 0x315 PUSH0 DUP4 ADD DUP6 PUSH2 0x2F3 JUMP JUMPDEST PUSH2 0x322 PUSH1 0x20 DUP4 ADD DUP5 PUSH2 0x2F3 JUMP JUMPDEST SWAP4 SWAP3 POP POP POP JUMP JUMPDEST PUSH32 0x4E487B7100000000000000000000000000000000000000000000000000000000 PUSH0 MSTORE PUSH1 0x12 PUSH1 0x4 MSTORE PUSH1 0x24 PUSH0 REVERT JUMPDEST PUSH0 PUSH2 0x360 DUP3 PUSH2 0x295 JUMP JUMPDEST SWAP2 POP PUSH2 0x36B DUP4 PUSH2 0x295 JUMP JUMPDEST SWAP3 POP DUP3 PUSH2 0x37B JUMPI PUSH2 0x37A PUSH2 0x329 JUMP JUMPDEST JUMPDEST DUP3 DUP3 MOD SWAP1 POP SWAP3 SWAP2 POP POP JUMP JUMPDEST PUSH32 0x4E487B7100000000000000000000000000000000000000000000000000000000 PUSH0 MSTORE PUSH1 0x11 PUSH1 0x4 MSTORE PUSH1 0x24 PUSH0 REVERT JUMPDEST PUSH0 PUSH2 0x3BD DUP3 PUSH2 0x295 JUMP JUMPDEST SWAP2 POP PUSH2 0x3C8 DUP4 PUSH2 0x295 JUMP JUMPDEST SWAP3 POP DUP3 DUP3 ADD SWAP1 POP DUP1 DUP3 GT ISZERO PUSH2 0x3E0 JUMPI PUSH2 0x3DF PUSH2 0x386 JUMP JUMPDEST JUMPDEST SWAP3 SWAP2 POP POP JUMP JUMPDEST PUSH0 PUSH2 0x3F0 DUP3 PUSH2 0x295 JUMP JUMPDEST SWAP2 POP PUSH32 0xFFFFFFFFFFFFFFFFFFFFFFFFFFFFFFFFFFFFFFFFFFFFFFFFFFFFFFFFFFFFFFFF DUP3 SUB PUSH2 0x422 JUMPI PUSH2 0x421 PUSH2 0x386 JUMP JUMPDEST JUMPDEST PUSH1 0x1 DUP3 ADD SWAP1 POP SWAP2 SWAP1 POP JUMP JUMPDEST PUSH0 DUP2 MLOAD SWAP1 POP SWAP2 SWAP1 POP JUMP JUMPDEST PUSH0 DUP3 DUP3 MSTORE PUSH1 0x20 DUP3 ADD SWAP1 POP SWAP3 SWAP2 POP POP JUMP JUMPDEST DUP3 DUP2 DUP4 MCOPY PUSH0 DUP4 DUP4 ADD MSTORE POP POP POP JUMP JUMPDEST PUSH0 PUSH1 0x1F NOT PUSH1 0x1F DUP4 ADD AND SWAP1 POP SWAP2 SWAP1 POP JUMP JUMPDEST PUSH0 PUSH2 0x46F DUP3 PUSH2 0x42D JUMP JUMPDEST PUSH2 0x479 DUP2 DUP6 PUSH2 0x437 JUMP JUMPDEST SWAP4 POP PUSH2 0x489 DUP2 DUP6 PUSH1 0x20 DUP7 ADD PUSH2 0x447 JUMP JUMPDEST PUSH2 0x492 DUP2 PUSH2 0x455 JUMP JUMPDEST DUP5 ADD SWAP2 POP POP SWAP3 SWAP2 POP POP JUMP JUMPDEST PUSH0 PUSH1 0x40 DUP3 ADD SWAP1 POP DUP2 DUP2 SUB PUSH0 DUP4 ADD MSTORE PUSH2 0x4B5 DUP2 DUP6 PUSH2 0x465 JUMP JUMPDEST SWAP1 POP PUSH2 0x4C4 PUSH1 0x20 DUP4 ADD DUP5 PUSH2 0x2F3 JUMP JUMPDEST SWAP4 SWAP3 POP POP POP JUMP JUMPDEST PUSH32 0x4E487B7100000000000000000000000000000000000000000000000000000000 PUSH0 MSTORE PUSH1 0x51 PUSH1 0x4 MSTORE PUSH1 0x24 PUSH0 REVERT INVALID LOG2 PUSH5 0x6970667358 0x22 SLT KECCAK256 CHAINID 0x28 DUP16 GASLIMIT NOT CREATE BYTE 0xBE 0xE9 SWAP4 DUP6 0xBC 0xC4 RETURN 0xB3 PUSH21 0x6D2D50855C67192A8EFBEF80989EF12564736F6C63 NUMBER STOP ADDMOD 0x1E STOP CALLER "
		},
		"gasEstimates": {
			"creation": {
				"codeDepositCost": "265200",
				"executionCost": "304",
				"totalCost": "265504"
			},
			"external": {
				"sumEvenOddNumbers(uint256)": "infinite"
			}
		},
		"methodIdentifiers": {
			"sumEvenOddNumbers(uint256)": "c38eb041"
		}
	},
	"abi": [
		{
			"inputs": [
				{
					"internalType": "uint256",
					"name": "n",
					"type": "uint256"
				}
			],
			"name": "sumEvenOddNumbers",
			"outputs": [
				{
					"internalType": "uint256",
					"name": "sumaPares",
					"type": "uint256"
				},
				{
					"internalType": "uint256",
					"name": "sumaImpares",
					"type": "uint256"
				}
			],
			"stateMutability": "pure",
			"type": "function"
		}
	]
}